{
  "transactions": [
    {
      "hash": "0xb6b8116077f8352c7e86e88f1098048f34d41ba6f03c4585b21ab0113fa05ed3",
      "transactionType": "CALL",
      "contractName": null,
      "contractAddress": "0x177Ad3aD54715A84Fa906705c7F7660444d7d6e1",
      "function": "transfer(address,uint256)",
      "arguments": [
        "0xc7Cfd9898b4be87A13552084148442A2b4d4c23F",
        "10000000000000000000"
      ],
      "transaction": {
        "type": "0x02",
        "from": "0x7824a63a4051eb44723aaae83398c847e51187fa",
        "to": "0x177ad3ad54715a84fa906705c7f7660444d7d6e1",
        "gas": "0x11683",
        "value": "0x0",
        "data": "0xa9059cbb000000000000000000000000c7cfd9898b4be87a13552084148442a2b4d4c23f0000000000000000000000000000000000000000000000008ac7230489e80000",
        "nonce": "0x2",
        "accessList": []
      },
      "additionalContracts": [],
      "isFixedGasLimit": false
    },
    {
      "hash": "0xf7472bd543bb69fa32c7c5ccac4322c288b1eebb7bac645cfbb2d5f9fec77186",
      "transactionType": "CALL",
      "contractName": null,
      "contractAddress": "0x177Ad3aD54715A84Fa906705c7F7660444d7d6e1",
      "function": "transfer(address,uint256)",
      "arguments": [
        "0x44cF205a7dbD9656b59c084BE7EF64880C2b3F07",
        "10000000000000000000"
      ],
      "transaction": {
        "type": "0x02",
        "from": "0x7824a63a4051eb44723aaae83398c847e51187fa",
        "to": "0x177ad3ad54715a84fa906705c7f7660444d7d6e1",
        "gas": "0x11683",
        "value": "0x0",
        "data": "0xa9059cbb00000000000000000000000044cf205a7dbd9656b59c084be7ef64880c2b3f070000000000000000000000000000000000000000000000008ac7230489e80000",
        "nonce": "0x3",
        "accessList": []
      },
      "additionalContracts": [],
      "isFixedGasLimit": false
    },
    {
      "hash": "0x4dcce43f37701ba86e32ce38558461e0a3857a91b80545f41850a031c983fe53",
      "transactionType": "CALL",
      "contractName": null,
      "contractAddress": "0x177Ad3aD54715A84Fa906705c7F7660444d7d6e1",
      "function": "transfer(address,uint256)",
      "arguments": [
        "0x5fd87F43716A28859b238b11EC49535b2BA4d447",
        "10000000000000000000"
      ],
      "transaction": {
        "type": "0x02",
        "from": "0x7824a63a4051eb44723aaae83398c847e51187fa",
        "to": "0x177ad3ad54715a84fa906705c7f7660444d7d6e1",
        "gas": "0x11683",
        "value": "0x0",
        "data": "0xa9059cbb0000000000000000000000005fd87f43716a28859b238b11ec49535b2ba4d4470000000000000000000000000000000000000000000000008ac7230489e80000",
        "nonce": "0x4",
        "accessList": []
      },
      "additionalContracts": [],
      "isFixedGasLimit": false
    },
    {
      "hash": "0x765e9a88769877ddaa8ef2c3adefa3e0b400699e9d1b7d8cb0ec4e8e6461b624",
      "transactionType": "CALL",
      "contractName": null,
      "contractAddress": "0x177Ad3aD54715A84Fa906705c7F7660444d7d6e1",
      "function": "transfer(address,uint256)",
      "arguments": [
        "0x97DBD6D0b07B3A66497Bb0da404ed6421584c54c",
        "10000000000000000000"
      ],
      "transaction": {
        "type": "0x02",
        "from": "0x7824a63a4051eb44723aaae83398c847e51187fa",
        "to": "0x177ad3ad54715a84fa906705c7f7660444d7d6e1",
        "gas": "0x11683",
        "value": "0x0",
        "data": "0xa9059cbb00000000000000000000000097dbd6d0b07b3a66497bb0da404ed6421584c54c0000000000000000000000000000000000000000000000008ac7230489e80000",
        "nonce": "0x5",
        "accessList": []
      },
      "additionalContracts": [],
      "isFixedGasLimit": false
    },
    {
      "hash": "0x32f62d45bd96b8e6ce1df812e9d8c302293b31f67d65ee015b6b7f7bf3fc9559",
      "transactionType": "CALL",
      "contractName": null,
      "contractAddress": "0x177Ad3aD54715A84Fa906705c7F7660444d7d6e1",
      "function": "transfer(address,uint256)",
      "arguments": [
        "0x36b92f71116E50B8fd0aa1A4529922B54F1B5C3C",
        "10000000000000000000"
      ],
      "transaction": {
        "type": "0x02",
        "from": "0x7824a63a4051eb44723aaae83398c847e51187fa",
        "to": "0x177ad3ad54715a84fa906705c7f7660444d7d6e1",
        "gas": "0x11683",
        "value": "0x0",
        "data": "0xa9059cbb00000000000000000000000036b92f71116e50b8fd0aa1a4529922b54f1b5c3c0000000000000000000000000000000000000000000000008ac7230489e80000",
        "nonce": "0x6",
        "accessList": []
      },
      "additionalContracts": [],
      "isFixedGasLimit": false
    },
    {
      "hash": "0xd95b7b5c2df5213f0d5c6238c659f0eb9f5130ce8513bf8c59695fb8266fbe6f",
      "transactionType": "CALL",
      "contractName": null,
      "contractAddress": "0x177Ad3aD54715A84Fa906705c7F7660444d7d6e1",
      "function": "transfer(address,uint256)",
      "arguments": [
        "0xC4de020Cfb94D5e7Da5536551da6cfE01Dce33Ec",
        "10000000000000000000"
      ],
      "transaction": {
        "type": "0x02",
        "from": "0x7824a63a4051eb44723aaae83398c847e51187fa",
        "to": "0x177ad3ad54715a84fa906705c7f7660444d7d6e1",
        "gas": "0x11683",
        "value": "0x0",
        "data": "0xa9059cbb000000000000000000000000c4de020cfb94d5e7da5536551da6cfe01dce33ec0000000000000000000000000000000000000000000000008ac7230489e80000",
        "nonce": "0x7",
        "accessList": []
      },
      "additionalContracts": [],
      "isFixedGasLimit": false
    },
    {
      "hash": "0x2f53223206847c6d5f4323a472bd8d9b772165721c200580064ae2c003728e03",
      "transactionType": "CALL",
      "contractName": null,
      "contractAddress": "0x177Ad3aD54715A84Fa906705c7F7660444d7d6e1",
      "function": "transfer(address,uint256)",
      "arguments": [
        "0x51F64E44A405D1a89176b752a86B692575F6E849",
        "10000000000000000000"
      ],
      "transaction": {
        "type": "0x02",
        "from": "0x7824a63a4051eb44723aaae83398c847e51187fa",
        "to": "0x177ad3ad54715a84fa906705c7f7660444d7d6e1",
        "gas": "0x11683",
        "value": "0x0",
        "data": "0xa9059cbb00000000000000000000000051f64e44a405d1a89176b752a86b692575f6e8490000000000000000000000000000000000000000000000008ac7230489e80000",
        "nonce": "0x8",
        "accessList": []
      },
      "additionalContracts": [],
      "isFixedGasLimit": false
    },
    {
      "hash": "0x499742c36b9141a01ffba1769f5d92060468b09480c5b8430a2d72b92df47183",
      "transactionType": "CALL",
      "contractName": null,
      "contractAddress": "0x177Ad3aD54715A84Fa906705c7F7660444d7d6e1",
      "function": "transfer(address,uint256)",
      "arguments": [
        "0xAEC4749fC27e35c2D5C6C83C52579CDa4f6a7A0E",
        "10000000000000000000"
      ],
      "transaction": {
        "type": "0x02",
        "from": "0x7824a63a4051eb44723aaae83398c847e51187fa",
        "to": "0x177ad3ad54715a84fa906705c7f7660444d7d6e1",
        "gas": "0x11683",
        "value": "0x0",
        "data": "0xa9059cbb000000000000000000000000aec4749fc27e35c2d5c6c83c52579cda4f6a7a0e0000000000000000000000000000000000000000000000008ac7230489e80000",
        "nonce": "0x9",
        "accessList": []
      },
      "additionalContracts": [],
      "isFixedGasLimit": false
    },
    {
      "hash": "0xfaaa037d3f64792f6797f26e13fc3eb882637cee30cdd780a3d6b9b65bec291d",
      "transactionType": "CALL",
      "contractName": null,
      "contractAddress": "0x177Ad3aD54715A84Fa906705c7F7660444d7d6e1",
      "function": "transfer(address,uint256)",
      "arguments": [
        "0x399035F0493d7DA77E0c44ec87D9360021DaFD59",
        "10000000000000000000"
      ],
      "transaction": {
        "type": "0x02",
        "from": "0x7824a63a4051eb44723aaae83398c847e51187fa",
        "to": "0x177ad3ad54715a84fa906705c7f7660444d7d6e1",
        "gas": "0x11672",
        "value": "0x0",
        "data": "0xa9059cbb000000000000000000000000399035f0493d7da77e0c44ec87d9360021dafd590000000000000000000000000000000000000000000000008ac7230489e80000",
        "nonce": "0xa",
        "accessList": []
      },
      "additionalContracts": [],
      "isFixedGasLimit": false
    },
    {
      "hash": "0x5f1088d4520b201ba1cb97028f875232e17baee0c061dfec8684500c0614b61e",
      "transactionType": "CALL",
      "contractName": null,
      "contractAddress": "0x177Ad3aD54715A84Fa906705c7F7660444d7d6e1",
      "function": "transfer(address,uint256)",
      "arguments": [
        "0x4B2bE391Da027155b21b725c37fF289A46d9C06c",
        "10000000000000000000"
      ],
      "transaction": {
        "type": "0x02",
        "from": "0x7824a63a4051eb44723aaae83398c847e51187fa",
        "to": "0x177ad3ad54715a84fa906705c7f7660444d7d6e1",
        "gas": "0x11683",
        "value": "0x0",
        "data": "0xa9059cbb0000000000000000000000004b2be391da027155b21b725c37ff289a46d9c06c0000000000000000000000000000000000000000000000008ac7230489e80000",
        "nonce": "0xb",
        "accessList": []
      },
      "additionalContracts": [],
      "isFixedGasLimit": false
    },
    {
      "hash": "0x1090a603f8679c6fc5f012254a601eae5853201e761fdba735700ba05803aa21",
      "transactionType": "CALL",
      "contractName": null,
      "contractAddress": "0x177Ad3aD54715A84Fa906705c7F7660444d7d6e1",
      "function": "transfer(address,uint256)",
      "arguments": [
        "0xfEB36e8150d1937809Ea25c2C4D4ff8cf0a85246",
        "10000000000000000000"
      ],
      "transaction": {
        "type": "0x02",
        "from": "0x7824a63a4051eb44723aaae83398c847e51187fa",
        "to": "0x177ad3ad54715a84fa906705c7f7660444d7d6e1",
        "gas": "0x11683",
        "value": "0x0",
        "data": "0xa9059cbb000000000000000000000000feb36e8150d1937809ea25c2c4d4ff8cf0a852460000000000000000000000000000000000000000000000008ac7230489e80000",
        "nonce": "0xc",
        "accessList": []
      },
      "additionalContracts": [],
      "isFixedGasLimit": false
    },
    {
      "hash": "0x11d661776c28974b7631b259002c12dc4142ae8e710604f107f1a49c5074fe17",
      "transactionType": "CALL",
      "contractName": null,
      "contractAddress": "0x177Ad3aD54715A84Fa906705c7F7660444d7d6e1",
      "function": "transfer(address,uint256)",
      "arguments": [
        "0xB1fC3B05dEDEc175678Be3C44cb0Ce63A6133C6b",
        "10000000000000000000"
      ],
      "transaction": {
        "type": "0x02",
        "from": "0x7824a63a4051eb44723aaae83398c847e51187fa",
        "to": "0x177ad3ad54715a84fa906705c7f7660444d7d6e1",
        "gas": "0x11683",
        "value": "0x0",
        "data": "0xa9059cbb000000000000000000000000b1fc3b05dedec175678be3c44cb0ce63a6133c6b0000000000000000000000000000000000000000000000008ac7230489e80000",
        "nonce": "0xd",
        "accessList": []
      },
      "additionalContracts": [],
      "isFixedGasLimit": false
    },
    {
      "hash": "0xa06533f7b68986d7c071cc330a5c735b24d7115888b539989d345d402e842b64",
      "transactionType": "CALL",
      "contractName": null,
      "contractAddress": "0x177Ad3aD54715A84Fa906705c7F7660444d7d6e1",
      "function": "transfer(address,uint256)",
      "arguments": [
        "0x295988D44C7eE38Eb0ABaD16668A310770EfD0fA",
        "10000000000000000000"
      ],
      "transaction": {
        "type": "0x02",
        "from": "0x7824a63a4051eb44723aaae83398c847e51187fa",
        "to": "0x177ad3ad54715a84fa906705c7f7660444d7d6e1",
        "gas": "0x11683",
        "value": "0x0",
        "data": "0xa9059cbb000000000000000000000000295988d44c7ee38eb0abad16668a310770efd0fa0000000000000000000000000000000000000000000000008ac7230489e80000",
        "nonce": "0xe",
        "accessList": []
      },
      "additionalContracts": [],
      "isFixedGasLimit": false
    },
    {
      "hash": "0xa03b2fc87353d9428649e286c32c820494921efdb3b7ec7af73985212820f2df",
      "transactionType": "CALL",
      "contractName": null,
      "contractAddress": "0x177Ad3aD54715A84Fa906705c7F7660444d7d6e1",
      "function": "transfer(address,uint256)",
      "arguments": [
        "0x21D9E9dB2f504261B05f84D9cc7a4dC295B81fF8",
        "10000000000000000000"
      ],
      "transaction": {
        "type": "0x02",
        "from": "0x7824a63a4051eb44723aaae83398c847e51187fa",
        "to": "0x177ad3ad54715a84fa906705c7f7660444d7d6e1",
        "gas": "0x11683",
        "value": "0x0",
        "data": "0xa9059cbb00000000000000000000000021d9e9db2f504261b05f84d9cc7a4dc295b81ff80000000000000000000000000000000000000000000000008ac7230489e80000",
        "nonce": "0xf",
        "accessList": []
      },
      "additionalContracts": [],
      "isFixedGasLimit": false
    },
    {
      "hash": "0x546f636bcd9be03d5fc7bd4f7ad5e2fceb9b092ab9478da5244ed6bb7f10205f",
      "transactionType": "CALL",
      "contractName": null,
      "contractAddress": "0x177Ad3aD54715A84Fa906705c7F7660444d7d6e1",
      "function": "transfer(address,uint256)",
      "arguments": [
        "0x973C84e8bB1C16a0ed47010723932732a21053C5",
        "10000000000000000000"
      ],
      "transaction": {
        "type": "0x02",
        "from": "0x7824a63a4051eb44723aaae83398c847e51187fa",
        "to": "0x177ad3ad54715a84fa906705c7f7660444d7d6e1",
        "gas": "0x11683",
        "value": "0x0",
        "data": "0xa9059cbb000000000000000000000000973c84e8bb1c16a0ed47010723932732a21053c50000000000000000000000000000000000000000000000008ac7230489e80000",
        "nonce": "0x10",
        "accessList": []
      },
      "additionalContracts": [],
      "isFixedGasLimit": false
    },
    {
      "hash": "0x1cc45e01a16f6d4fe2eaf6f405b0596033dd3841dd83895473ae7f214172ae48",
      "transactionType": "CALL",
      "contractName": null,
      "contractAddress": "0x177Ad3aD54715A84Fa906705c7F7660444d7d6e1",
      "function": "transfer(address,uint256)",
      "arguments": [
        "0x0c28fBA70C7506b1210e33d47097F7934915f8CB",
        "10000000000000000000"
      ],
      "transaction": {
        "type": "0x02",
        "from": "0x7824a63a4051eb44723aaae83398c847e51187fa",
        "to": "0x177ad3ad54715a84fa906705c7f7660444d7d6e1",
        "gas": "0x11683",
        "value": "0x0",
        "data": "0xa9059cbb0000000000000000000000000c28fba70c7506b1210e33d47097f7934915f8cb0000000000000000000000000000000000000000000000008ac7230489e80000",
        "nonce": "0x11",
        "accessList": []
      },
      "additionalContracts": [],
      "isFixedGasLimit": false
    },
    {
      "hash": "0x067341d9cb359c8104d0d7cb56b2cc47b291e9ef84b9c74ab291aebc0df601ac",
      "transactionType": "CALL",
      "contractName": null,
      "contractAddress": "0x177Ad3aD54715A84Fa906705c7F7660444d7d6e1",
      "function": "transfer(address,uint256)",
      "arguments": [
        "0xdBf63CF92487fE846cf6742ba7a47E34DD0f0D56",
        "10000000000000000000"
      ],
      "transaction": {
        "type": "0x02",
        "from": "0x7824a63a4051eb44723aaae83398c847e51187fa",
        "to": "0x177ad3ad54715a84fa906705c7f7660444d7d6e1",
        "gas": "0x11683",
        "value": "0x0",
        "data": "0xa9059cbb000000000000000000000000dbf63cf92487fe846cf6742ba7a47e34dd0f0d560000000000000000000000000000000000000000000000008ac7230489e80000",
        "nonce": "0x12",
        "accessList": []
      },
      "additionalContracts": [],
      "isFixedGasLimit": false
    },
    {
      "hash": "0x2e32bf73c52b6cd3e6f4f3b994efb70069f8fe81bfeca9272deb1883a743209e",
      "transactionType": "CALL",
      "contractName": null,
      "contractAddress": "0x177Ad3aD54715A84Fa906705c7F7660444d7d6e1",
      "function": "transfer(address,uint256)",
      "arguments": [
        "0xF33443699bfF5249c56A8Fd776F01c30A8A0F2a7",
        "10000000000000000000"
      ],
      "transaction": {
        "type": "0x02",
        "from": "0x7824a63a4051eb44723aaae83398c847e51187fa",
        "to": "0x177ad3ad54715a84fa906705c7f7660444d7d6e1",
        "gas": "0x11683",
        "value": "0x0",
        "data": "0xa9059cbb000000000000000000000000f33443699bff5249c56a8fd776f01c30a8a0f2a70000000000000000000000000000000000000000000000008ac7230489e80000",
        "nonce": "0x13",
        "accessList": []
      },
      "additionalContracts": [],
      "isFixedGasLimit": false
    },
    {
      "hash": "0x24f82983ae95a5fc79075191d29ec288642bca9986727ca4a4f58d83258a2c5d",
      "transactionType": "CALL",
      "contractName": null,
      "contractAddress": "0x177Ad3aD54715A84Fa906705c7F7660444d7d6e1",
      "function": "transfer(address,uint256)",
      "arguments": [
        "0x15f99dcc6904D458FC0710c980E43a8A0a28307E",
        "10000000000000000000"
      ],
      "transaction": {
        "type": "0x02",
        "from": "0x7824a63a4051eb44723aaae83398c847e51187fa",
        "to": "0x177ad3ad54715a84fa906705c7f7660444d7d6e1",
        "gas": "0x11683",
        "value": "0x0",
        "data": "0xa9059cbb00000000000000000000000015f99dcc6904d458fc0710c980e43a8a0a28307e0000000000000000000000000000000000000000000000008ac7230489e80000",
        "nonce": "0x14",
        "accessList": []
      },
      "additionalContracts": [],
      "isFixedGasLimit": false
    },
    {
      "hash": "0x260b440e425f98f2d62b6222e2cefc46754f9d73db3ff80912bd1254d2245898",
      "transactionType": "CALL",
      "contractName": null,
      "contractAddress": "0x177Ad3aD54715A84Fa906705c7F7660444d7d6e1",
      "function": "transfer(address,uint256)",
      "arguments": [
        "0x01DfF7f363552D9E195Ab25396680A536498573F",
        "10000000000000000000"
      ],
      "transaction": {
        "type": "0x02",
        "from": "0x7824a63a4051eb44723aaae83398c847e51187fa",
        "to": "0x177ad3ad54715a84fa906705c7f7660444d7d6e1",
        "gas": "0x11683",
        "value": "0x0",
        "data": "0xa9059cbb00000000000000000000000001dff7f363552d9e195ab25396680a536498573f0000000000000000000000000000000000000000000000008ac7230489e80000",
        "nonce": "0x15",
        "accessList": []
      },
      "additionalContracts": [],
      "isFixedGasLimit": false
    },
    {
      "hash": "0xb3f307fbf918ecd2db2065062536796a7a49ef4b12564a29c25dce202563c3d6",
      "transactionType": "CALL",
      "contractName": null,
      "contractAddress": "0x177Ad3aD54715A84Fa906705c7F7660444d7d6e1",
      "function": "transfer(address,uint256)",
      "arguments": [
        "0x5Bf7583b93117e57c5ea6b3E799B0382751c07DA",
        "10000000000000000000"
      ],
      "transaction": {
        "type": "0x02",
        "from": "0x7824a63a4051eb44723aaae83398c847e51187fa",
        "to": "0x177ad3ad54715a84fa906705c7f7660444d7d6e1",
        "gas": "0x11683",
        "value": "0x0",
        "data": "0xa9059cbb0000000000000000000000005bf7583b93117e57c5ea6b3e799b0382751c07da0000000000000000000000000000000000000000000000008ac7230489e80000",
        "nonce": "0x16",
        "accessList": []
      },
      "additionalContracts": [],
      "isFixedGasLimit": false
    },
    {
      "hash": "0x5dfce6bf113259c3cacefe10f901e238e69a5025db0a7094eb40fda3ddf258cb",
      "transactionType": "CALL",
      "contractName": null,
      "contractAddress": "0x177Ad3aD54715A84Fa906705c7F7660444d7d6e1",
      "function": "transfer(address,uint256)",
      "arguments": [
        "0xEDc418502EF1a393240A62831a37072F0336AA6d",
        "10000000000000000000"
      ],
      "transaction": {
        "type": "0x02",
        "from": "0x7824a63a4051eb44723aaae83398c847e51187fa",
        "to": "0x177ad3ad54715a84fa906705c7f7660444d7d6e1",
        "gas": "0x11683",
        "value": "0x0",
        "data": "0xa9059cbb000000000000000000000000edc418502ef1a393240a62831a37072f0336aa6d0000000000000000000000000000000000000000000000008ac7230489e80000",
        "nonce": "0x17",
        "accessList": []
      },
      "additionalContracts": [],
      "isFixedGasLimit": false
    },
    {
      "hash": "0x7b6607ba241936b3cac2366c6ca334f72ee86a98661f8c9ed885c78b86e9582d",
      "transactionType": "CALL",
      "contractName": null,
      "contractAddress": "0x177Ad3aD54715A84Fa906705c7F7660444d7d6e1",
      "function": "transfer(address,uint256)",
      "arguments": [
        "0x5A4b1164289a4161A73446F83D294Bb4e026e738",
        "10000000000000000000"
      ],
      "transaction": {
        "type": "0x02",
        "from": "0x7824a63a4051eb44723aaae83398c847e51187fa",
        "to": "0x177ad3ad54715a84fa906705c7f7660444d7d6e1",
        "gas": "0x11683",
        "value": "0x0",
        "data": "0xa9059cbb0000000000000000000000005a4b1164289a4161a73446f83d294bb4e026e7380000000000000000000000000000000000000000000000008ac7230489e80000",
        "nonce": "0x18",
        "accessList": []
      },
      "additionalContracts": [],
      "isFixedGasLimit": false
    },
    {
      "hash": "0x8e5f06cc0afdc82e48074291bc8585023dbe83c595bde8c5e210f139d9adb9d1",
      "transactionType": "CALL",
      "contractName": null,
      "contractAddress": "0x177Ad3aD54715A84Fa906705c7F7660444d7d6e1",
      "function": "transfer(address,uint256)",
      "arguments": [
        "0x86f2f13a1d622014edE5695e3731F7A09bc7b481",
        "10000000000000000000"
      ],
      "transaction": {
        "type": "0x02",
        "from": "0x7824a63a4051eb44723aaae83398c847e51187fa",
        "to": "0x177ad3ad54715a84fa906705c7f7660444d7d6e1",
        "gas": "0x11683",
        "value": "0x0",
        "data": "0xa9059cbb00000000000000000000000086f2f13a1d622014ede5695e3731f7a09bc7b4810000000000000000000000000000000000000000000000008ac7230489e80000",
        "nonce": "0x19",
        "accessList": []
      },
      "additionalContracts": [],
      "isFixedGasLimit": false
    },
    {
      "hash": "0x97b0ed7a491f712a0f94e0f5b7682e4de41580369be8c8d0b36bc380f5a73260",
      "transactionType": "CALL",
      "contractName": null,
      "contractAddress": "0x177Ad3aD54715A84Fa906705c7F7660444d7d6e1",
      "function": "transfer(address,uint256)",
      "arguments": [
        "0x732903f195c27C45Aa86a2045aa160442608F21A",
        "10000000000000000000"
      ],
      "transaction": {
        "type": "0x02",
        "from": "0x7824a63a4051eb44723aaae83398c847e51187fa",
        "to": "0x177ad3ad54715a84fa906705c7f7660444d7d6e1",
        "gas": "0x11683",
        "value": "0x0",
        "data": "0xa9059cbb000000000000000000000000732903f195c27c45aa86a2045aa160442608f21a0000000000000000000000000000000000000000000000008ac7230489e80000",
        "nonce": "0x1a",
        "accessList": []
      },
      "additionalContracts": [],
      "isFixedGasLimit": false
    },
    {
      "hash": "0x9c46719f8d7164c65f796490598d67743130c21a2b212c9f39f79afcde1c2f67",
      "transactionType": "CALL",
      "contractName": null,
      "contractAddress": "0x177Ad3aD54715A84Fa906705c7F7660444d7d6e1",
      "function": "transfer(address,uint256)",
      "arguments": [
        "0xcaa8615677eDbAacC857f25Bc669bC4A776642F5",
        "10000000000000000000"
      ],
      "transaction": {
        "type": "0x02",
        "from": "0x7824a63a4051eb44723aaae83398c847e51187fa",
        "to": "0x177ad3ad54715a84fa906705c7f7660444d7d6e1",
        "gas": "0x11683",
        "value": "0x0",
        "data": "0xa9059cbb000000000000000000000000caa8615677edbaacc857f25bc669bc4a776642f50000000000000000000000000000000000000000000000008ac7230489e80000",
        "nonce": "0x1b",
        "accessList": []
      },
      "additionalContracts": [],
      "isFixedGasLimit": false
    },
    {
      "hash": "0xed216b691565b22f917b5910d12a473fa00478d725a3f13bf77bf94fc1a03d61",
      "transactionType": "CALL",
      "contractName": null,
      "contractAddress": "0x177Ad3aD54715A84Fa906705c7F7660444d7d6e1",
      "function": "transfer(address,uint256)",
      "arguments": [
        "0xF9E2d4b265Fef348e05AFf35658B85AC4F45d6eF",
        "10000000000000000000"
      ],
      "transaction": {
        "type": "0x02",
        "from": "0x7824a63a4051eb44723aaae83398c847e51187fa",
        "to": "0x177ad3ad54715a84fa906705c7f7660444d7d6e1",
        "gas": "0x11683",
        "value": "0x0",
        "data": "0xa9059cbb000000000000000000000000f9e2d4b265fef348e05aff35658b85ac4f45d6ef0000000000000000000000000000000000000000000000008ac7230489e80000",
        "nonce": "0x1c",
        "accessList": []
      },
      "additionalContracts": [],
      "isFixedGasLimit": false
    },
    {
      "hash": "0xd2947d0b253c2c1a1bc8e05241f7e7b4910290d428246c9f4ca0fc1dafa8144f",
      "transactionType": "CALL",
      "contractName": null,
      "contractAddress": "0x177Ad3aD54715A84Fa906705c7F7660444d7d6e1",
      "function": "transfer(address,uint256)",
      "arguments": [
        "0xB38449e8bBC51580f85399A58480C3A79B634Cdc",
        "10000000000000000000"
      ],
      "transaction": {
        "type": "0x02",
        "from": "0x7824a63a4051eb44723aaae83398c847e51187fa",
        "to": "0x177ad3ad54715a84fa906705c7f7660444d7d6e1",
        "gas": "0x11683",
        "value": "0x0",
        "data": "0xa9059cbb000000000000000000000000b38449e8bbc51580f85399a58480c3a79b634cdc0000000000000000000000000000000000000000000000008ac7230489e80000",
        "nonce": "0x1d",
        "accessList": []
      },
      "additionalContracts": [],
      "isFixedGasLimit": false
    },
    {
      "hash": "0x56d88f06797b80ae36d2b64d0c35b00d523d1729e67f6d98f360e0634869d3ac",
      "transactionType": "CALL",
      "contractName": null,
      "contractAddress": "0x177Ad3aD54715A84Fa906705c7F7660444d7d6e1",
      "function": "transfer(address,uint256)",
      "arguments": [
        "0x01315aB5d2e074285DC38D7D79e5B5a14C69fa8a",
        "10000000000000000000"
      ],
      "transaction": {
        "type": "0x02",
        "from": "0x7824a63a4051eb44723aaae83398c847e51187fa",
        "to": "0x177ad3ad54715a84fa906705c7f7660444d7d6e1",
        "gas": "0x11683",
        "value": "0x0",
        "data": "0xa9059cbb00000000000000000000000001315ab5d2e074285dc38d7d79e5b5a14c69fa8a0000000000000000000000000000000000000000000000008ac7230489e80000",
        "nonce": "0x1e",
        "accessList": []
      },
      "additionalContracts": [],
      "isFixedGasLimit": false
    },
    {
      "hash": "0xaa8577111135a77d68197c21859aef3e007f1f69f1614acdc22ec65dd35d46f9",
      "transactionType": "CALL",
      "contractName": null,
      "contractAddress": "0x177Ad3aD54715A84Fa906705c7F7660444d7d6e1",
      "function": "transfer(address,uint256)",
      "arguments": [
        "0xBC23F89D18f702C34D655079A144037CEbd9257F",
        "10000000000000000000"
      ],
      "transaction": {
        "type": "0x02",
        "from": "0x7824a63a4051eb44723aaae83398c847e51187fa",
        "to": "0x177ad3ad54715a84fa906705c7f7660444d7d6e1",
        "gas": "0x11683",
        "value": "0x0",
        "data": "0xa9059cbb000000000000000000000000bc23f89d18f702c34d655079a144037cebd9257f0000000000000000000000000000000000000000000000008ac7230489e80000",
        "nonce": "0x1f",
        "accessList": []
      },
      "additionalContracts": [],
      "isFixedGasLimit": false
    },
    {
      "hash": "0xcc46ca83ecef4430f0c5427ee4a092d6d44e59ba6e74a235edb4da99931f5243",
      "transactionType": "CALL",
      "contractName": null,
      "contractAddress": "0x177Ad3aD54715A84Fa906705c7F7660444d7d6e1",
      "function": "transfer(address,uint256)",
      "arguments": [
        "0x0c96b5CCc9dC8f19Df8e2a5c15efDB2dc20d70f9",
        "10000000000000000000"
      ],
      "transaction": {
        "type": "0x02",
        "from": "0x7824a63a4051eb44723aaae83398c847e51187fa",
        "to": "0x177ad3ad54715a84fa906705c7f7660444d7d6e1",
        "gas": "0x11683",
        "value": "0x0",
        "data": "0xa9059cbb0000000000000000000000000c96b5ccc9dc8f19df8e2a5c15efdb2dc20d70f90000000000000000000000000000000000000000000000008ac7230489e80000",
        "nonce": "0x20",
        "accessList": []
      },
      "additionalContracts": [],
      "isFixedGasLimit": false
    },
    {
      "hash": "0x2ffa35c67f37ec28cab8b52f88eb60c87cd0536c9f224c03383e276d55d53488",
      "transactionType": "CALL",
      "contractName": null,
      "contractAddress": "0x177Ad3aD54715A84Fa906705c7F7660444d7d6e1",
      "function": "transfer(address,uint256)",
      "arguments": [
        "0xa4F9e407751bE75AF10Fe5994860406D2bD45eFb",
        "10000000000000000000"
      ],
      "transaction": {
        "type": "0x02",
        "from": "0x7824a63a4051eb44723aaae83398c847e51187fa",
        "to": "0x177ad3ad54715a84fa906705c7f7660444d7d6e1",
        "gas": "0x11683",
        "value": "0x0",
        "data": "0xa9059cbb000000000000000000000000a4f9e407751be75af10fe5994860406d2bd45efb0000000000000000000000000000000000000000000000008ac7230489e80000",
        "nonce": "0x21",
        "accessList": []
      },
      "additionalContracts": [],
      "isFixedGasLimit": false
    },
    {
      "hash": "0xe7bfdd0b7d4ef20a6b1baa5287d01743812c2f3a5182f639f53d5b0a1f1f17c1",
      "transactionType": "CALL",
      "contractName": null,
      "contractAddress": "0x177Ad3aD54715A84Fa906705c7F7660444d7d6e1",
      "function": "transfer(address,uint256)",
      "arguments": [
        "0x6Ecc59c35e3951201C803b821BfA801349eDF48f",
        "10000000000000000000"
      ],
      "transaction": {
        "type": "0x02",
        "from": "0x7824a63a4051eb44723aaae83398c847e51187fa",
        "to": "0x177ad3ad54715a84fa906705c7f7660444d7d6e1",
        "gas": "0x11683",
        "value": "0x0",
        "data": "0xa9059cbb0000000000000000000000006ecc59c35e3951201c803b821bfa801349edf48f0000000000000000000000000000000000000000000000008ac7230489e80000",
        "nonce": "0x22",
        "accessList": []
      },
      "additionalContracts": [],
      "isFixedGasLimit": false
    },
    {
      "hash": "0x2f15c068f5cc081c0273e7009795f291beec3226a88fb7574de7a359cdc5e72f",
      "transactionType": "CALL",
      "contractName": null,
      "contractAddress": "0x177Ad3aD54715A84Fa906705c7F7660444d7d6e1",
      "function": "transfer(address,uint256)",
      "arguments": [
        "0x7e4324afA7AeB899B0e4d98C2745083fD4eDE2Db",
        "10000000000000000000"
      ],
      "transaction": {
        "type": "0x02",
        "from": "0x7824a63a4051eb44723aaae83398c847e51187fa",
        "to": "0x177ad3ad54715a84fa906705c7f7660444d7d6e1",
        "gas": "0x11683",
        "value": "0x0",
        "data": "0xa9059cbb0000000000000000000000007e4324afa7aeb899b0e4d98c2745083fd4ede2db0000000000000000000000000000000000000000000000008ac7230489e80000",
        "nonce": "0x23",
        "accessList": []
      },
      "additionalContracts": [],
      "isFixedGasLimit": false
    },
    {
      "hash": "0x7ba95c0e79e597562ba3a89bced0ecd7dbf5c69e9045c7fe55b517fae1179094",
      "transactionType": "CALL",
      "contractName": null,
      "contractAddress": "0x177Ad3aD54715A84Fa906705c7F7660444d7d6e1",
      "function": "transfer(address,uint256)",
      "arguments": [
        "0x5FcA8FADd2586f1BDA506A0E36d7196A3A60bA9d",
        "10000000000000000000"
      ],
      "transaction": {
        "type": "0x02",
        "from": "0x7824a63a4051eb44723aaae83398c847e51187fa",
        "to": "0x177ad3ad54715a84fa906705c7f7660444d7d6e1",
        "gas": "0x11683",
        "value": "0x0",
        "data": "0xa9059cbb0000000000000000000000005fca8fadd2586f1bda506a0e36d7196a3a60ba9d0000000000000000000000000000000000000000000000008ac7230489e80000",
        "nonce": "0x24",
        "accessList": []
      },
      "additionalContracts": [],
      "isFixedGasLimit": false
    },
    {
      "hash": "0xbc8906937755b9a1d760c4e1b845864140909c97f1237d77dd5aeeb13eaa2c81",
      "transactionType": "CALL",
      "contractName": null,
      "contractAddress": "0x177Ad3aD54715A84Fa906705c7F7660444d7d6e1",
      "function": "transfer(address,uint256)",
      "arguments": [
        "0xA5216C6F685c2b8a678A704107760Be652665234",
        "10000000000000000000"
      ],
      "transaction": {
        "type": "0x02",
        "from": "0x7824a63a4051eb44723aaae83398c847e51187fa",
        "to": "0x177ad3ad54715a84fa906705c7f7660444d7d6e1",
        "gas": "0x11683",
        "value": "0x0",
        "data": "0xa9059cbb000000000000000000000000a5216c6f685c2b8a678a704107760be6526652340000000000000000000000000000000000000000000000008ac7230489e80000",
        "nonce": "0x25",
        "accessList": []
      },
      "additionalContracts": [],
      "isFixedGasLimit": false
    },
    {
      "hash": "0x0c65f9ad286f9f5836ddfd7c38a100be80de0ce4032677bed4903725669e3306",
      "transactionType": "CALL",
      "contractName": null,
      "contractAddress": "0x177Ad3aD54715A84Fa906705c7F7660444d7d6e1",
      "function": "transfer(address,uint256)",
      "arguments": [
        "0xf5d9E0cF7b63E0C2D8A7E830fdCe539bB3D0848D",
        "10000000000000000000"
      ],
      "transaction": {
        "type": "0x02",
        "from": "0x7824a63a4051eb44723aaae83398c847e51187fa",
        "to": "0x177ad3ad54715a84fa906705c7f7660444d7d6e1",
        "gas": "0x11683",
        "value": "0x0",
        "data": "0xa9059cbb000000000000000000000000f5d9e0cf7b63e0c2d8a7e830fdce539bb3d0848d0000000000000000000000000000000000000000000000008ac7230489e80000",
        "nonce": "0x26",
        "accessList": []
      },
      "additionalContracts": [],
      "isFixedGasLimit": false
    },
    {
      "hash": "0x0ef8945570efd88dd4ff66574c033b1786cd905781e81f0deab048c2f06673c7",
      "transactionType": "CALL",
      "contractName": null,
      "contractAddress": "0x177Ad3aD54715A84Fa906705c7F7660444d7d6e1",
      "function": "transfer(address,uint256)",
      "arguments": [
        "0x3468E001c7592F8759a0753C9680931059836641",
        "10000000000000000000"
      ],
      "transaction": {
        "type": "0x02",
        "from": "0x7824a63a4051eb44723aaae83398c847e51187fa",
        "to": "0x177ad3ad54715a84fa906705c7f7660444d7d6e1",
        "gas": "0x11683",
        "value": "0x0",
        "data": "0xa9059cbb0000000000000000000000003468e001c7592f8759a0753c96809310598366410000000000000000000000000000000000000000000000008ac7230489e80000",
        "nonce": "0x27",
        "accessList": []
      },
      "additionalContracts": [],
      "isFixedGasLimit": false
    }
  ],
  "receipts": [],
  "libraries": [],
  "pending": [
    "0xb6b8116077f8352c7e86e88f1098048f34d41ba6f03c4585b21ab0113fa05ed3",
    "0xf7472bd543bb69fa32c7c5ccac4322c288b1eebb7bac645cfbb2d5f9fec77186",
    "0x4dcce43f37701ba86e32ce38558461e0a3857a91b80545f41850a031c983fe53",
    "0x765e9a88769877ddaa8ef2c3adefa3e0b400699e9d1b7d8cb0ec4e8e6461b624",
    "0x32f62d45bd96b8e6ce1df812e9d8c302293b31f67d65ee015b6b7f7bf3fc9559",
    "0xd95b7b5c2df5213f0d5c6238c659f0eb9f5130ce8513bf8c59695fb8266fbe6f",
    "0x2f53223206847c6d5f4323a472bd8d9b772165721c200580064ae2c003728e03",
    "0x499742c36b9141a01ffba1769f5d92060468b09480c5b8430a2d72b92df47183",
    "0xfaaa037d3f64792f6797f26e13fc3eb882637cee30cdd780a3d6b9b65bec291d",
    "0x5f1088d4520b201ba1cb97028f875232e17baee0c061dfec8684500c0614b61e",
    "0x1090a603f8679c6fc5f012254a601eae5853201e761fdba735700ba05803aa21",
    "0x11d661776c28974b7631b259002c12dc4142ae8e710604f107f1a49c5074fe17",
    "0xa06533f7b68986d7c071cc330a5c735b24d7115888b539989d345d402e842b64",
    "0xa03b2fc87353d9428649e286c32c820494921efdb3b7ec7af73985212820f2df",
    "0x546f636bcd9be03d5fc7bd4f7ad5e2fceb9b092ab9478da5244ed6bb7f10205f",
    "0x1cc45e01a16f6d4fe2eaf6f405b0596033dd3841dd83895473ae7f214172ae48",
    "0x067341d9cb359c8104d0d7cb56b2cc47b291e9ef84b9c74ab291aebc0df601ac",
    "0x2e32bf73c52b6cd3e6f4f3b994efb70069f8fe81bfeca9272deb1883a743209e",
    "0x24f82983ae95a5fc79075191d29ec288642bca9986727ca4a4f58d83258a2c5d",
    "0x260b440e425f98f2d62b6222e2cefc46754f9d73db3ff80912bd1254d2245898",
    "0xb3f307fbf918ecd2db2065062536796a7a49ef4b12564a29c25dce202563c3d6",
    "0x5dfce6bf113259c3cacefe10f901e238e69a5025db0a7094eb40fda3ddf258cb",
    "0x7b6607ba241936b3cac2366c6ca334f72ee86a98661f8c9ed885c78b86e9582d",
    "0x8e5f06cc0afdc82e48074291bc8585023dbe83c595bde8c5e210f139d9adb9d1",
    "0x97b0ed7a491f712a0f94e0f5b7682e4de41580369be8c8d0b36bc380f5a73260",
    "0x9c46719f8d7164c65f796490598d67743130c21a2b212c9f39f79afcde1c2f67",
    "0xed216b691565b22f917b5910d12a473fa00478d725a3f13bf77bf94fc1a03d61",
    "0xd2947d0b253c2c1a1bc8e05241f7e7b4910290d428246c9f4ca0fc1dafa8144f",
    "0x56d88f06797b80ae36d2b64d0c35b00d523d1729e67f6d98f360e0634869d3ac",
    "0xaa8577111135a77d68197c21859aef3e007f1f69f1614acdc22ec65dd35d46f9",
    "0xcc46ca83ecef4430f0c5427ee4a092d6d44e59ba6e74a235edb4da99931f5243",
    "0x2ffa35c67f37ec28cab8b52f88eb60c87cd0536c9f224c03383e276d55d53488",
    "0xe7bfdd0b7d4ef20a6b1baa5287d01743812c2f3a5182f639f53d5b0a1f1f17c1",
    "0x2f15c068f5cc081c0273e7009795f291beec3226a88fb7574de7a359cdc5e72f",
    "0x7ba95c0e79e597562ba3a89bced0ecd7dbf5c69e9045c7fe55b517fae1179094",
    "0xbc8906937755b9a1d760c4e1b845864140909c97f1237d77dd5aeeb13eaa2c81",
    "0x0c65f9ad286f9f5836ddfd7c38a100be80de0ce4032677bed4903725669e3306",
    "0x0ef8945570efd88dd4ff66574c033b1786cd905781e81f0deab048c2f06673c7"
  ],
  "returns": {},
  "timestamp": 1709952875,
  "chain": 11155420,
  "multi": false,
  "commit": "23624bb"
}