{
  "transactions": [
    {
      "hash": "0x6e7806adb3a19f75ad88710df3eb9f6b7937f5029fef23874549e6ab4b2eca97",
      "transactionType": "CALL",
      "contractName": null,
      "contractAddress": "0x177Ad3aD54715A84Fa906705c7F7660444d7d6e1",
      "function": "transfer(address,uint256)",
      "arguments": [
        "0xc7Cfd9898b4be87A13552084148442A2b4d4c23F",
        "10000000000000000000"
      ],
      "transaction": {
        "type": "0x02",
        "from": "0x7824a63a4051eb44723aaae83398c847e51187fa",
        "to": "0x177ad3ad54715a84fa906705c7f7660444d7d6e1",
        "gas": "0xba40",
        "value": "0x0",
        "data": "0xa9059cbb000000000000000000000000c7cfd9898b4be87a13552084148442a2b4d4c23f0000000000000000000000000000000000000000000000008ac7230489e80000",
        "nonce": "0x28",
        "accessList": []
      },
      "additionalContracts": [],
      "isFixedGasLimit": false
    },
    {
      "hash": "0x1901778e3eaa48c906cbbf5f4cc473188598a9952885cfd17b37ef23b33cf59a",
      "transactionType": "CALL",
      "contractName": null,
      "contractAddress": "0x177Ad3aD54715A84Fa906705c7F7660444d7d6e1",
      "function": "transfer(address,uint256)",
      "arguments": [
        "0x44cF205a7dbD9656b59c084BE7EF64880C2b3F07",
        "10000000000000000000"
      ],
      "transaction": {
        "type": "0x02",
        "from": "0x7824a63a4051eb44723aaae83398c847e51187fa",
        "to": "0x177ad3ad54715a84fa906705c7f7660444d7d6e1",
        "gas": "0xba40",
        "value": "0x0",
        "data": "0xa9059cbb00000000000000000000000044cf205a7dbd9656b59c084be7ef64880c2b3f070000000000000000000000000000000000000000000000008ac7230489e80000",
        "nonce": "0x29",
        "accessList": []
      },
      "additionalContracts": [],
      "isFixedGasLimit": false
    },
    {
      "hash": "0x9234c8f8ad2794ed22822bf1e4d91616b988051bfb31d189778ec15bdb42fe84",
      "transactionType": "CALL",
      "contractName": null,
      "contractAddress": "0x177Ad3aD54715A84Fa906705c7F7660444d7d6e1",
      "function": "transfer(address,uint256)",
      "arguments": [
        "0x5fd87F43716A28859b238b11EC49535b2BA4d447",
        "10000000000000000000"
      ],
      "transaction": {
        "type": "0x02",
        "from": "0x7824a63a4051eb44723aaae83398c847e51187fa",
        "to": "0x177ad3ad54715a84fa906705c7f7660444d7d6e1",
        "gas": "0xba40",
        "value": "0x0",
        "data": "0xa9059cbb0000000000000000000000005fd87f43716a28859b238b11ec49535b2ba4d4470000000000000000000000000000000000000000000000008ac7230489e80000",
        "nonce": "0x2a",
        "accessList": []
      },
      "additionalContracts": [],
      "isFixedGasLimit": false
    },
    {
      "hash": "0xf357f6d769c29236464766278c7394816806a1e308ebaccaf9c1a8dcea0c8c4e",
      "transactionType": "CALL",
      "contractName": null,
      "contractAddress": "0x177Ad3aD54715A84Fa906705c7F7660444d7d6e1",
      "function": "transfer(address,uint256)",
      "arguments": [
        "0x97DBD6D0b07B3A66497Bb0da404ed6421584c54c",
        "10000000000000000000"
      ],
      "transaction": {
        "type": "0x02",
        "from": "0x7824a63a4051eb44723aaae83398c847e51187fa",
        "to": "0x177ad3ad54715a84fa906705c7f7660444d7d6e1",
        "gas": "0xba40",
        "value": "0x0",
        "data": "0xa9059cbb00000000000000000000000097dbd6d0b07b3a66497bb0da404ed6421584c54c0000000000000000000000000000000000000000000000008ac7230489e80000",
        "nonce": "0x2b",
        "accessList": []
      },
      "additionalContracts": [],
      "isFixedGasLimit": false
    },
    {
      "hash": "0x258b4694377611bc99e5b3e3043c1f9f7b3bdd949facb065f9b13f67cbdcc8ae",
      "transactionType": "CALL",
      "contractName": null,
      "contractAddress": "0x177Ad3aD54715A84Fa906705c7F7660444d7d6e1",
      "function": "transfer(address,uint256)",
      "arguments": [
        "0x36b92f71116E50B8fd0aa1A4529922B54F1B5C3C",
        "10000000000000000000"
      ],
      "transaction": {
        "type": "0x02",
        "from": "0x7824a63a4051eb44723aaae83398c847e51187fa",
        "to": "0x177ad3ad54715a84fa906705c7f7660444d7d6e1",
        "gas": "0xba40",
        "value": "0x0",
        "data": "0xa9059cbb00000000000000000000000036b92f71116e50b8fd0aa1a4529922b54f1b5c3c0000000000000000000000000000000000000000000000008ac7230489e80000",
        "nonce": "0x2c",
        "accessList": []
      },
      "additionalContracts": [],
      "isFixedGasLimit": false
    },
    {
      "hash": "0xfd5f23db68e99176f9efa1364e1d1767cffa48b2d8bbd279ab103a16be0f2187",
      "transactionType": "CALL",
      "contractName": null,
      "contractAddress": "0x177Ad3aD54715A84Fa906705c7F7660444d7d6e1",
      "function": "transfer(address,uint256)",
      "arguments": [
        "0xC4de020Cfb94D5e7Da5536551da6cfE01Dce33Ec",
        "10000000000000000000"
      ],
      "transaction": {
        "type": "0x02",
        "from": "0x7824a63a4051eb44723aaae83398c847e51187fa",
        "to": "0x177ad3ad54715a84fa906705c7f7660444d7d6e1",
        "gas": "0xba40",
        "value": "0x0",
        "data": "0xa9059cbb000000000000000000000000c4de020cfb94d5e7da5536551da6cfe01dce33ec0000000000000000000000000000000000000000000000008ac7230489e80000",
        "nonce": "0x2d",
        "accessList": []
      },
      "additionalContracts": [],
      "isFixedGasLimit": false
    },
    {
      "hash": "0xfa349910c5ea02a45c746ce8aa4082c0443cf280a7cc121418e7d374eb9d6d27",
      "transactionType": "CALL",
      "contractName": null,
      "contractAddress": "0x177Ad3aD54715A84Fa906705c7F7660444d7d6e1",
      "function": "transfer(address,uint256)",
      "arguments": [
        "0x51F64E44A405D1a89176b752a86B692575F6E849",
        "10000000000000000000"
      ],
      "transaction": {
        "type": "0x02",
        "from": "0x7824a63a4051eb44723aaae83398c847e51187fa",
        "to": "0x177ad3ad54715a84fa906705c7f7660444d7d6e1",
        "gas": "0xba40",
        "value": "0x0",
        "data": "0xa9059cbb00000000000000000000000051f64e44a405d1a89176b752a86b692575f6e8490000000000000000000000000000000000000000000000008ac7230489e80000",
        "nonce": "0x2e",
        "accessList": []
      },
      "additionalContracts": [],
      "isFixedGasLimit": false
    },
    {
      "hash": "0x177cc1c687d94353f2d0a284a8c336d823038a7c5b2a5c9ae710bc0c638ab007",
      "transactionType": "CALL",
      "contractName": null,
      "contractAddress": "0x177Ad3aD54715A84Fa906705c7F7660444d7d6e1",
      "function": "transfer(address,uint256)",
      "arguments": [
        "0xAEC4749fC27e35c2D5C6C83C52579CDa4f6a7A0E",
        "10000000000000000000"
      ],
      "transaction": {
        "type": "0x02",
        "from": "0x7824a63a4051eb44723aaae83398c847e51187fa",
        "to": "0x177ad3ad54715a84fa906705c7f7660444d7d6e1",
        "gas": "0xba40",
        "value": "0x0",
        "data": "0xa9059cbb000000000000000000000000aec4749fc27e35c2d5c6c83c52579cda4f6a7a0e0000000000000000000000000000000000000000000000008ac7230489e80000",
        "nonce": "0x2f",
        "accessList": []
      },
      "additionalContracts": [],
      "isFixedGasLimit": false
    },
    {
      "hash": "0xfa73f7caeee320018b63bbb2c401061ab9cd7587c7f635de814d684c7c320aa3",
      "transactionType": "CALL",
      "contractName": null,
      "contractAddress": "0x177Ad3aD54715A84Fa906705c7F7660444d7d6e1",
      "function": "transfer(address,uint256)",
      "arguments": [
        "0x399035F0493d7DA77E0c44ec87D9360021DaFD59",
        "10000000000000000000"
      ],
      "transaction": {
        "type": "0x02",
        "from": "0x7824a63a4051eb44723aaae83398c847e51187fa",
        "to": "0x177ad3ad54715a84fa906705c7f7660444d7d6e1",
        "gas": "0xba2f",
        "value": "0x0",
        "data": "0xa9059cbb000000000000000000000000399035f0493d7da77e0c44ec87d9360021dafd590000000000000000000000000000000000000000000000008ac7230489e80000",
        "nonce": "0x30",
        "accessList": []
      },
      "additionalContracts": [],
      "isFixedGasLimit": false
    },
    {
      "hash": "0xa88b526494497107e5ae77306943557858fe1335d444aa8e8ba874d180c99cc0",
      "transactionType": "CALL",
      "contractName": null,
      "contractAddress": "0x177Ad3aD54715A84Fa906705c7F7660444d7d6e1",
      "function": "transfer(address,uint256)",
      "arguments": [
        "0x4B2bE391Da027155b21b725c37fF289A46d9C06c",
        "10000000000000000000"
      ],
      "transaction": {
        "type": "0x02",
        "from": "0x7824a63a4051eb44723aaae83398c847e51187fa",
        "to": "0x177ad3ad54715a84fa906705c7f7660444d7d6e1",
        "gas": "0xba40",
        "value": "0x0",
        "data": "0xa9059cbb0000000000000000000000004b2be391da027155b21b725c37ff289a46d9c06c0000000000000000000000000000000000000000000000008ac7230489e80000",
        "nonce": "0x31",
        "accessList": []
      },
      "additionalContracts": [],
      "isFixedGasLimit": false
    },
    {
      "hash": "0x6190affbebd9a13df008a222c273869f5ad1c76d5b5c45e94ee441c2e3639f02",
      "transactionType": "CALL",
      "contractName": null,
      "contractAddress": "0x177Ad3aD54715A84Fa906705c7F7660444d7d6e1",
      "function": "transfer(address,uint256)",
      "arguments": [
        "0xfEB36e8150d1937809Ea25c2C4D4ff8cf0a85246",
        "10000000000000000000"
      ],
      "transaction": {
        "type": "0x02",
        "from": "0x7824a63a4051eb44723aaae83398c847e51187fa",
        "to": "0x177ad3ad54715a84fa906705c7f7660444d7d6e1",
        "gas": "0xba40",
        "value": "0x0",
        "data": "0xa9059cbb000000000000000000000000feb36e8150d1937809ea25c2c4d4ff8cf0a852460000000000000000000000000000000000000000000000008ac7230489e80000",
        "nonce": "0x32",
        "accessList": []
      },
      "additionalContracts": [],
      "isFixedGasLimit": false
    },
    {
      "hash": "0xa012f9134540b3f720f0b821442fd443362c8672ce185895566c797a0b5a3830",
      "transactionType": "CALL",
      "contractName": null,
      "contractAddress": "0x177Ad3aD54715A84Fa906705c7F7660444d7d6e1",
      "function": "transfer(address,uint256)",
      "arguments": [
        "0xB1fC3B05dEDEc175678Be3C44cb0Ce63A6133C6b",
        "10000000000000000000"
      ],
      "transaction": {
        "type": "0x02",
        "from": "0x7824a63a4051eb44723aaae83398c847e51187fa",
        "to": "0x177ad3ad54715a84fa906705c7f7660444d7d6e1",
        "gas": "0xba40",
        "value": "0x0",
        "data": "0xa9059cbb000000000000000000000000b1fc3b05dedec175678be3c44cb0ce63a6133c6b0000000000000000000000000000000000000000000000008ac7230489e80000",
        "nonce": "0x33",
        "accessList": []
      },
      "additionalContracts": [],
      "isFixedGasLimit": false
    },
    {
      "hash": "0xb54bbbb8e86ea756c4aafc5191dc8d3875680fcaa4aa26ebf7a639a5803ec6d8",
      "transactionType": "CALL",
      "contractName": null,
      "contractAddress": "0x177Ad3aD54715A84Fa906705c7F7660444d7d6e1",
      "function": "transfer(address,uint256)",
      "arguments": [
        "0x295988D44C7eE38Eb0ABaD16668A310770EfD0fA",
        "10000000000000000000"
      ],
      "transaction": {
        "type": "0x02",
        "from": "0x7824a63a4051eb44723aaae83398c847e51187fa",
        "to": "0x177ad3ad54715a84fa906705c7f7660444d7d6e1",
        "gas": "0xba40",
        "value": "0x0",
        "data": "0xa9059cbb000000000000000000000000295988d44c7ee38eb0abad16668a310770efd0fa0000000000000000000000000000000000000000000000008ac7230489e80000",
        "nonce": "0x34",
        "accessList": []
      },
      "additionalContracts": [],
      "isFixedGasLimit": false
    },
    {
      "hash": "0xbca2fb1df5329aaa9f8f6846b696668794d860011339c957610734cf9f30177c",
      "transactionType": "CALL",
      "contractName": null,
      "contractAddress": "0x177Ad3aD54715A84Fa906705c7F7660444d7d6e1",
      "function": "transfer(address,uint256)",
      "arguments": [
        "0x21D9E9dB2f504261B05f84D9cc7a4dC295B81fF8",
        "10000000000000000000"
      ],
      "transaction": {
        "type": "0x02",
        "from": "0x7824a63a4051eb44723aaae83398c847e51187fa",
        "to": "0x177ad3ad54715a84fa906705c7f7660444d7d6e1",
        "gas": "0xba40",
        "value": "0x0",
        "data": "0xa9059cbb00000000000000000000000021d9e9db2f504261b05f84d9cc7a4dc295b81ff80000000000000000000000000000000000000000000000008ac7230489e80000",
        "nonce": "0x35",
        "accessList": []
      },
      "additionalContracts": [],
      "isFixedGasLimit": false
    },
    {
      "hash": "0x9fcb5004198a9a6d49f0ea3e9fdf2e98e28726207f559a940b4f9947c788822a",
      "transactionType": "CALL",
      "contractName": null,
      "contractAddress": "0x177Ad3aD54715A84Fa906705c7F7660444d7d6e1",
      "function": "transfer(address,uint256)",
      "arguments": [
        "0x973C84e8bB1C16a0ed47010723932732a21053C5",
        "10000000000000000000"
      ],
      "transaction": {
        "type": "0x02",
        "from": "0x7824a63a4051eb44723aaae83398c847e51187fa",
        "to": "0x177ad3ad54715a84fa906705c7f7660444d7d6e1",
        "gas": "0xba40",
        "value": "0x0",
        "data": "0xa9059cbb000000000000000000000000973c84e8bb1c16a0ed47010723932732a21053c50000000000000000000000000000000000000000000000008ac7230489e80000",
        "nonce": "0x36",
        "accessList": []
      },
      "additionalContracts": [],
      "isFixedGasLimit": false
    },
    {
      "hash": "0x5eb39bc9156c23e8019a76a3827958dea8cc823dd468f9af00fd2dee79759759",
      "transactionType": "CALL",
      "contractName": null,
      "contractAddress": "0x177Ad3aD54715A84Fa906705c7F7660444d7d6e1",
      "function": "transfer(address,uint256)",
      "arguments": [
        "0x0c28fBA70C7506b1210e33d47097F7934915f8CB",
        "10000000000000000000"
      ],
      "transaction": {
        "type": "0x02",
        "from": "0x7824a63a4051eb44723aaae83398c847e51187fa",
        "to": "0x177ad3ad54715a84fa906705c7f7660444d7d6e1",
        "gas": "0xba40",
        "value": "0x0",
        "data": "0xa9059cbb0000000000000000000000000c28fba70c7506b1210e33d47097f7934915f8cb0000000000000000000000000000000000000000000000008ac7230489e80000",
        "nonce": "0x37",
        "accessList": []
      },
      "additionalContracts": [],
      "isFixedGasLimit": false
    },
    {
      "hash": "0xdbf513c7881fcf9a9a1e1b675b8f4282d3a9a94171eefaf33ebf4efc4b946330",
      "transactionType": "CALL",
      "contractName": null,
      "contractAddress": "0x177Ad3aD54715A84Fa906705c7F7660444d7d6e1",
      "function": "transfer(address,uint256)",
      "arguments": [
        "0xdBf63CF92487fE846cf6742ba7a47E34DD0f0D56",
        "10000000000000000000"
      ],
      "transaction": {
        "type": "0x02",
        "from": "0x7824a63a4051eb44723aaae83398c847e51187fa",
        "to": "0x177ad3ad54715a84fa906705c7f7660444d7d6e1",
        "gas": "0xba40",
        "value": "0x0",
        "data": "0xa9059cbb000000000000000000000000dbf63cf92487fe846cf6742ba7a47e34dd0f0d560000000000000000000000000000000000000000000000008ac7230489e80000",
        "nonce": "0x38",
        "accessList": []
      },
      "additionalContracts": [],
      "isFixedGasLimit": false
    },
    {
      "hash": "0x3cc95f66bfc7260ae5f913fdac97ad394d5f551cb5485701a0b65b824ca7dfbe",
      "transactionType": "CALL",
      "contractName": null,
      "contractAddress": "0x177Ad3aD54715A84Fa906705c7F7660444d7d6e1",
      "function": "transfer(address,uint256)",
      "arguments": [
        "0xF33443699bfF5249c56A8Fd776F01c30A8A0F2a7",
        "10000000000000000000"
      ],
      "transaction": {
        "type": "0x02",
        "from": "0x7824a63a4051eb44723aaae83398c847e51187fa",
        "to": "0x177ad3ad54715a84fa906705c7f7660444d7d6e1",
        "gas": "0xba40",
        "value": "0x0",
        "data": "0xa9059cbb000000000000000000000000f33443699bff5249c56a8fd776f01c30a8a0f2a70000000000000000000000000000000000000000000000008ac7230489e80000",
        "nonce": "0x39",
        "accessList": []
      },
      "additionalContracts": [],
      "isFixedGasLimit": false
    },
    {
      "hash": "0x9eb03e81241356da9c47b484dbd230cea0564f932e4de7110c22c98fa350c19d",
      "transactionType": "CALL",
      "contractName": null,
      "contractAddress": "0x177Ad3aD54715A84Fa906705c7F7660444d7d6e1",
      "function": "transfer(address,uint256)",
      "arguments": [
        "0x15f99dcc6904D458FC0710c980E43a8A0a28307E",
        "10000000000000000000"
      ],
      "transaction": {
        "type": "0x02",
        "from": "0x7824a63a4051eb44723aaae83398c847e51187fa",
        "to": "0x177ad3ad54715a84fa906705c7f7660444d7d6e1",
        "gas": "0xba40",
        "value": "0x0",
        "data": "0xa9059cbb00000000000000000000000015f99dcc6904d458fc0710c980e43a8a0a28307e0000000000000000000000000000000000000000000000008ac7230489e80000",
        "nonce": "0x3a",
        "accessList": []
      },
      "additionalContracts": [],
      "isFixedGasLimit": false
    },
    {
      "hash": "0xee5c473542d175ec130dc729dbb720e050e3857ff8ce1abcb8e42de9023cc07d",
      "transactionType": "CALL",
      "contractName": null,
      "contractAddress": "0x177Ad3aD54715A84Fa906705c7F7660444d7d6e1",
      "function": "transfer(address,uint256)",
      "arguments": [
        "0x01DfF7f363552D9E195Ab25396680A536498573F",
        "10000000000000000000"
      ],
      "transaction": {
        "type": "0x02",
        "from": "0x7824a63a4051eb44723aaae83398c847e51187fa",
        "to": "0x177ad3ad54715a84fa906705c7f7660444d7d6e1",
        "gas": "0xba40",
        "value": "0x0",
        "data": "0xa9059cbb00000000000000000000000001dff7f363552d9e195ab25396680a536498573f0000000000000000000000000000000000000000000000008ac7230489e80000",
        "nonce": "0x3b",
        "accessList": []
      },
      "additionalContracts": [],
      "isFixedGasLimit": false
    },
    {
      "hash": "0xbdf1cecaf0eddfcd8c42ebc9ab88e205e7d8cf245b5a2e9ec70ce02cf4994602",
      "transactionType": "CALL",
      "contractName": null,
      "contractAddress": "0x177Ad3aD54715A84Fa906705c7F7660444d7d6e1",
      "function": "transfer(address,uint256)",
      "arguments": [
        "0x5Bf7583b93117e57c5ea6b3E799B0382751c07DA",
        "10000000000000000000"
      ],
      "transaction": {
        "type": "0x02",
        "from": "0x7824a63a4051eb44723aaae83398c847e51187fa",
        "to": "0x177ad3ad54715a84fa906705c7f7660444d7d6e1",
        "gas": "0xba40",
        "value": "0x0",
        "data": "0xa9059cbb0000000000000000000000005bf7583b93117e57c5ea6b3e799b0382751c07da0000000000000000000000000000000000000000000000008ac7230489e80000",
        "nonce": "0x3c",
        "accessList": []
      },
      "additionalContracts": [],
      "isFixedGasLimit": false
    },
    {
      "hash": "0xdfcc669363d96b771589413fa79e0075ae22efbfae1359fa56ee83fd2ece02b7",
      "transactionType": "CALL",
      "contractName": null,
      "contractAddress": "0x177Ad3aD54715A84Fa906705c7F7660444d7d6e1",
      "function": "transfer(address,uint256)",
      "arguments": [
        "0xEDc418502EF1a393240A62831a37072F0336AA6d",
        "10000000000000000000"
      ],
      "transaction": {
        "type": "0x02",
        "from": "0x7824a63a4051eb44723aaae83398c847e51187fa",
        "to": "0x177ad3ad54715a84fa906705c7f7660444d7d6e1",
        "gas": "0xba40",
        "value": "0x0",
        "data": "0xa9059cbb000000000000000000000000edc418502ef1a393240a62831a37072f0336aa6d0000000000000000000000000000000000000000000000008ac7230489e80000",
        "nonce": "0x3d",
        "accessList": []
      },
      "additionalContracts": [],
      "isFixedGasLimit": false
    },
    {
      "hash": "0x97ceb9d242c2befc67b7a67a86d404923e2e42ac4e066d82a5ec58a5d6db3991",
      "transactionType": "CALL",
      "contractName": null,
      "contractAddress": "0x177Ad3aD54715A84Fa906705c7F7660444d7d6e1",
      "function": "transfer(address,uint256)",
      "arguments": [
        "0x5A4b1164289a4161A73446F83D294Bb4e026e738",
        "10000000000000000000"
      ],
      "transaction": {
        "type": "0x02",
        "from": "0x7824a63a4051eb44723aaae83398c847e51187fa",
        "to": "0x177ad3ad54715a84fa906705c7f7660444d7d6e1",
        "gas": "0xba40",
        "value": "0x0",
        "data": "0xa9059cbb0000000000000000000000005a4b1164289a4161a73446f83d294bb4e026e7380000000000000000000000000000000000000000000000008ac7230489e80000",
        "nonce": "0x3e",
        "accessList": []
      },
      "additionalContracts": [],
      "isFixedGasLimit": false
    },
    {
      "hash": "0xbb97abf3f5c10ba0930cd6a2319c73aa4a0bd53cadd43d4c0fa2de0a3b101a88",
      "transactionType": "CALL",
      "contractName": null,
      "contractAddress": "0x177Ad3aD54715A84Fa906705c7F7660444d7d6e1",
      "function": "transfer(address,uint256)",
      "arguments": [
        "0x86f2f13a1d622014edE5695e3731F7A09bc7b481",
        "10000000000000000000"
      ],
      "transaction": {
        "type": "0x02",
        "from": "0x7824a63a4051eb44723aaae83398c847e51187fa",
        "to": "0x177ad3ad54715a84fa906705c7f7660444d7d6e1",
        "gas": "0xba40",
        "value": "0x0",
        "data": "0xa9059cbb00000000000000000000000086f2f13a1d622014ede5695e3731f7a09bc7b4810000000000000000000000000000000000000000000000008ac7230489e80000",
        "nonce": "0x3f",
        "accessList": []
      },
      "additionalContracts": [],
      "isFixedGasLimit": false
    },
    {
      "hash": "0xa9d91f022d3f400f609501b53351ad3e701e3a77846b762c2c280efb67003bdb",
      "transactionType": "CALL",
      "contractName": null,
      "contractAddress": "0x177Ad3aD54715A84Fa906705c7F7660444d7d6e1",
      "function": "transfer(address,uint256)",
      "arguments": [
        "0x732903f195c27C45Aa86a2045aa160442608F21A",
        "10000000000000000000"
      ],
      "transaction": {
        "type": "0x02",
        "from": "0x7824a63a4051eb44723aaae83398c847e51187fa",
        "to": "0x177ad3ad54715a84fa906705c7f7660444d7d6e1",
        "gas": "0xba40",
        "value": "0x0",
        "data": "0xa9059cbb000000000000000000000000732903f195c27c45aa86a2045aa160442608f21a0000000000000000000000000000000000000000000000008ac7230489e80000",
        "nonce": "0x40",
        "accessList": []
      },
      "additionalContracts": [],
      "isFixedGasLimit": false
    },
    {
      "hash": "0xbed8016e1728091250a54cde68acee226069bbbcc11107ee65ff93e0a77cd05a",
      "transactionType": "CALL",
      "contractName": null,
      "contractAddress": "0x177Ad3aD54715A84Fa906705c7F7660444d7d6e1",
      "function": "transfer(address,uint256)",
      "arguments": [
        "0xcaa8615677eDbAacC857f25Bc669bC4A776642F5",
        "10000000000000000000"
      ],
      "transaction": {
        "type": "0x02",
        "from": "0x7824a63a4051eb44723aaae83398c847e51187fa",
        "to": "0x177ad3ad54715a84fa906705c7f7660444d7d6e1",
        "gas": "0xba40",
        "value": "0x0",
        "data": "0xa9059cbb000000000000000000000000caa8615677edbaacc857f25bc669bc4a776642f50000000000000000000000000000000000000000000000008ac7230489e80000",
        "nonce": "0x41",
        "accessList": []
      },
      "additionalContracts": [],
      "isFixedGasLimit": false
    },
    {
      "hash": "0x2a8b9cea87408eed3bdb393b9e449c3cc424f530f2e5b74b69f07cc0a8a49f9b",
      "transactionType": "CALL",
      "contractName": null,
      "contractAddress": "0x177Ad3aD54715A84Fa906705c7F7660444d7d6e1",
      "function": "transfer(address,uint256)",
      "arguments": [
        "0xF9E2d4b265Fef348e05AFf35658B85AC4F45d6eF",
        "10000000000000000000"
      ],
      "transaction": {
        "type": "0x02",
        "from": "0x7824a63a4051eb44723aaae83398c847e51187fa",
        "to": "0x177ad3ad54715a84fa906705c7f7660444d7d6e1",
        "gas": "0xba40",
        "value": "0x0",
        "data": "0xa9059cbb000000000000000000000000f9e2d4b265fef348e05aff35658b85ac4f45d6ef0000000000000000000000000000000000000000000000008ac7230489e80000",
        "nonce": "0x42",
        "accessList": []
      },
      "additionalContracts": [],
      "isFixedGasLimit": false
    },
    {
      "hash": "0x671f7553732e17b05509e3514580f5e40bf282d2f59b90d7904a8088ebd02bd9",
      "transactionType": "CALL",
      "contractName": null,
      "contractAddress": "0x177Ad3aD54715A84Fa906705c7F7660444d7d6e1",
      "function": "transfer(address,uint256)",
      "arguments": [
        "0xB38449e8bBC51580f85399A58480C3A79B634Cdc",
        "10000000000000000000"
      ],
      "transaction": {
        "type": "0x02",
        "from": "0x7824a63a4051eb44723aaae83398c847e51187fa",
        "to": "0x177ad3ad54715a84fa906705c7f7660444d7d6e1",
        "gas": "0xba40",
        "value": "0x0",
        "data": "0xa9059cbb000000000000000000000000b38449e8bbc51580f85399a58480c3a79b634cdc0000000000000000000000000000000000000000000000008ac7230489e80000",
        "nonce": "0x43",
        "accessList": []
      },
      "additionalContracts": [],
      "isFixedGasLimit": false
    },
    {
      "hash": "0xb2e0d251c075bd42baae02d2caec62e8a1798cd42fb8a3df0011121e3562ff89",
      "transactionType": "CALL",
      "contractName": null,
      "contractAddress": "0x177Ad3aD54715A84Fa906705c7F7660444d7d6e1",
      "function": "transfer(address,uint256)",
      "arguments": [
        "0x01315aB5d2e074285DC38D7D79e5B5a14C69fa8a",
        "10000000000000000000"
      ],
      "transaction": {
        "type": "0x02",
        "from": "0x7824a63a4051eb44723aaae83398c847e51187fa",
        "to": "0x177ad3ad54715a84fa906705c7f7660444d7d6e1",
        "gas": "0xba40",
        "value": "0x0",
        "data": "0xa9059cbb00000000000000000000000001315ab5d2e074285dc38d7d79e5b5a14c69fa8a0000000000000000000000000000000000000000000000008ac7230489e80000",
        "nonce": "0x44",
        "accessList": []
      },
      "additionalContracts": [],
      "isFixedGasLimit": false
    },
    {
      "hash": "0xe374b71e19e6639f619b3bc3850de5d382af83a22ead68c1550f2f35f1a771b4",
      "transactionType": "CALL",
      "contractName": null,
      "contractAddress": "0x177Ad3aD54715A84Fa906705c7F7660444d7d6e1",
      "function": "transfer(address,uint256)",
      "arguments": [
        "0xBC23F89D18f702C34D655079A144037CEbd9257F",
        "10000000000000000000"
      ],
      "transaction": {
        "type": "0x02",
        "from": "0x7824a63a4051eb44723aaae83398c847e51187fa",
        "to": "0x177ad3ad54715a84fa906705c7f7660444d7d6e1",
        "gas": "0xba40",
        "value": "0x0",
        "data": "0xa9059cbb000000000000000000000000bc23f89d18f702c34d655079a144037cebd9257f0000000000000000000000000000000000000000000000008ac7230489e80000",
        "nonce": "0x45",
        "accessList": []
      },
      "additionalContracts": [],
      "isFixedGasLimit": false
    },
    {
      "hash": "0x410d5ba6b0221f62d49b98ca243d800aec01f815bbfb4aacbf524acbdcf05ed7",
      "transactionType": "CALL",
      "contractName": null,
      "contractAddress": "0x177Ad3aD54715A84Fa906705c7F7660444d7d6e1",
      "function": "transfer(address,uint256)",
      "arguments": [
        "0x0c96b5CCc9dC8f19Df8e2a5c15efDB2dc20d70f9",
        "10000000000000000000"
      ],
      "transaction": {
        "type": "0x02",
        "from": "0x7824a63a4051eb44723aaae83398c847e51187fa",
        "to": "0x177ad3ad54715a84fa906705c7f7660444d7d6e1",
        "gas": "0xba40",
        "value": "0x0",
        "data": "0xa9059cbb0000000000000000000000000c96b5ccc9dc8f19df8e2a5c15efdb2dc20d70f90000000000000000000000000000000000000000000000008ac7230489e80000",
        "nonce": "0x46",
        "accessList": []
      },
      "additionalContracts": [],
      "isFixedGasLimit": false
    },
    {
      "hash": "0x94d74894065b9150521d0a01c7c8334391ba3e78f2440e9d37d307910fd4f312",
      "transactionType": "CALL",
      "contractName": null,
      "contractAddress": "0x177Ad3aD54715A84Fa906705c7F7660444d7d6e1",
      "function": "transfer(address,uint256)",
      "arguments": [
        "0xa4F9e407751bE75AF10Fe5994860406D2bD45eFb",
        "10000000000000000000"
      ],
      "transaction": {
        "type": "0x02",
        "from": "0x7824a63a4051eb44723aaae83398c847e51187fa",
        "to": "0x177ad3ad54715a84fa906705c7f7660444d7d6e1",
        "gas": "0xba40",
        "value": "0x0",
        "data": "0xa9059cbb000000000000000000000000a4f9e407751be75af10fe5994860406d2bd45efb0000000000000000000000000000000000000000000000008ac7230489e80000",
        "nonce": "0x47",
        "accessList": []
      },
      "additionalContracts": [],
      "isFixedGasLimit": false
    },
    {
      "hash": "0x498362bb720c187a902326c6be252fe688dd386a99b50a4745e86d29c83019ad",
      "transactionType": "CALL",
      "contractName": null,
      "contractAddress": "0x177Ad3aD54715A84Fa906705c7F7660444d7d6e1",
      "function": "transfer(address,uint256)",
      "arguments": [
        "0x6Ecc59c35e3951201C803b821BfA801349eDF48f",
        "10000000000000000000"
      ],
      "transaction": {
        "type": "0x02",
        "from": "0x7824a63a4051eb44723aaae83398c847e51187fa",
        "to": "0x177ad3ad54715a84fa906705c7f7660444d7d6e1",
        "gas": "0xba40",
        "value": "0x0",
        "data": "0xa9059cbb0000000000000000000000006ecc59c35e3951201c803b821bfa801349edf48f0000000000000000000000000000000000000000000000008ac7230489e80000",
        "nonce": "0x48",
        "accessList": []
      },
      "additionalContracts": [],
      "isFixedGasLimit": false
    },
    {
      "hash": "0x4ecc05cb07114fdd32750d4836f31deb1e70f06bd3db33a3c618695a0be62415",
      "transactionType": "CALL",
      "contractName": null,
      "contractAddress": "0x177Ad3aD54715A84Fa906705c7F7660444d7d6e1",
      "function": "transfer(address,uint256)",
      "arguments": [
        "0x7e4324afA7AeB899B0e4d98C2745083fD4eDE2Db",
        "10000000000000000000"
      ],
      "transaction": {
        "type": "0x02",
        "from": "0x7824a63a4051eb44723aaae83398c847e51187fa",
        "to": "0x177ad3ad54715a84fa906705c7f7660444d7d6e1",
        "gas": "0xba40",
        "value": "0x0",
        "data": "0xa9059cbb0000000000000000000000007e4324afa7aeb899b0e4d98c2745083fd4ede2db0000000000000000000000000000000000000000000000008ac7230489e80000",
        "nonce": "0x49",
        "accessList": []
      },
      "additionalContracts": [],
      "isFixedGasLimit": false
    },
    {
      "hash": "0x9d713e1124931fafa9e7a59e8917d5fb86a208768808860c703b963d0b013d14",
      "transactionType": "CALL",
      "contractName": null,
      "contractAddress": "0x177Ad3aD54715A84Fa906705c7F7660444d7d6e1",
      "function": "transfer(address,uint256)",
      "arguments": [
        "0x5FcA8FADd2586f1BDA506A0E36d7196A3A60bA9d",
        "10000000000000000000"
      ],
      "transaction": {
        "type": "0x02",
        "from": "0x7824a63a4051eb44723aaae83398c847e51187fa",
        "to": "0x177ad3ad54715a84fa906705c7f7660444d7d6e1",
        "gas": "0xba40",
        "value": "0x0",
        "data": "0xa9059cbb0000000000000000000000005fca8fadd2586f1bda506a0e36d7196a3a60ba9d0000000000000000000000000000000000000000000000008ac7230489e80000",
        "nonce": "0x4a",
        "accessList": []
      },
      "additionalContracts": [],
      "isFixedGasLimit": false
    },
    {
      "hash": "0xd5f3eedc5657b4bdfb766f57d55a783f4dbdd887899581bec8073a6f192faef4",
      "transactionType": "CALL",
      "contractName": null,
      "contractAddress": "0x177Ad3aD54715A84Fa906705c7F7660444d7d6e1",
      "function": "transfer(address,uint256)",
      "arguments": [
        "0xA5216C6F685c2b8a678A704107760Be652665234",
        "10000000000000000000"
      ],
      "transaction": {
        "type": "0x02",
        "from": "0x7824a63a4051eb44723aaae83398c847e51187fa",
        "to": "0x177ad3ad54715a84fa906705c7f7660444d7d6e1",
        "gas": "0xba40",
        "value": "0x0",
        "data": "0xa9059cbb000000000000000000000000a5216c6f685c2b8a678a704107760be6526652340000000000000000000000000000000000000000000000008ac7230489e80000",
        "nonce": "0x4b",
        "accessList": []
      },
      "additionalContracts": [],
      "isFixedGasLimit": false
    },
    {
      "hash": "0xb9dee656ed276a60dc817e6863b34c71f8f8b6ad1410f9935ff6e5f791d9fd64",
      "transactionType": "CALL",
      "contractName": null,
      "contractAddress": "0x177Ad3aD54715A84Fa906705c7F7660444d7d6e1",
      "function": "transfer(address,uint256)",
      "arguments": [
        "0xf5d9E0cF7b63E0C2D8A7E830fdCe539bB3D0848D",
        "10000000000000000000"
      ],
      "transaction": {
        "type": "0x02",
        "from": "0x7824a63a4051eb44723aaae83398c847e51187fa",
        "to": "0x177ad3ad54715a84fa906705c7f7660444d7d6e1",
        "gas": "0xba40",
        "value": "0x0",
        "data": "0xa9059cbb000000000000000000000000f5d9e0cf7b63e0c2d8a7e830fdce539bb3d0848d0000000000000000000000000000000000000000000000008ac7230489e80000",
        "nonce": "0x4c",
        "accessList": []
      },
      "additionalContracts": [],
      "isFixedGasLimit": false
    },
    {
      "hash": "0x6bcbbc526e59ebebcfeb73b82c2b294d61d9f7cf817b8a693ba4e66a684c99e5",
      "transactionType": "CALL",
      "contractName": null,
      "contractAddress": "0x177Ad3aD54715A84Fa906705c7F7660444d7d6e1",
      "function": "transfer(address,uint256)",
      "arguments": [
        "0x3468E001c7592F8759a0753C9680931059836641",
        "10000000000000000000"
      ],
      "transaction": {
        "type": "0x02",
        "from": "0x7824a63a4051eb44723aaae83398c847e51187fa",
        "to": "0x177ad3ad54715a84fa906705c7f7660444d7d6e1",
        "gas": "0xba40",
        "value": "0x0",
        "data": "0xa9059cbb0000000000000000000000003468e001c7592f8759a0753c96809310598366410000000000000000000000000000000000000000000000008ac7230489e80000",
        "nonce": "0x4d",
        "accessList": []
      },
      "additionalContracts": [],
      "isFixedGasLimit": false
    }
  ],
  "receipts": [
    {
      "transactionHash": "0x6e7806adb3a19f75ad88710df3eb9f6b7937f5029fef23874549e6ab4b2eca97",
      "transactionIndex": "0x1",
      "blockHash": "0x460d746929d5999fd152b495f2d2d114583b9c57d28ede28b62cb4dad7c3d72e",
      "blockNumber": "0x8a7a75",
      "from": "0x7824A63A4051eB44723AAae83398c847e51187FA",
      "to": "0x177Ad3aD54715A84Fa906705c7F7660444d7d6e1",
      "cumulativeGasUsed": "0x1322f",
      "gasUsed": "0x86d8",
      "contractAddress": null,
      "logs": [
        {
          "address": "0x177Ad3aD54715A84Fa906705c7F7660444d7d6e1",
          "topics": [
            "0xddf252ad1be2c89b69c2b068fc378daa952ba7f163c4a11628f55a4df523b3ef",
            "0x0000000000000000000000007824a63a4051eb44723aaae83398c847e51187fa",
            "0x000000000000000000000000c7cfd9898b4be87a13552084148442a2b4d4c23f"
          ],
          "data": "0x0000000000000000000000000000000000000000000000008ac7230489e80000",
          "blockHash": "0x460d746929d5999fd152b495f2d2d114583b9c57d28ede28b62cb4dad7c3d72e",
          "blockNumber": "0x8a7a75",
          "transactionHash": "0x6e7806adb3a19f75ad88710df3eb9f6b7937f5029fef23874549e6ab4b2eca97",
          "transactionIndex": "0x1",
          "logIndex": "0x0",
          "removed": false
        }
      ],
      "status": "0x1",
      "logsBloom": "0x00000000000000000000000000000000000000000000000000000000000000000000000000000000000000000000000000000200000000000000400000000000000000000000000000000008000000000000000000000000000000000000000000000000000000000000000000000000000000000000000000000010000000000000000000000000000000000000000000020000000020000000000000000000000000000000000000000100000000000000000000000000000004000000280000000002000000000000000000000000000000040000000000000000000000000000000000000000000000000000000000000000000000000000000000000000",
      "type": "0x2",
      "effectiveGasPrice": "0xb2d05efc"
    },
    {
      "transactionHash": "0x1901778e3eaa48c906cbbf5f4cc473188598a9952885cfd17b37ef23b33cf59a",
      "transactionIndex": "0x1",
      "blockHash": "0x19d7eaa1116dfdcf89da85bac50757ed335c07d23e734d849b4b72b2dd3d8c4d",
      "blockNumber": "0x8a7a76",
      "from": "0x7824A63A4051eB44723AAae83398c847e51187FA",
      "to": "0x177Ad3aD54715A84Fa906705c7F7660444d7d6e1",
      "cumulativeGasUsed": "0x1322f",
      "gasUsed": "0x86d8",
      "contractAddress": null,
      "logs": [
        {
          "address": "0x177Ad3aD54715A84Fa906705c7F7660444d7d6e1",
          "topics": [
            "0xddf252ad1be2c89b69c2b068fc378daa952ba7f163c4a11628f55a4df523b3ef",
            "0x0000000000000000000000007824a63a4051eb44723aaae83398c847e51187fa",
            "0x00000000000000000000000044cf205a7dbd9656b59c084be7ef64880c2b3f07"
          ],
          "data": "0x0000000000000000000000000000000000000000000000008ac7230489e80000",
          "blockHash": "0x19d7eaa1116dfdcf89da85bac50757ed335c07d23e734d849b4b72b2dd3d8c4d",
          "blockNumber": "0x8a7a76",
          "transactionHash": "0x1901778e3eaa48c906cbbf5f4cc473188598a9952885cfd17b37ef23b33cf59a",
          "transactionIndex": "0x1",
          "logIndex": "0x0",
          "removed": false
        }
      ],
      "status": "0x1",
      "logsBloom": "0x00000000000000000000000000000000000000000000000000000000000000000000000000000000000000000000000000000200000000000000400000000000000000000000000000000008000000000000000000000200000000000000000000000000000000000000000000000000000000000000000400000010000000000000000000000000000000000000000000020000000000000000000000000000000000000000000000000000000000000000000000000000000004000000200000010002000000000000000000000000000000040000000000000000000000000000000000000000000000000000000000000000000000000000000000000000",
      "type": "0x2",
      "effectiveGasPrice": "0xb2d05efc"
    },
    {
      "transactionHash": "0x9234c8f8ad2794ed22822bf1e4d91616b988051bfb31d189778ec15bdb42fe84",
      "transactionIndex": "0x2",
      "blockHash": "0x19d7eaa1116dfdcf89da85bac50757ed335c07d23e734d849b4b72b2dd3d8c4d",
      "blockNumber": "0x8a7a76",
      "from": "0x7824A63A4051eB44723AAae83398c847e51187FA",
      "to": "0x177Ad3aD54715A84Fa906705c7F7660444d7d6e1",
      "cumulativeGasUsed": "0x1b907",
      "gasUsed": "0x86d8",
      "contractAddress": null,
      "logs": [
        {
          "address": "0x177Ad3aD54715A84Fa906705c7F7660444d7d6e1",
          "topics": [
            "0xddf252ad1be2c89b69c2b068fc378daa952ba7f163c4a11628f55a4df523b3ef",
            "0x0000000000000000000000007824a63a4051eb44723aaae83398c847e51187fa",
            "0x0000000000000000000000005fd87f43716a28859b238b11ec49535b2ba4d447"
          ],
          "data": "0x0000000000000000000000000000000000000000000000008ac7230489e80000",
          "blockHash": "0x19d7eaa1116dfdcf89da85bac50757ed335c07d23e734d849b4b72b2dd3d8c4d",
          "blockNumber": "0x8a7a76",
          "transactionHash": "0x9234c8f8ad2794ed22822bf1e4d91616b988051bfb31d189778ec15bdb42fe84",
          "transactionIndex": "0x2",
          "logIndex": "0x1",
          "removed": false
        }
      ],
      "status": "0x1",
      "logsBloom": "0x00000000000000000000000000000000000000000000000000000000000000000000000000000000000000000000000000000200000000000000400000000000000000000000000000000008000000000000000000000000000000000000000000000000000000000000000000000000000000000000000000000010000000000000000000000400000000000000000000020000000000000000000000000000000000000000000000000000000000000000000000400000000004000000220000000002000000000000000000000000000000040000000000000000000000000000000000000000000000000000000000000000000000000000000000000000",
      "type": "0x2",
      "effectiveGasPrice": "0xb2d05efc"
    },
    {
      "transactionHash": "0xf357f6d769c29236464766278c7394816806a1e308ebaccaf9c1a8dcea0c8c4e",
      "transactionIndex": "0x3",
      "blockHash": "0x19d7eaa1116dfdcf89da85bac50757ed335c07d23e734d849b4b72b2dd3d8c4d",
      "blockNumber": "0x8a7a76",
      "from": "0x7824A63A4051eB44723AAae83398c847e51187FA",
      "to": "0x177Ad3aD54715A84Fa906705c7F7660444d7d6e1",
      "cumulativeGasUsed": "0x23fdf",
      "gasUsed": "0x86d8",
      "contractAddress": null,
      "logs": [
        {
          "address": "0x177Ad3aD54715A84Fa906705c7F7660444d7d6e1",
          "topics": [
            "0xddf252ad1be2c89b69c2b068fc378daa952ba7f163c4a11628f55a4df523b3ef",
            "0x0000000000000000000000007824a63a4051eb44723aaae83398c847e51187fa",
            "0x00000000000000000000000097dbd6d0b07b3a66497bb0da404ed6421584c54c"
          ],
          "data": "0x0000000000000000000000000000000000000000000000008ac7230489e80000",
          "blockHash": "0x19d7eaa1116dfdcf89da85bac50757ed335c07d23e734d849b4b72b2dd3d8c4d",
          "blockNumber": "0x8a7a76",
          "transactionHash": "0xf357f6d769c29236464766278c7394816806a1e308ebaccaf9c1a8dcea0c8c4e",
          "transactionIndex": "0x3",
          "logIndex": "0x2",
          "removed": false
        }
      ],
      "status": "0x1",
      "logsBloom": "0x00000000000000000000000000000000000000000000000002010000000000000000000000000000000000000000000000000200000000000000400000000000000000000000000000000008000000000000000000000000000000000000000000000000000000000000000000000000000000000000000000000010000000000000000000000000000000000000000000020000000000000000000000000000000000000000000000000000000000000000000000000000000004000000200000000002000000000000000000000000000000040000000000000000000000000000000000000000000000000000000000000004000000000000000000000000",
      "type": "0x2",
      "effectiveGasPrice": "0xb2d05efc"
    },
    {
      "transactionHash": "0x258b4694377611bc99e5b3e3043c1f9f7b3bdd949facb065f9b13f67cbdcc8ae",
      "transactionIndex": "0x4",
      "blockHash": "0x19d7eaa1116dfdcf89da85bac50757ed335c07d23e734d849b4b72b2dd3d8c4d",
      "blockNumber": "0x8a7a76",
      "from": "0x7824A63A4051eB44723AAae83398c847e51187FA",
      "to": "0x177Ad3aD54715A84Fa906705c7F7660444d7d6e1",
      "cumulativeGasUsed": "0x2c6b7",
      "gasUsed": "0x86d8",
      "contractAddress": null,
      "logs": [
        {
          "address": "0x177Ad3aD54715A84Fa906705c7F7660444d7d6e1",
          "topics": [
            "0xddf252ad1be2c89b69c2b068fc378daa952ba7f163c4a11628f55a4df523b3ef",
            "0x0000000000000000000000007824a63a4051eb44723aaae83398c847e51187fa",
            "0x00000000000000000000000036b92f71116e50b8fd0aa1a4529922b54f1b5c3c"
          ],
          "data": "0x0000000000000000000000000000000000000000000000008ac7230489e80000",
          "blockHash": "0x19d7eaa1116dfdcf89da85bac50757ed335c07d23e734d849b4b72b2dd3d8c4d",
          "blockNumber": "0x8a7a76",
          "transactionHash": "0x258b4694377611bc99e5b3e3043c1f9f7b3bdd949facb065f9b13f67cbdcc8ae",
          "transactionIndex": "0x4",
          "logIndex": "0x3",
          "removed": false
        }
      ],
      "status": "0x1",
      "logsBloom": "0x00000000000000000000000000000000000000000000000000000000000000000000000000000000000000000000000000000200000000000000400000000000000000000000000000000008000000001000000000000000000000000000000000000000000000000000000000000000000000000000000000000010000000001000000000000000000000000000000004020000000000000000000000000000000000000000000000000000000000000000000000000000000004000000200000000002000000000000000000000000000000040000000000000000000000000000000000000000000000000000000000000000000000000000000000000000",
      "type": "0x2",
      "effectiveGasPrice": "0xb2d05efc"
    },
    {
      "transactionHash": "0xfd5f23db68e99176f9efa1364e1d1767cffa48b2d8bbd279ab103a16be0f2187",
      "transactionIndex": "0x5",
      "blockHash": "0x19d7eaa1116dfdcf89da85bac50757ed335c07d23e734d849b4b72b2dd3d8c4d",
      "blockNumber": "0x8a7a76",
      "from": "0x7824A63A4051eB44723AAae83398c847e51187FA",
      "to": "0x177Ad3aD54715A84Fa906705c7F7660444d7d6e1",
      "cumulativeGasUsed": "0x34d8f",
      "gasUsed": "0x86d8",
      "contractAddress": null,
      "logs": [
        {
          "address": "0x177Ad3aD54715A84Fa906705c7F7660444d7d6e1",
          "topics": [
            "0xddf252ad1be2c89b69c2b068fc378daa952ba7f163c4a11628f55a4df523b3ef",
            "0x0000000000000000000000007824a63a4051eb44723aaae83398c847e51187fa",
            "0x000000000000000000000000c4de020cfb94d5e7da5536551da6cfe01dce33ec"
          ],
          "data": "0x0000000000000000000000000000000000000000000000008ac7230489e80000",
          "blockHash": "0x19d7eaa1116dfdcf89da85bac50757ed335c07d23e734d849b4b72b2dd3d8c4d",
          "blockNumber": "0x8a7a76",
          "transactionHash": "0xfd5f23db68e99176f9efa1364e1d1767cffa48b2d8bbd279ab103a16be0f2187",
          "transactionIndex": "0x5",
          "logIndex": "0x4",
          "removed": false
        }
      ],
      "status": "0x1",
      "logsBloom": "0x00000000000000000000000000000000000000000000000000000000000000000000000000000000000000000000000000000200000000000000400000000000000000000000000000000008000000000000000000000000000000000000000000000000200000000000000000000000000000000000000000000010000000000000000000000000000000000000000000020000008000000000000000000000000000000000000000000000000000000000000000000000000024000000200000000002000000000000000000000000000000040000000000000000000000000000000000000000000000000000000000000000000000000000000000000000",
      "type": "0x2",
      "effectiveGasPrice": "0xb2d05efc"
    },
    {
      "transactionHash": "0xfa349910c5ea02a45c746ce8aa4082c0443cf280a7cc121418e7d374eb9d6d27",
      "transactionIndex": "0x6",
      "blockHash": "0x19d7eaa1116dfdcf89da85bac50757ed335c07d23e734d849b4b72b2dd3d8c4d",
      "blockNumber": "0x8a7a76",
      "from": "0x7824A63A4051eB44723AAae83398c847e51187FA",
      "to": "0x177Ad3aD54715A84Fa906705c7F7660444d7d6e1",
      "cumulativeGasUsed": "0x3d467",
      "gasUsed": "0x86d8",
      "contractAddress": null,
      "logs": [
        {
          "address": "0x177Ad3aD54715A84Fa906705c7F7660444d7d6e1",
          "topics": [
            "0xddf252ad1be2c89b69c2b068fc378daa952ba7f163c4a11628f55a4df523b3ef",
            "0x0000000000000000000000007824a63a4051eb44723aaae83398c847e51187fa",
            "0x00000000000000000000000051f64e44a405d1a89176b752a86b692575f6e849"
          ],
          "data": "0x0000000000000000000000000000000000000000000000008ac7230489e80000",
          "blockHash": "0x19d7eaa1116dfdcf89da85bac50757ed335c07d23e734d849b4b72b2dd3d8c4d",
          "blockNumber": "0x8a7a76",
          "transactionHash": "0xfa349910c5ea02a45c746ce8aa4082c0443cf280a7cc121418e7d374eb9d6d27",
          "transactionIndex": "0x6",
          "logIndex": "0x5",
          "removed": false
        }
      ],
      "status": "0x1",
      "logsBloom": "0x00000000000000000000000000000000000000000000000000000000000000000000000000000000000000000000000000000200000000000000400000000000000004000000000000000008000000000000000000000000000000000000000000000000000000000000000000000000400000000000000000000010000000400000000000000000000000000000000000020000000000000000000000000000000000000000000000000000000000000000000000000000000004000000200000000002000000000000000000000000000000040000000000000000000000000000000000000000000000000000000000000000000000000000000000000000",
      "type": "0x2",
      "effectiveGasPrice": "0xb2d05efc"
    },
    {
      "transactionHash": "0x177cc1c687d94353f2d0a284a8c336d823038a7c5b2a5c9ae710bc0c638ab007",
      "transactionIndex": "0x7",
      "blockHash": "0x19d7eaa1116dfdcf89da85bac50757ed335c07d23e734d849b4b72b2dd3d8c4d",
      "blockNumber": "0x8a7a76",
      "from": "0x7824A63A4051eB44723AAae83398c847e51187FA",
      "to": "0x177Ad3aD54715A84Fa906705c7F7660444d7d6e1",
      "cumulativeGasUsed": "0x45b3f",
      "gasUsed": "0x86d8",
      "contractAddress": null,
      "logs": [
        {
          "address": "0x177Ad3aD54715A84Fa906705c7F7660444d7d6e1",
          "topics": [
            "0xddf252ad1be2c89b69c2b068fc378daa952ba7f163c4a11628f55a4df523b3ef",
            "0x0000000000000000000000007824a63a4051eb44723aaae83398c847e51187fa",
            "0x000000000000000000000000aec4749fc27e35c2d5c6c83c52579cda4f6a7a0e"
          ],
          "data": "0x0000000000000000000000000000000000000000000000008ac7230489e80000",
          "blockHash": "0x19d7eaa1116dfdcf89da85bac50757ed335c07d23e734d849b4b72b2dd3d8c4d",
          "blockNumber": "0x8a7a76",
          "transactionHash": "0x177cc1c687d94353f2d0a284a8c336d823038a7c5b2a5c9ae710bc0c638ab007",
          "transactionIndex": "0x7",
          "logIndex": "0x6",
          "removed": false
        }
      ],
      "status": "0x1",
      "logsBloom": "0x00000000000000000000000000000000000000000000000000000000000000000000000000000000000000000000000000000220000000000000400000000000000000000000000000000008000000000000000000000000000000000000000000000000000000000000000000000000000000000000000000000010000000000000000000000000000000000000000000020000000000000000000000000000000000000000000000000000000000000000000000001000000004000000200000000002000000000000000000000000000000040000000000000000000000000000400000000000000000000000000000000000000000000000000000000000",
      "type": "0x2",
      "effectiveGasPrice": "0xb2d05efc"
    },
    {
      "transactionHash": "0xfa73f7caeee320018b63bbb2c401061ab9cd7587c7f635de814d684c7c320aa3",
      "transactionIndex": "0x8",
      "blockHash": "0x19d7eaa1116dfdcf89da85bac50757ed335c07d23e734d849b4b72b2dd3d8c4d",
      "blockNumber": "0x8a7a76",
      "from": "0x7824A63A4051eB44723AAae83398c847e51187FA",
      "to": "0x177Ad3aD54715A84Fa906705c7F7660444d7d6e1",
      "cumulativeGasUsed": "0x4e20b",
      "gasUsed": "0x86cc",
      "contractAddress": null,
      "logs": [
        {
          "address": "0x177Ad3aD54715A84Fa906705c7F7660444d7d6e1",
          "topics": [
            "0xddf252ad1be2c89b69c2b068fc378daa952ba7f163c4a11628f55a4df523b3ef",
            "0x0000000000000000000000007824a63a4051eb44723aaae83398c847e51187fa",
            "0x000000000000000000000000399035f0493d7da77e0c44ec87d9360021dafd59"
          ],
          "data": "0x0000000000000000000000000000000000000000000000008ac7230489e80000",
          "blockHash": "0x19d7eaa1116dfdcf89da85bac50757ed335c07d23e734d849b4b72b2dd3d8c4d",
          "blockNumber": "0x8a7a76",
          "transactionHash": "0xfa73f7caeee320018b63bbb2c401061ab9cd7587c7f635de814d684c7c320aa3",
          "transactionIndex": "0x8",
          "logIndex": "0x7",
          "removed": false
        }
      ],
      "status": "0x1",
      "logsBloom": "0x00000000000000000000000000000000000000000000000000000000000000000000000000000000000000000004000000000200000008000000400000000000000000000000000000000008000000000000000000000000000000000000000000000000000000000000000000000000000000000000000000000010000000000000000000000000000000000000000000020000000000000000000000000000000000000000000000000000000000000000000000200000000004000000200000000002000000000000000000000000000000040000000000000000000000000000000000000000000000000000000000000000000000000000000000000000",
      "type": "0x2",
      "effectiveGasPrice": "0xb2d05efc"
    },
    {
      "transactionHash": "0xa88b526494497107e5ae77306943557858fe1335d444aa8e8ba874d180c99cc0",
      "transactionIndex": "0x9",
      "blockHash": "0x19d7eaa1116dfdcf89da85bac50757ed335c07d23e734d849b4b72b2dd3d8c4d",
      "blockNumber": "0x8a7a76",
      "from": "0x7824A63A4051eB44723AAae83398c847e51187FA",
      "to": "0x177Ad3aD54715A84Fa906705c7F7660444d7d6e1",
      "cumulativeGasUsed": "0x568e3",
      "gasUsed": "0x86d8",
      "contractAddress": null,
      "logs": [
        {
          "address": "0x177Ad3aD54715A84Fa906705c7F7660444d7d6e1",
          "topics": [
            "0xddf252ad1be2c89b69c2b068fc378daa952ba7f163c4a11628f55a4df523b3ef",
            "0x0000000000000000000000007824a63a4051eb44723aaae83398c847e51187fa",
            "0x0000000000000000000000004b2be391da027155b21b725c37ff289a46d9c06c"
          ],
          "data": "0x0000000000000000000000000000000000000000000000008ac7230489e80000",
          "blockHash": "0x19d7eaa1116dfdcf89da85bac50757ed335c07d23e734d849b4b72b2dd3d8c4d",
          "blockNumber": "0x8a7a76",
          "transactionHash": "0xa88b526494497107e5ae77306943557858fe1335d444aa8e8ba874d180c99cc0",
          "transactionIndex": "0x9",
          "logIndex": "0x8",
          "removed": false
        }
      ],
      "status": "0x1",
      "logsBloom": "0x00000000000000000000000000000000000000000000000000000000000000000000000000000000000000000000000000000200000000000000400000000000100000000000000000000008000000000000000000000000000000000000000000000000000000000000000000000000080000000000000000000010000000000000000000000000000000000000000000020000000000000000000000000000000000000000400000000000000000000000000000000000000004000000200000000002000000000000000000000000000000040000000000000000000000000000000000000000000000000000000000000000000000000000000000000000",
      "type": "0x2",
      "effectiveGasPrice": "0xb2d05efc"
    },
    {
      "transactionHash": "0x6190affbebd9a13df008a222c273869f5ad1c76d5b5c45e94ee441c2e3639f02",
      "transactionIndex": "0x1",
      "blockHash": "0x399dba719d49673f6b0239c45f384aab2594cf5551453c1241d5c690c5f98446",
      "blockNumber": "0x8a7a78",
      "from": "0x7824A63A4051eB44723AAae83398c847e51187FA",
      "to": "0x177Ad3aD54715A84Fa906705c7F7660444d7d6e1",
      "cumulativeGasUsed": "0x1322f",
      "gasUsed": "0x86d8",
      "contractAddress": null,
      "logs": [
        {
          "address": "0x177Ad3aD54715A84Fa906705c7F7660444d7d6e1",
          "topics": [
            "0xddf252ad1be2c89b69c2b068fc378daa952ba7f163c4a11628f55a4df523b3ef",
            "0x0000000000000000000000007824a63a4051eb44723aaae83398c847e51187fa",
            "0x000000000000000000000000feb36e8150d1937809ea25c2c4d4ff8cf0a85246"
          ],
          "data": "0x0000000000000000000000000000000000000000000000008ac7230489e80000",
          "blockHash": "0x399dba719d49673f6b0239c45f384aab2594cf5551453c1241d5c690c5f98446",
          "blockNumber": "0x8a7a78",
          "transactionHash": "0x6190affbebd9a13df008a222c273869f5ad1c76d5b5c45e94ee441c2e3639f02",
          "transactionIndex": "0x1",
          "logIndex": "0x0",
          "removed": false
        }
      ],
      "status": "0x1",
      "logsBloom": "0x00000000000000000000000000000000000000000000000000000000000000000000000000000000000000000000000000000200000000000000400000000000000000000000000000000008000000000000000000000000000000000000000004000000000000000000000000000000000000000000000000000010000000000000000000000000000000000000000000020000000000000000000000000000000000000000000000000000000000000000000000000000000004000000200001000002000000000000004000000000000000040000000000000000000000000000000000000000000000000000000000000000000000000000000000000000",
      "type": "0x2",
      "effectiveGasPrice": "0xb2d05efc"
    },
    {
      "transactionHash": "0xa012f9134540b3f720f0b821442fd443362c8672ce185895566c797a0b5a3830",
      "transactionIndex": "0x2",
      "blockHash": "0x399dba719d49673f6b0239c45f384aab2594cf5551453c1241d5c690c5f98446",
      "blockNumber": "0x8a7a78",
      "from": "0x7824A63A4051eB44723AAae83398c847e51187FA",
      "to": "0x177Ad3aD54715A84Fa906705c7F7660444d7d6e1",
      "cumulativeGasUsed": "0x1b907",
      "gasUsed": "0x86d8",
      "contractAddress": null,
      "logs": [
        {
          "address": "0x177Ad3aD54715A84Fa906705c7F7660444d7d6e1",
          "topics": [
            "0xddf252ad1be2c89b69c2b068fc378daa952ba7f163c4a11628f55a4df523b3ef",
            "0x0000000000000000000000007824a63a4051eb44723aaae83398c847e51187fa",
            "0x000000000000000000000000b1fc3b05dedec175678be3c44cb0ce63a6133c6b"
          ],
          "data": "0x0000000000000000000000000000000000000000000000008ac7230489e80000",
          "blockHash": "0x399dba719d49673f6b0239c45f384aab2594cf5551453c1241d5c690c5f98446",
          "blockNumber": "0x8a7a78",
          "transactionHash": "0xa012f9134540b3f720f0b821442fd443362c8672ce185895566c797a0b5a3830",
          "transactionIndex": "0x2",
          "logIndex": "0x1",
          "removed": false
        }
      ],
      "status": "0x1",
      "logsBloom": "0x00800000000000000000000000000000000000000000000000000000000000000000000000000000000000000000000000000200200000000000400000000000000000000000000000000008000000000000000000000000000000000000000000000000000000000000000000000000000000000000000000000010000000000000800000000000000000000000000000020000000000000000000000000000000000000000000000000000000000000000000000000000000004000000200000000002000000000000000000000000000000040000000000000000000000000000000000000000000000000000000000000000000000000000000000000000",
      "type": "0x2",
      "effectiveGasPrice": "0xb2d05efc"
    },
    {
      "transactionHash": "0xb54bbbb8e86ea756c4aafc5191dc8d3875680fcaa4aa26ebf7a639a5803ec6d8",
      "transactionIndex": "0x3",
      "blockHash": "0x399dba719d49673f6b0239c45f384aab2594cf5551453c1241d5c690c5f98446",
      "blockNumber": "0x8a7a78",
      "from": "0x7824A63A4051eB44723AAae83398c847e51187FA",
      "to": "0x177Ad3aD54715A84Fa906705c7F7660444d7d6e1",
      "cumulativeGasUsed": "0x23fdf",
      "gasUsed": "0x86d8",
      "contractAddress": null,
      "logs": [
        {
          "address": "0x177Ad3aD54715A84Fa906705c7F7660444d7d6e1",
          "topics": [
            "0xddf252ad1be2c89b69c2b068fc378daa952ba7f163c4a11628f55a4df523b3ef",
            "0x0000000000000000000000007824a63a4051eb44723aaae83398c847e51187fa",
            "0x000000000000000000000000295988d44c7ee38eb0abad16668a310770efd0fa"
          ],
          "data": "0x0000000000000000000000000000000000000000000000008ac7230489e80000",
          "blockHash": "0x399dba719d49673f6b0239c45f384aab2594cf5551453c1241d5c690c5f98446",
          "blockNumber": "0x8a7a78",
          "transactionHash": "0xb54bbbb8e86ea756c4aafc5191dc8d3875680fcaa4aa26ebf7a639a5803ec6d8",
          "transactionIndex": "0x3",
          "logIndex": "0x2",
          "removed": false
        }
      ],
      "status": "0x1",
      "logsBloom": "0x00000000000000000000000000000000000000000000000000000000000000000000000000000000000000000000000000000200000000000000400000000000000000000000000000000008000000000000000000000000000000000000000000000000000000000000000000000000000000000000000000000010010000000000000000000000000000000000000000020000000000000000000000000000000000000000000000000000000000000000000000000000000004000000200000000002000000000000000000000000000000040000000000000000000000000000000000000000000000000000000000000000100000000000000000000000",
      "type": "0x2",
      "effectiveGasPrice": "0xb2d05efc"
    },
    {
      "transactionHash": "0xbca2fb1df5329aaa9f8f6846b696668794d860011339c957610734cf9f30177c",
      "transactionIndex": "0x4",
      "blockHash": "0x399dba719d49673f6b0239c45f384aab2594cf5551453c1241d5c690c5f98446",
      "blockNumber": "0x8a7a78",
      "from": "0x7824A63A4051eB44723AAae83398c847e51187FA",
      "to": "0x177Ad3aD54715A84Fa906705c7F7660444d7d6e1",
      "cumulativeGasUsed": "0x2c6b7",
      "gasUsed": "0x86d8",
      "contractAddress": null,
      "logs": [
        {
          "address": "0x177Ad3aD54715A84Fa906705c7F7660444d7d6e1",
          "topics": [
            "0xddf252ad1be2c89b69c2b068fc378daa952ba7f163c4a11628f55a4df523b3ef",
            "0x0000000000000000000000007824a63a4051eb44723aaae83398c847e51187fa",
            "0x00000000000000000000000021d9e9db2f504261b05f84d9cc7a4dc295b81ff8"
          ],
          "data": "0x0000000000000000000000000000000000000000000000008ac7230489e80000",
          "blockHash": "0x399dba719d49673f6b0239c45f384aab2594cf5551453c1241d5c690c5f98446",
          "blockNumber": "0x8a7a78",
          "transactionHash": "0xbca2fb1df5329aaa9f8f6846b696668794d860011339c957610734cf9f30177c",
          "transactionIndex": "0x4",
          "logIndex": "0x3",
          "removed": false
        }
      ],
      "status": "0x1",
      "logsBloom": "0x00000000000000000000000000000000000000000000000010000000000000000000000000000000000000000000000000000200000000000000400000000000000000000000000000000208000000000000000000000000000000000000000000000000000000000000000000000000000000000000000000000010000000000000000000000000000000000000000000020000000000000000000000000000000000000000000000000000000000000000000000000000000004000000200000000002000000000000080000000000000000040000000000000000000000000000000000000000000000000000000000000000000000000000000000000000",
      "type": "0x2",
      "effectiveGasPrice": "0xb2d05efc"
    },
    {
      "transactionHash": "0x9fcb5004198a9a6d49f0ea3e9fdf2e98e28726207f559a940b4f9947c788822a",
      "transactionIndex": "0x5",
      "blockHash": "0x399dba719d49673f6b0239c45f384aab2594cf5551453c1241d5c690c5f98446",
      "blockNumber": "0x8a7a78",
      "from": "0x7824A63A4051eB44723AAae83398c847e51187FA",
      "to": "0x177Ad3aD54715A84Fa906705c7F7660444d7d6e1",
      "cumulativeGasUsed": "0x34d8f",
      "gasUsed": "0x86d8",
      "contractAddress": null,
      "logs": [
        {
          "address": "0x177Ad3aD54715A84Fa906705c7F7660444d7d6e1",
          "topics": [
            "0xddf252ad1be2c89b69c2b068fc378daa952ba7f163c4a11628f55a4df523b3ef",
            "0x0000000000000000000000007824a63a4051eb44723aaae83398c847e51187fa",
            "0x000000000000000000000000973c84e8bb1c16a0ed47010723932732a21053c5"
          ],
          "data": "0x0000000000000000000000000000000000000000000000008ac7230489e80000",
          "blockHash": "0x399dba719d49673f6b0239c45f384aab2594cf5551453c1241d5c690c5f98446",
          "blockNumber": "0x8a7a78",
          "transactionHash": "0x9fcb5004198a9a6d49f0ea3e9fdf2e98e28726207f559a940b4f9947c788822a",
          "transactionIndex": "0x5",
          "logIndex": "0x4",
          "removed": false
        }
      ],
      "status": "0x1",
      "logsBloom": "0x00000000000000000000000000000000000000000000000000000000000000000000000000000000000000000000000000000200000000000000400000000000000000000000010000000008000000000000000000000000000000800000000000000000000000000000000000000000000000000000000000000010000000000000000000000000000000000000000000020000000000000000000000000000000000000000000000000000000000000000000000000000000004000000200000000002000000000000000000000000000000040000000000000000000000000000000010000000000000000000000000000000000000000000000000000000",
      "type": "0x2",
      "effectiveGasPrice": "0xb2d05efc"
    },
    {
      "transactionHash": "0x5eb39bc9156c23e8019a76a3827958dea8cc823dd468f9af00fd2dee79759759",
      "transactionIndex": "0x6",
      "blockHash": "0x399dba719d49673f6b0239c45f384aab2594cf5551453c1241d5c690c5f98446",
      "blockNumber": "0x8a7a78",
      "from": "0x7824A63A4051eB44723AAae83398c847e51187FA",
      "to": "0x177Ad3aD54715A84Fa906705c7F7660444d7d6e1",
      "cumulativeGasUsed": "0x3d467",
      "gasUsed": "0x86d8",
      "contractAddress": null,
      "logs": [
        {
          "address": "0x177Ad3aD54715A84Fa906705c7F7660444d7d6e1",
          "topics": [
            "0xddf252ad1be2c89b69c2b068fc378daa952ba7f163c4a11628f55a4df523b3ef",
            "0x0000000000000000000000007824a63a4051eb44723aaae83398c847e51187fa",
            "0x0000000000000000000000000c28fba70c7506b1210e33d47097f7934915f8cb"
          ],
          "data": "0x0000000000000000000000000000000000000000000000008ac7230489e80000",
          "blockHash": "0x399dba719d49673f6b0239c45f384aab2594cf5551453c1241d5c690c5f98446",
          "blockNumber": "0x8a7a78",
          "transactionHash": "0x5eb39bc9156c23e8019a76a3827958dea8cc823dd468f9af00fd2dee79759759",
          "transactionIndex": "0x6",
          "logIndex": "0x5",
          "removed": false
        }
      ],
      "status": "0x1",
      "logsBloom": "0x00000000000000000000000000000000000000000000000000000000000000000000000000000000000000000000000000000200000000000000400000000000000000000000000000000008000000000000000000000000000000000000000010000000000000000000000000000000000000000000000000000010000000000000000000000000000000000000800000020000000000000000000000080000000000000000000000000000000000000000000000000000000004000000200000000002000000000000000000000000000000040000000000000000000000000000000000000000000000000000000000000000000000000000000000000000",
      "type": "0x2",
      "effectiveGasPrice": "0xb2d05efc"
    },
    {
      "transactionHash": "0xdbf513c7881fcf9a9a1e1b675b8f4282d3a9a94171eefaf33ebf4efc4b946330",
      "transactionIndex": "0x7",
      "blockHash": "0x399dba719d49673f6b0239c45f384aab2594cf5551453c1241d5c690c5f98446",
      "blockNumber": "0x8a7a78",
      "from": "0x7824A63A4051eB44723AAae83398c847e51187FA",
      "to": "0x177Ad3aD54715A84Fa906705c7F7660444d7d6e1",
      "cumulativeGasUsed": "0x45b3f",
      "gasUsed": "0x86d8",
      "contractAddress": null,
      "logs": [
        {
          "address": "0x177Ad3aD54715A84Fa906705c7F7660444d7d6e1",
          "topics": [
            "0xddf252ad1be2c89b69c2b068fc378daa952ba7f163c4a11628f55a4df523b3ef",
            "0x0000000000000000000000007824a63a4051eb44723aaae83398c847e51187fa",
            "0x000000000000000000000000dbf63cf92487fe846cf6742ba7a47e34dd0f0d56"
          ],
          "data": "0x0000000000000000000000000000000000000000000000008ac7230489e80000",
          "blockHash": "0x399dba719d49673f6b0239c45f384aab2594cf5551453c1241d5c690c5f98446",
          "blockNumber": "0x8a7a78",
          "transactionHash": "0xdbf513c7881fcf9a9a1e1b675b8f4282d3a9a94171eefaf33ebf4efc4b946330",
          "transactionIndex": "0x7",
          "logIndex": "0x6",
          "removed": false
        }
      ],
      "status": "0x1",
      "logsBloom": "0x00000000000000000000000000000000000000000000000000000000000000000000000000000000000000000000000000000200000000000000400000000000000000000000000000000108000000000000000000000000000000000000000000000000000000000000000000000000000000000000000000000010000000000000000000000000000000000000000000020000000000000000000000000000000000000000000000000000010000000000000000000000000004000000200000000002000000000000000000000000000000040000000000000000000000000000000000000400000000000000000000000000000000000000000000000000",
      "type": "0x2",
      "effectiveGasPrice": "0xb2d05efc"
    },
    {
      "transactionHash": "0x3cc95f66bfc7260ae5f913fdac97ad394d5f551cb5485701a0b65b824ca7dfbe",
      "transactionIndex": "0x1",
      "blockHash": "0x23c7c7e8728cb52b14d9ea3ad6618b99cbe0ce52a689a74b07ea9c603819e4f8",
      "blockNumber": "0x8a7a79",
      "from": "0x7824A63A4051eB44723AAae83398c847e51187FA",
      "to": "0x177Ad3aD54715A84Fa906705c7F7660444d7d6e1",
      "cumulativeGasUsed": "0x15def",
      "gasUsed": "0x86d8",
      "contractAddress": null,
      "logs": [
        {
          "address": "0x177Ad3aD54715A84Fa906705c7F7660444d7d6e1",
          "topics": [
            "0xddf252ad1be2c89b69c2b068fc378daa952ba7f163c4a11628f55a4df523b3ef",
            "0x0000000000000000000000007824a63a4051eb44723aaae83398c847e51187fa",
            "0x000000000000000000000000f33443699bff5249c56a8fd776f01c30a8a0f2a7"
          ],
          "data": "0x0000000000000000000000000000000000000000000000008ac7230489e80000",
          "blockHash": "0x23c7c7e8728cb52b14d9ea3ad6618b99cbe0ce52a689a74b07ea9c603819e4f8",
          "blockNumber": "0x8a7a79",
          "transactionHash": "0x3cc95f66bfc7260ae5f913fdac97ad394d5f551cb5485701a0b65b824ca7dfbe",
          "transactionIndex": "0x1",
          "logIndex": "0x0",
          "removed": false
        }
      ],
      "status": "0x1",
      "logsBloom": "0x00000000000000000000000000000000000000000000000000000000000000000000000000000000000000000000000000000200000000000000400000000000000000000000000000000008000000000000000000000000000000000000000000000000000000000000000000000000000000000000000000000010000000000000000000000000000000000000010000020000000000000000000000000000000000000000000000000000000000000000000000000000000004000000200000000002000000000000000000000000000000040000001000000000000000000000000000000000000000000000000000000000000000000000000000000000",
      "type": "0x2",
      "effectiveGasPrice": "0xb2d05efc"
    },
    {
      "transactionHash": "0x9eb03e81241356da9c47b484dbd230cea0564f932e4de7110c22c98fa350c19d",
      "transactionIndex": "0x2",
      "blockHash": "0x23c7c7e8728cb52b14d9ea3ad6618b99cbe0ce52a689a74b07ea9c603819e4f8",
      "blockNumber": "0x8a7a79",
      "from": "0x7824A63A4051eB44723AAae83398c847e51187FA",
      "to": "0x177Ad3aD54715A84Fa906705c7F7660444d7d6e1",
      "cumulativeGasUsed": "0x1e4c7",
      "gasUsed": "0x86d8",
      "contractAddress": null,
      "logs": [
        {
          "address": "0x177Ad3aD54715A84Fa906705c7F7660444d7d6e1",
          "topics": [
            "0xddf252ad1be2c89b69c2b068fc378daa952ba7f163c4a11628f55a4df523b3ef",
            "0x0000000000000000000000007824a63a4051eb44723aaae83398c847e51187fa",
            "0x00000000000000000000000015f99dcc6904d458fc0710c980e43a8a0a28307e"
          ],
          "data": "0x0000000000000000000000000000000000000000000000008ac7230489e80000",
          "blockHash": "0x23c7c7e8728cb52b14d9ea3ad6618b99cbe0ce52a689a74b07ea9c603819e4f8",
          "blockNumber": "0x8a7a79",
          "transactionHash": "0x9eb03e81241356da9c47b484dbd230cea0564f932e4de7110c22c98fa350c19d",
          "transactionIndex": "0x2",
          "logIndex": "0x1",
          "removed": false
        }
      ],
      "status": "0x1",
      "logsBloom": "0x00000000000000000000000000000000000000000000000000000000000000000000000000000000000000000000000000000204000000000000400000000000000000000000000000000008000000000000000000000000000000000004000000000000000000000000000000000000000000000000000000000010000000000000000000000000000000000000000000020000000000000000000000000000000000000000000000000000000000000000000000000000000004000000200000000002000000000000000000400000000000040000000000000000000000000000000000000000000000000000000000000000000000000000000000000000",
      "type": "0x2",
      "effectiveGasPrice": "0xb2d05efc"
    },
    {
      "transactionHash": "0xee5c473542d175ec130dc729dbb720e050e3857ff8ce1abcb8e42de9023cc07d",
      "transactionIndex": "0x3",
      "blockHash": "0x23c7c7e8728cb52b14d9ea3ad6618b99cbe0ce52a689a74b07ea9c603819e4f8",
      "blockNumber": "0x8a7a79",
      "from": "0x7824A63A4051eB44723AAae83398c847e51187FA",
      "to": "0x177Ad3aD54715A84Fa906705c7F7660444d7d6e1",
      "cumulativeGasUsed": "0x26b9f",
      "gasUsed": "0x86d8",
      "contractAddress": null,
      "logs": [
        {
          "address": "0x177Ad3aD54715A84Fa906705c7F7660444d7d6e1",
          "topics": [
            "0xddf252ad1be2c89b69c2b068fc378daa952ba7f163c4a11628f55a4df523b3ef",
            "0x0000000000000000000000007824a63a4051eb44723aaae83398c847e51187fa",
            "0x00000000000000000000000001dff7f363552d9e195ab25396680a536498573f"
          ],
          "data": "0x0000000000000000000000000000000000000000000000008ac7230489e80000",
          "blockHash": "0x23c7c7e8728cb52b14d9ea3ad6618b99cbe0ce52a689a74b07ea9c603819e4f8",
          "blockNumber": "0x8a7a79",
          "transactionHash": "0xee5c473542d175ec130dc729dbb720e050e3857ff8ce1abcb8e42de9023cc07d",
          "transactionIndex": "0x3",
          "logIndex": "0x2",
          "removed": false
        }
      ],
      "status": "0x1",
      "logsBloom": "0x00000000000000000000000000000000000000000000000000000000000000000000000000000000000000000000000000000200000000000000400000000000000000000000000000000008800000000000000000000000000000000000000000000000000000000000000000000000000000080000000000000010000000000000000000000000000000000100000000020000000000000000000000000000000000000000000000000000000000000000000000000000000004000000200000000002000000000000000000000000000000040000000000000000000000000000000000000000000000000000000000000000000000000000000000000000",
      "type": "0x2",
      "effectiveGasPrice": "0xb2d05efc"
    },
    {
      "transactionHash": "0xbdf1cecaf0eddfcd8c42ebc9ab88e205e7d8cf245b5a2e9ec70ce02cf4994602",
      "transactionIndex": "0x4",
      "blockHash": "0x23c7c7e8728cb52b14d9ea3ad6618b99cbe0ce52a689a74b07ea9c603819e4f8",
      "blockNumber": "0x8a7a79",
      "from": "0x7824A63A4051eB44723AAae83398c847e51187FA",
      "to": "0x177Ad3aD54715A84Fa906705c7F7660444d7d6e1",
      "cumulativeGasUsed": "0x2f277",
      "gasUsed": "0x86d8",
      "contractAddress": null,
      "logs": [
        {
          "address": "0x177Ad3aD54715A84Fa906705c7F7660444d7d6e1",
          "topics": [
            "0xddf252ad1be2c89b69c2b068fc378daa952ba7f163c4a11628f55a4df523b3ef",
            "0x0000000000000000000000007824a63a4051eb44723aaae83398c847e51187fa",
            "0x0000000000000000000000005bf7583b93117e57c5ea6b3e799b0382751c07da"
          ],
          "data": "0x0000000000000000000000000000000000000000000000008ac7230489e80000",
          "blockHash": "0x23c7c7e8728cb52b14d9ea3ad6618b99cbe0ce52a689a74b07ea9c603819e4f8",
          "blockNumber": "0x8a7a79",
          "transactionHash": "0xbdf1cecaf0eddfcd8c42ebc9ab88e205e7d8cf245b5a2e9ec70ce02cf4994602",
          "transactionIndex": "0x4",
          "logIndex": "0x3",
          "removed": false
        }
      ],
      "status": "0x1",
      "logsBloom": "0x04000000000000000000000000000000000000000000000000000000000000000000000000000000000000000000000000000200000000000000400000000000000000000000000000000008000000000000000000000000000000000000000000000000000000000000000000000000000008000000000000000010000000000000000000000000000000000000000000020000000000000000000000000000000000000000000000000000000000000000000000000000000004000000200000000002000000000000000000000000000000040000000000000000000000000000000000000000000000000000000000000000000000000000000000000020",
      "type": "0x2",
      "effectiveGasPrice": "0xb2d05efc"
    },
    {
      "transactionHash": "0xdfcc669363d96b771589413fa79e0075ae22efbfae1359fa56ee83fd2ece02b7",
      "transactionIndex": "0x5",
      "blockHash": "0x23c7c7e8728cb52b14d9ea3ad6618b99cbe0ce52a689a74b07ea9c603819e4f8",
      "blockNumber": "0x8a7a79",
      "from": "0x7824A63A4051eB44723AAae83398c847e51187FA",
      "to": "0x177Ad3aD54715A84Fa906705c7F7660444d7d6e1",
      "cumulativeGasUsed": "0x3794f",
      "gasUsed": "0x86d8",
      "contractAddress": null,
      "logs": [
        {
          "address": "0x177Ad3aD54715A84Fa906705c7F7660444d7d6e1",
          "topics": [
            "0xddf252ad1be2c89b69c2b068fc378daa952ba7f163c4a11628f55a4df523b3ef",
            "0x0000000000000000000000007824a63a4051eb44723aaae83398c847e51187fa",
            "0x000000000000000000000000edc418502ef1a393240a62831a37072f0336aa6d"
          ],
          "data": "0x0000000000000000000000000000000000000000000000008ac7230489e80000",
          "blockHash": "0x23c7c7e8728cb52b14d9ea3ad6618b99cbe0ce52a689a74b07ea9c603819e4f8",
          "blockNumber": "0x8a7a79",
          "transactionHash": "0xdfcc669363d96b771589413fa79e0075ae22efbfae1359fa56ee83fd2ece02b7",
          "transactionIndex": "0x5",
          "logIndex": "0x4",
          "removed": false
        }
      ],
      "status": "0x1",
      "logsBloom": "0x00000000000000000000000000000000000000000000000000000000000000000000000000000000000000000000000000000200000000000000400000000000000000200000000000000008000000000000000000000000000000000000000000000000000000000000000000000000000000004000004000000010000000000000000000000000000000000000000000020000000000000000000000000000000000000000000000000000000000000000000000000000000004000000200000000002000000000000000000000000000000040000000000000000000000000000000000000000000000000000000000000000000000000000000000000000",
      "type": "0x2",
      "effectiveGasPrice": "0xb2d05efc"
    },
    {
      "transactionHash": "0x97ceb9d242c2befc67b7a67a86d404923e2e42ac4e066d82a5ec58a5d6db3991",
      "transactionIndex": "0x6",
      "blockHash": "0x23c7c7e8728cb52b14d9ea3ad6618b99cbe0ce52a689a74b07ea9c603819e4f8",
      "blockNumber": "0x8a7a79",
      "from": "0x7824A63A4051eB44723AAae83398c847e51187FA",
      "to": "0x177Ad3aD54715A84Fa906705c7F7660444d7d6e1",
      "cumulativeGasUsed": "0x40027",
      "gasUsed": "0x86d8",
      "contractAddress": null,
      "logs": [
        {
          "address": "0x177Ad3aD54715A84Fa906705c7F7660444d7d6e1",
          "topics": [
            "0xddf252ad1be2c89b69c2b068fc378daa952ba7f163c4a11628f55a4df523b3ef",
            "0x0000000000000000000000007824a63a4051eb44723aaae83398c847e51187fa",
            "0x0000000000000000000000005a4b1164289a4161a73446f83d294bb4e026e738"
          ],
          "data": "0x0000000000000000000000000000000000000000000000008ac7230489e80000",
          "blockHash": "0x23c7c7e8728cb52b14d9ea3ad6618b99cbe0ce52a689a74b07ea9c603819e4f8",
          "blockNumber": "0x8a7a79",
          "transactionHash": "0x97ceb9d242c2befc67b7a67a86d404923e2e42ac4e066d82a5ec58a5d6db3991",
          "transactionIndex": "0x6",
          "logIndex": "0x5",
          "removed": false
        }
      ],
      "status": "0x1",
      "logsBloom": "0x00000000000000000000000000000000000000000000000000000000000000000000000000000000000000000000000000000200000000000000400000000000000000000000000000000008000000000000000000000000000000000000000000000000000000000000000000000020000000000000000000000010000000000000000000000000000000000000000000020000000000000000000000010000000000000000000000000000000000000000000000000000000004000000200000000002000000000000000000000000000000040000000000000000000000000000000000000000100000000000000000000000000000000000000000000000",
      "type": "0x2",
      "effectiveGasPrice": "0xb2d05efc"
    },
    {
      "transactionHash": "0xbb97abf3f5c10ba0930cd6a2319c73aa4a0bd53cadd43d4c0fa2de0a3b101a88",
      "transactionIndex": "0x7",
      "blockHash": "0x23c7c7e8728cb52b14d9ea3ad6618b99cbe0ce52a689a74b07ea9c603819e4f8",
      "blockNumber": "0x8a7a79",
      "from": "0x7824A63A4051eB44723AAae83398c847e51187FA",
      "to": "0x177Ad3aD54715A84Fa906705c7F7660444d7d6e1",
      "cumulativeGasUsed": "0x486ff",
      "gasUsed": "0x86d8",
      "contractAddress": null,
      "logs": [
        {
          "address": "0x177Ad3aD54715A84Fa906705c7F7660444d7d6e1",
          "topics": [
            "0xddf252ad1be2c89b69c2b068fc378daa952ba7f163c4a11628f55a4df523b3ef",
            "0x0000000000000000000000007824a63a4051eb44723aaae83398c847e51187fa",
            "0x00000000000000000000000086f2f13a1d622014ede5695e3731f7a09bc7b481"
          ],
          "data": "0x0000000000000000000000000000000000000000000000008ac7230489e80000",
          "blockHash": "0x23c7c7e8728cb52b14d9ea3ad6618b99cbe0ce52a689a74b07ea9c603819e4f8",
          "blockNumber": "0x8a7a79",
          "transactionHash": "0xbb97abf3f5c10ba0930cd6a2319c73aa4a0bd53cadd43d4c0fa2de0a3b101a88",
          "transactionIndex": "0x7",
          "logIndex": "0x6",
          "removed": false
        }
      ],
      "status": "0x1",
      "logsBloom": "0x00000000000000000000000000000000000000000000000000000000000000000000000000000000000000000000000000000200000000000000400000000000000000000000000000000008000004000000000000000000000000000000000040000000000000000000000000000000000000000000000000000010000000000000000000000000000000000000000000020000000000000000000000000000000000000000000000000000000000000000000000000000000004000000200000000002000000000000000000000000000000040000000004000000000000000000000000000000000000000000000000000000000000000000000000000000",
      "type": "0x2",
      "effectiveGasPrice": "0xb2d05efc"
    },
    {
      "transactionHash": "0xa9d91f022d3f400f609501b53351ad3e701e3a77846b762c2c280efb67003bdb",
      "transactionIndex": "0x8",
      "blockHash": "0x23c7c7e8728cb52b14d9ea3ad6618b99cbe0ce52a689a74b07ea9c603819e4f8",
      "blockNumber": "0x8a7a79",
      "from": "0x7824A63A4051eB44723AAae83398c847e51187FA",
      "to": "0x177Ad3aD54715A84Fa906705c7F7660444d7d6e1",
      "cumulativeGasUsed": "0x50dd7",
      "gasUsed": "0x86d8",
      "contractAddress": null,
      "logs": [
        {
          "address": "0x177Ad3aD54715A84Fa906705c7F7660444d7d6e1",
          "topics": [
            "0xddf252ad1be2c89b69c2b068fc378daa952ba7f163c4a11628f55a4df523b3ef",
            "0x0000000000000000000000007824a63a4051eb44723aaae83398c847e51187fa",
            "0x000000000000000000000000732903f195c27c45aa86a2045aa160442608f21a"
          ],
          "data": "0x0000000000000000000000000000000000000000000000008ac7230489e80000",
          "blockHash": "0x23c7c7e8728cb52b14d9ea3ad6618b99cbe0ce52a689a74b07ea9c603819e4f8",
          "blockNumber": "0x8a7a79",
          "transactionHash": "0xa9d91f022d3f400f609501b53351ad3e701e3a77846b762c2c280efb67003bdb",
          "transactionIndex": "0x8",
          "logIndex": "0x7",
          "removed": false
        }
      ],
      "status": "0x1",
      "logsBloom": "0x00000000000000000000000000000000000000000000000000000000000000000000000000000000000000000000000000000200000000000000400000000000000000000000000000000008000000000000000000000000000000000000000000000000000000000000000000000000000000000000000010000010000000000000000000000000000000000000000000020000000000000000000000000000000000000000000000000000100000000000000000000000000004000000200000000002000000000000000000000000000000040000000000000000000000000000000400000000000000000000000000000000000000000000000000000000",
      "type": "0x2",
      "effectiveGasPrice": "0xb2d05efc"
    },
    {
      "transactionHash": "0xbed8016e1728091250a54cde68acee226069bbbcc11107ee65ff93e0a77cd05a",
      "transactionIndex": "0x9",
      "blockHash": "0x23c7c7e8728cb52b14d9ea3ad6618b99cbe0ce52a689a74b07ea9c603819e4f8",
      "blockNumber": "0x8a7a79",
      "from": "0x7824A63A4051eB44723AAae83398c847e51187FA",
      "to": "0x177Ad3aD54715A84Fa906705c7F7660444d7d6e1",
      "cumulativeGasUsed": "0x594af",
      "gasUsed": "0x86d8",
      "contractAddress": null,
      "logs": [
        {
          "address": "0x177Ad3aD54715A84Fa906705c7F7660444d7d6e1",
          "topics": [
            "0xddf252ad1be2c89b69c2b068fc378daa952ba7f163c4a11628f55a4df523b3ef",
            "0x0000000000000000000000007824a63a4051eb44723aaae83398c847e51187fa",
            "0x000000000000000000000000caa8615677edbaacc857f25bc669bc4a776642f5"
          ],
          "data": "0x0000000000000000000000000000000000000000000000008ac7230489e80000",
          "blockHash": "0x23c7c7e8728cb52b14d9ea3ad6618b99cbe0ce52a689a74b07ea9c603819e4f8",
          "blockNumber": "0x8a7a79",
          "transactionHash": "0xbed8016e1728091250a54cde68acee226069bbbcc11107ee65ff93e0a77cd05a",
          "transactionIndex": "0x9",
          "logIndex": "0x8",
          "removed": false
        }
      ],
      "status": "0x1",
      "logsBloom": "0x00000000000000000000000000000100000000000000000000000000000000000000000000000000000000000000000000000200000000000000400000000000000000000000000000000008000000000000000000000000000000000000000000000000000000000000000000000000000000000000000080000010000000000000000000000000000000000000000000020000000000000000000000000000000000008000000000000000000000000000000000000000000004000000200000000002000000000000000000000000000000040000000000000000000000000000000000000000000000000000000000000000000000000000000000000000",
      "type": "0x2",
      "effectiveGasPrice": "0xb2d05efc"
    },
    {
      "transactionHash": "0x2a8b9cea87408eed3bdb393b9e449c3cc424f530f2e5b74b69f07cc0a8a49f9b",
      "transactionIndex": "0xa",
      "blockHash": "0x23c7c7e8728cb52b14d9ea3ad6618b99cbe0ce52a689a74b07ea9c603819e4f8",
      "blockNumber": "0x8a7a79",
      "from": "0x7824A63A4051eB44723AAae83398c847e51187FA",
      "to": "0x177Ad3aD54715A84Fa906705c7F7660444d7d6e1",
      "cumulativeGasUsed": "0x61b87",
      "gasUsed": "0x86d8",
      "contractAddress": null,
      "logs": [
        {
          "address": "0x177Ad3aD54715A84Fa906705c7F7660444d7d6e1",
          "topics": [
            "0xddf252ad1be2c89b69c2b068fc378daa952ba7f163c4a11628f55a4df523b3ef",
            "0x0000000000000000000000007824a63a4051eb44723aaae83398c847e51187fa",
            "0x000000000000000000000000f9e2d4b265fef348e05aff35658b85ac4f45d6ef"
          ],
          "data": "0x0000000000000000000000000000000000000000000000008ac7230489e80000",
          "blockHash": "0x23c7c7e8728cb52b14d9ea3ad6618b99cbe0ce52a689a74b07ea9c603819e4f8",
          "blockNumber": "0x8a7a79",
          "transactionHash": "0x2a8b9cea87408eed3bdb393b9e449c3cc424f530f2e5b74b69f07cc0a8a49f9b",
          "transactionIndex": "0xa",
          "logIndex": "0x9",
          "removed": false
        }
      ],
      "status": "0x1",
      "logsBloom": "0x00001000000000000000000000000000000000000000000000000000000000000000000000000000000000000000000000000200004000000000400000000000000000000000000000000008000000000000000000000000000000000000000000000000000000000000000000000000000000000000000000000010000000000000000000000000000000000000000000020000000000000000000000000000000000000000000000000000000000000000000000000000000004000000200000000002000000000000000000000040000000040000000000000000000000000000000000000000000000000000000000000000000000000000000000000000",
      "type": "0x2",
      "effectiveGasPrice": "0xb2d05efc"
    },
    {
      "transactionHash": "0x671f7553732e17b05509e3514580f5e40bf282d2f59b90d7904a8088ebd02bd9",
      "transactionIndex": "0xb",
      "blockHash": "0x23c7c7e8728cb52b14d9ea3ad6618b99cbe0ce52a689a74b07ea9c603819e4f8",
      "blockNumber": "0x8a7a79",
      "from": "0x7824A63A4051eB44723AAae83398c847e51187FA",
      "to": "0x177Ad3aD54715A84Fa906705c7F7660444d7d6e1",
      "cumulativeGasUsed": "0x6a25f",
      "gasUsed": "0x86d8",
      "contractAddress": null,
      "logs": [
        {
          "address": "0x177Ad3aD54715A84Fa906705c7F7660444d7d6e1",
          "topics": [
            "0xddf252ad1be2c89b69c2b068fc378daa952ba7f163c4a11628f55a4df523b3ef",
            "0x0000000000000000000000007824a63a4051eb44723aaae83398c847e51187fa",
            "0x000000000000000000000000b38449e8bbc51580f85399a58480c3a79b634cdc"
          ],
          "data": "0x0000000000000000000000000000000000000000000000008ac7230489e80000",
          "blockHash": "0x23c7c7e8728cb52b14d9ea3ad6618b99cbe0ce52a689a74b07ea9c603819e4f8",
          "blockNumber": "0x8a7a79",
          "transactionHash": "0x671f7553732e17b05509e3514580f5e40bf282d2f59b90d7904a8088ebd02bd9",
          "transactionIndex": "0xb",
          "logIndex": "0xa",
          "removed": false
        }
      ],
      "status": "0x1",
      "logsBloom": "0x00000000000000000000000000000000000000000000000000000000000000000000000000000000000000000000000000000200000000000000400000000000000000000000000000000008000000000000000000000000000000000000000000000004000000000000000000000000000000000000000008000010000000000000000000000000000000000000000000020000000000000000000000000000000000000000000000000000000000000000000000000000000004008000200000000002000000000000000000000000000000040000000000000000000000000000000000000000000000000000000000000000000000000000000000000000",
      "type": "0x2",
      "effectiveGasPrice": "0xb2d05efc"
    },
    {
      "transactionHash": "0xb2e0d251c075bd42baae02d2caec62e8a1798cd42fb8a3df0011121e3562ff89",
      "transactionIndex": "0xc",
      "blockHash": "0x23c7c7e8728cb52b14d9ea3ad6618b99cbe0ce52a689a74b07ea9c603819e4f8",
      "blockNumber": "0x8a7a79",
      "from": "0x7824A63A4051eB44723AAae83398c847e51187FA",
      "to": "0x177Ad3aD54715A84Fa906705c7F7660444d7d6e1",
      "cumulativeGasUsed": "0x72937",
      "gasUsed": "0x86d8",
      "contractAddress": null,
      "logs": [
        {
          "address": "0x177Ad3aD54715A84Fa906705c7F7660444d7d6e1",
          "topics": [
            "0xddf252ad1be2c89b69c2b068fc378daa952ba7f163c4a11628f55a4df523b3ef",
            "0x0000000000000000000000007824a63a4051eb44723aaae83398c847e51187fa",
            "0x00000000000000000000000001315ab5d2e074285dc38d7d79e5b5a14c69fa8a"
          ],
          "data": "0x0000000000000000000000000000000000000000000000008ac7230489e80000",
          "blockHash": "0x23c7c7e8728cb52b14d9ea3ad6618b99cbe0ce52a689a74b07ea9c603819e4f8",
          "blockNumber": "0x8a7a79",
          "transactionHash": "0xb2e0d251c075bd42baae02d2caec62e8a1798cd42fb8a3df0011121e3562ff89",
          "transactionIndex": "0xc",
          "logIndex": "0xb",
          "removed": false
        }
      ],
      "status": "0x1",
      "logsBloom": "0x00000000000000000000000000000000000000000000000000000000000000000000000000000000000000000000000000000200000000000000400000000000000000000000000000000008000000000000000000000000000000000000000000000000000000000000000000000000000000000000000000000010000000000000000020000000000000000000000000020000000000000000000000000000000000000000000000000000000000000000000000000000000004400000200000000002000000000000000000000000000000040000000000000000000000000000200000000000000000000000000000000000000000000000000000000000",
      "type": "0x2",
      "effectiveGasPrice": "0xb2d05efc"
    },
    {
      "transactionHash": "0xe374b71e19e6639f619b3bc3850de5d382af83a22ead68c1550f2f35f1a771b4",
      "transactionIndex": "0xd",
      "blockHash": "0x23c7c7e8728cb52b14d9ea3ad6618b99cbe0ce52a689a74b07ea9c603819e4f8",
      "blockNumber": "0x8a7a79",
      "from": "0x7824A63A4051eB44723AAae83398c847e51187FA",
      "to": "0x177Ad3aD54715A84Fa906705c7F7660444d7d6e1",
      "cumulativeGasUsed": "0x7b00f",
      "gasUsed": "0x86d8",
      "contractAddress": null,
      "logs": [
        {
          "address": "0x177Ad3aD54715A84Fa906705c7F7660444d7d6e1",
          "topics": [
            "0xddf252ad1be2c89b69c2b068fc378daa952ba7f163c4a11628f55a4df523b3ef",
            "0x0000000000000000000000007824a63a4051eb44723aaae83398c847e51187fa",
            "0x000000000000000000000000bc23f89d18f702c34d655079a144037cebd9257f"
          ],
          "data": "0x0000000000000000000000000000000000000000000000008ac7230489e80000",
          "blockHash": "0x23c7c7e8728cb52b14d9ea3ad6618b99cbe0ce52a689a74b07ea9c603819e4f8",
          "blockNumber": "0x8a7a79",
          "transactionHash": "0xe374b71e19e6639f619b3bc3850de5d382af83a22ead68c1550f2f35f1a771b4",
          "transactionIndex": "0xd",
          "logIndex": "0xc",
          "removed": false
        }
      ],
      "status": "0x1",
      "logsBloom": "0x00000000000000000000000000000000000001000000000000000000000000000000000000000000000000000000000000000200000000000000400000000000000000000000000000000008000000000000000000000000000000000000000000000000000000000000000020000000000000000000000000000010000000000000000000000000000000000000000000020000000000000000000000000000000000000000000000000000004000000000000000000000000004000000200000000002000000000000000000000000000000040000000000000000000000000000000000000000000000000000000000000000000000000000000000000000",
      "type": "0x2",
      "effectiveGasPrice": "0xb2d05efc"
    },
    {
      "transactionHash": "0x410d5ba6b0221f62d49b98ca243d800aec01f815bbfb4aacbf524acbdcf05ed7",
      "transactionIndex": "0x1",
      "blockHash": "0x43bf721f119f6e682b8cae70fd04b7e6f5498c4f5bc7546f36d90b2b3ac88edf",
      "blockNumber": "0x8a7a7a",
      "from": "0x7824A63A4051eB44723AAae83398c847e51187FA",
      "to": "0x177Ad3aD54715A84Fa906705c7F7660444d7d6e1",
      "cumulativeGasUsed": "0x1323b",
      "gasUsed": "0x86d8",
      "contractAddress": null,
      "logs": [
        {
          "address": "0x177Ad3aD54715A84Fa906705c7F7660444d7d6e1",
          "topics": [
            "0xddf252ad1be2c89b69c2b068fc378daa952ba7f163c4a11628f55a4df523b3ef",
            "0x0000000000000000000000007824a63a4051eb44723aaae83398c847e51187fa",
            "0x0000000000000000000000000c96b5ccc9dc8f19df8e2a5c15efdb2dc20d70f9"
          ],
          "data": "0x0000000000000000000000000000000000000000000000008ac7230489e80000",
          "blockHash": "0x43bf721f119f6e682b8cae70fd04b7e6f5498c4f5bc7546f36d90b2b3ac88edf",
          "blockNumber": "0x8a7a7a",
          "transactionHash": "0x410d5ba6b0221f62d49b98ca243d800aec01f815bbfb4aacbf524acbdcf05ed7",
          "transactionIndex": "0x1",
          "logIndex": "0x0",
          "removed": false
        }
      ],
      "status": "0x1",
      "logsBloom": "0x00000000000000000000000000000000000000000000000000000000000000000000000000000000000000000000000000000200000000000000400000000000000000000000000000000008000000000000000000000000000000000000000000000000000000000000000000000000000000000000000000000010000000000000000000000000000000000000000000020000000000000000001000000000000008000000000000000000000000000000000000000000000004000000200000000002000000000000000000000000000000040000000000000000000000000000000000000000000000000000000000000000000000000000000000000020",
      "type": "0x2",
      "effectiveGasPrice": "0xb2d05efc"
    },
    {
      "transactionHash": "0x94d74894065b9150521d0a01c7c8334391ba3e78f2440e9d37d307910fd4f312",
      "transactionIndex": "0x2",
      "blockHash": "0x43bf721f119f6e682b8cae70fd04b7e6f5498c4f5bc7546f36d90b2b3ac88edf",
      "blockNumber": "0x8a7a7a",
      "from": "0x7824A63A4051eB44723AAae83398c847e51187FA",
      "to": "0x177Ad3aD54715A84Fa906705c7F7660444d7d6e1",
      "cumulativeGasUsed": "0x1b913",
      "gasUsed": "0x86d8",
      "contractAddress": null,
      "logs": [
        {
          "address": "0x177Ad3aD54715A84Fa906705c7F7660444d7d6e1",
          "topics": [
            "0xddf252ad1be2c89b69c2b068fc378daa952ba7f163c4a11628f55a4df523b3ef",
            "0x0000000000000000000000007824a63a4051eb44723aaae83398c847e51187fa",
            "0x000000000000000000000000a4f9e407751be75af10fe5994860406d2bd45efb"
          ],
          "data": "0x0000000000000000000000000000000000000000000000008ac7230489e80000",
          "blockHash": "0x43bf721f119f6e682b8cae70fd04b7e6f5498c4f5bc7546f36d90b2b3ac88edf",
          "blockNumber": "0x8a7a7a",
          "transactionHash": "0x94d74894065b9150521d0a01c7c8334391ba3e78f2440e9d37d307910fd4f312",
          "transactionIndex": "0x2",
          "logIndex": "0x1",
          "removed": false
        }
      ],
      "status": "0x1",
      "logsBloom": "0x00000001000000000000000000000000000002000000000000000000000000000000000000000000000000000000000000000200000000000000400000000000000000000000000000000008000000000000000000000000000000000000000000000000000000000000000000000000000000000000000000000010000000000000000000000000000000000000000000020000000000000000000000000000000000000000000000000000000000000000000000000000000004000000200000000002000000000000000000000000000000040000000000200000000000000000000000000000000000000000000000000000000000000000000000000000",
      "type": "0x2",
      "effectiveGasPrice": "0xb2d05efc"
    },
    {
      "transactionHash": "0x498362bb720c187a902326c6be252fe688dd386a99b50a4745e86d29c83019ad",
      "transactionIndex": "0x3",
      "blockHash": "0x43bf721f119f6e682b8cae70fd04b7e6f5498c4f5bc7546f36d90b2b3ac88edf",
      "blockNumber": "0x8a7a7a",
      "from": "0x7824A63A4051eB44723AAae83398c847e51187FA",
      "to": "0x177Ad3aD54715A84Fa906705c7F7660444d7d6e1",
      "cumulativeGasUsed": "0x23feb",
      "gasUsed": "0x86d8",
      "contractAddress": null,
      "logs": [
        {
          "address": "0x177Ad3aD54715A84Fa906705c7F7660444d7d6e1",
          "topics": [
            "0xddf252ad1be2c89b69c2b068fc378daa952ba7f163c4a11628f55a4df523b3ef",
            "0x0000000000000000000000007824a63a4051eb44723aaae83398c847e51187fa",
            "0x0000000000000000000000006ecc59c35e3951201c803b821bfa801349edf48f"
          ],
          "data": "0x0000000000000000000000000000000000000000000000008ac7230489e80000",
          "blockHash": "0x43bf721f119f6e682b8cae70fd04b7e6f5498c4f5bc7546f36d90b2b3ac88edf",
          "blockNumber": "0x8a7a7a",
          "transactionHash": "0x498362bb720c187a902326c6be252fe688dd386a99b50a4745e86d29c83019ad",
          "transactionIndex": "0x3",
          "logIndex": "0x2",
          "removed": false
        }
      ],
      "status": "0x1",
      "logsBloom": "0x00000000000000000000000000000000000000000000000000000000000000000000000000000000000000000000000000000200000000000000400020000000000000000000000000000008000000000000000000000000000000000000000000000000000000000000000000000000000000000000000000000010000000000000000000000000100000000000000000020000000000010000000000000000000000000000000000000000000000000000000000000000000004000000200000000002000000000000000000000000000000040000000000000000000000000000000000000000000000000000000000000000000000000000000000000000",
      "type": "0x2",
      "effectiveGasPrice": "0xb2d05efc"
    },
    {
      "transactionHash": "0x4ecc05cb07114fdd32750d4836f31deb1e70f06bd3db33a3c618695a0be62415",
      "transactionIndex": "0x4",
      "blockHash": "0x43bf721f119f6e682b8cae70fd04b7e6f5498c4f5bc7546f36d90b2b3ac88edf",
      "blockNumber": "0x8a7a7a",
      "from": "0x7824A63A4051eB44723AAae83398c847e51187FA",
      "to": "0x177Ad3aD54715A84Fa906705c7F7660444d7d6e1",
      "cumulativeGasUsed": "0x2c6c3",
      "gasUsed": "0x86d8",
      "contractAddress": null,
      "logs": [
        {
          "address": "0x177Ad3aD54715A84Fa906705c7F7660444d7d6e1",
          "topics": [
            "0xddf252ad1be2c89b69c2b068fc378daa952ba7f163c4a11628f55a4df523b3ef",
            "0x0000000000000000000000007824a63a4051eb44723aaae83398c847e51187fa",
            "0x0000000000000000000000007e4324afa7aeb899b0e4d98c2745083fd4ede2db"
          ],
          "data": "0x0000000000000000000000000000000000000000000000008ac7230489e80000",
          "blockHash": "0x43bf721f119f6e682b8cae70fd04b7e6f5498c4f5bc7546f36d90b2b3ac88edf",
          "blockNumber": "0x8a7a7a",
          "transactionHash": "0x4ecc05cb07114fdd32750d4836f31deb1e70f06bd3db33a3c618695a0be62415",
          "transactionIndex": "0x4",
          "logIndex": "0x3",
          "removed": false
        }
      ],
      "status": "0x1",
      "logsBloom": "0x00000000000000000000000000000000000000000000000000000040000000000400000000000000000000000000000000000200000000000000400000000000000000000000000000000008000000000000000000000080000000000000000000000000000000000000000000000000000000000000000000000010000000000000000000000000000000000000000000020000000000000000000000000000000000000000000000000000000000000000000000000000000004000000200000000002000000000000000000000000000000040000000000000000000000000000000000000000000000000000000000000000000000000000000000000000",
      "type": "0x2",
      "effectiveGasPrice": "0xb2d05efc"
    },
    {
      "transactionHash": "0x9d713e1124931fafa9e7a59e8917d5fb86a208768808860c703b963d0b013d14",
      "transactionIndex": "0x5",
      "blockHash": "0x43bf721f119f6e682b8cae70fd04b7e6f5498c4f5bc7546f36d90b2b3ac88edf",
      "blockNumber": "0x8a7a7a",
      "from": "0x7824A63A4051eB44723AAae83398c847e51187FA",
      "to": "0x177Ad3aD54715A84Fa906705c7F7660444d7d6e1",
      "cumulativeGasUsed": "0x34d9b",
      "gasUsed": "0x86d8",
      "contractAddress": null,
      "logs": [
        {
          "address": "0x177Ad3aD54715A84Fa906705c7F7660444d7d6e1",
          "topics": [
            "0xddf252ad1be2c89b69c2b068fc378daa952ba7f163c4a11628f55a4df523b3ef",
            "0x0000000000000000000000007824a63a4051eb44723aaae83398c847e51187fa",
            "0x0000000000000000000000005fca8fadd2586f1bda506a0e36d7196a3a60ba9d"
          ],
          "data": "0x0000000000000000000000000000000000000000000000008ac7230489e80000",
          "blockHash": "0x43bf721f119f6e682b8cae70fd04b7e6f5498c4f5bc7546f36d90b2b3ac88edf",
          "blockNumber": "0x8a7a7a",
          "transactionHash": "0x9d713e1124931fafa9e7a59e8917d5fb86a208768808860c703b963d0b013d14",
          "transactionIndex": "0x5",
          "logIndex": "0x4",
          "removed": false
        }
      ],
      "status": "0x1",
      "logsBloom": "0x00000000000000000000000000000000000000000000000000000000000000000000000000000000000000000000000000000200000000000000c00000000000000000000000000000000008000000000000000000000000000000000000000000000000000000000000000000000000000000000000000000000010000000000000000000000000000000000000000000020000000000000000000000000000000000000000000000000000000000000000000000000000000004000000200000000002002000000000000000000000000000040000000000000000000000000000000000800000000000000000000000000000000000000000000000000000",
      "type": "0x2",
      "effectiveGasPrice": "0xb2d05efc"
    },
    {
      "transactionHash": "0xd5f3eedc5657b4bdfb766f57d55a783f4dbdd887899581bec8073a6f192faef4",
      "transactionIndex": "0x6",
      "blockHash": "0x43bf721f119f6e682b8cae70fd04b7e6f5498c4f5bc7546f36d90b2b3ac88edf",
      "blockNumber": "0x8a7a7a",
      "from": "0x7824A63A4051eB44723AAae83398c847e51187FA",
      "to": "0x177Ad3aD54715A84Fa906705c7F7660444d7d6e1",
      "cumulativeGasUsed": "0x3d473",
      "gasUsed": "0x86d8",
      "contractAddress": null,
      "logs": [
        {
          "address": "0x177Ad3aD54715A84Fa906705c7F7660444d7d6e1",
          "topics": [
            "0xddf252ad1be2c89b69c2b068fc378daa952ba7f163c4a11628f55a4df523b3ef",
            "0x0000000000000000000000007824a63a4051eb44723aaae83398c847e51187fa",
            "0x000000000000000000000000a5216c6f685c2b8a678a704107760be652665234"
          ],
          "data": "0x0000000000000000000000000000000000000000000000008ac7230489e80000",
          "blockHash": "0x43bf721f119f6e682b8cae70fd04b7e6f5498c4f5bc7546f36d90b2b3ac88edf",
          "blockNumber": "0x8a7a7a",
          "transactionHash": "0xd5f3eedc5657b4bdfb766f57d55a783f4dbdd887899581bec8073a6f192faef4",
          "transactionIndex": "0x6",
          "logIndex": "0x5",
          "removed": false
        }
      ],
      "status": "0x1",
      "logsBloom": "0x00000000000000000000000000000000000000000000000000000000000000000000000000000000000000000000000000000200000000000000400000000000000000000000000000000008000000000000000000000000000000000000000000000000000000000000000000000000000000000000000000000010000000000000000000000000000000000000000000020000000000000000000000000000000000000000040000000000200000000000000000000000000004000000280000000002000000000000000000000000000000040000000000000000000000000000000000000000000000000000000000000000000000000000000000000000",
      "type": "0x2",
      "effectiveGasPrice": "0xb2d05efc"
    },
    {
      "transactionHash": "0xb9dee656ed276a60dc817e6863b34c71f8f8b6ad1410f9935ff6e5f791d9fd64",
      "transactionIndex": "0x7",
      "blockHash": "0x43bf721f119f6e682b8cae70fd04b7e6f5498c4f5bc7546f36d90b2b3ac88edf",
      "blockNumber": "0x8a7a7a",
      "from": "0x7824A63A4051eB44723AAae83398c847e51187FA",
      "to": "0x177Ad3aD54715A84Fa906705c7F7660444d7d6e1",
      "cumulativeGasUsed": "0x45b4b",
      "gasUsed": "0x86d8",
      "contractAddress": null,
      "logs": [
        {
          "address": "0x177Ad3aD54715A84Fa906705c7F7660444d7d6e1",
          "topics": [
            "0xddf252ad1be2c89b69c2b068fc378daa952ba7f163c4a11628f55a4df523b3ef",
            "0x0000000000000000000000007824a63a4051eb44723aaae83398c847e51187fa",
            "0x000000000000000000000000f5d9e0cf7b63e0c2d8a7e830fdce539bb3d0848d"
          ],
          "data": "0x0000000000000000000000000000000000000000000000008ac7230489e80000",
          "blockHash": "0x43bf721f119f6e682b8cae70fd04b7e6f5498c4f5bc7546f36d90b2b3ac88edf",
          "blockNumber": "0x8a7a7a",
          "transactionHash": "0xb9dee656ed276a60dc817e6863b34c71f8f8b6ad1410f9935ff6e5f791d9fd64",
          "transactionIndex": "0x7",
          "logIndex": "0x6",
          "removed": false
        }
      ],
      "status": "0x1",
      "logsBloom": "0x00000000000000000000000000000000000000000000000000000000000000000000000000000000000000000000000000000200000000000000400000000000000000000000000000000008000100000000000000000000000000000000000000000000000000000000000000000000000000000000000000000010000000000000000000000000000000000000000000020000000000000000000000000000000000000000200000000000000000000000000000000000000004000010200000000002000000000000000000000000000000040000000000000000000000000000000000000000000000000000000000000000000000000000000000000000",
      "type": "0x2",
      "effectiveGasPrice": "0xb2d05efc"
    },
    {
      "transactionHash": "0x6bcbbc526e59ebebcfeb73b82c2b294d61d9f7cf817b8a693ba4e66a684c99e5",
      "transactionIndex": "0x1",
      "blockHash": "0xb863843d02b2439b5be5e775d0a57cf612530b3a629db9be0f2884d1ad942146",
      "blockNumber": "0x8a7a7b",
      "from": "0x7824A63A4051eB44723AAae83398c847e51187FA",
      "to": "0x177Ad3aD54715A84Fa906705c7F7660444d7d6e1",
      "cumulativeGasUsed": "0x1323b",
      "gasUsed": "0x86d8",
      "contractAddress": null,
      "logs": [
        {
          "address": "0x177Ad3aD54715A84Fa906705c7F7660444d7d6e1",
          "topics": [
            "0xddf252ad1be2c89b69c2b068fc378daa952ba7f163c4a11628f55a4df523b3ef",
            "0x0000000000000000000000007824a63a4051eb44723aaae83398c847e51187fa",
            "0x0000000000000000000000003468e001c7592f8759a0753c9680931059836641"
          ],
          "data": "0x0000000000000000000000000000000000000000000000008ac7230489e80000",
          "blockHash": "0xb863843d02b2439b5be5e775d0a57cf612530b3a629db9be0f2884d1ad942146",
          "blockNumber": "0x8a7a7b",
          "transactionHash": "0x6bcbbc526e59ebebcfeb73b82c2b294d61d9f7cf817b8a693ba4e66a684c99e5",
          "transactionIndex": "0x1",
          "logIndex": "0x0",
          "removed": false
        }
      ],
      "status": "0x1",
      "logsBloom": "0x00000000000000000000000000000000000000000000000000000000000000000000040000800000000000000000000000000200000000000000400000000000000000000000000000000008000000000000000000000000000000000000000000000000000000000000000000000000000000000000000000000010000000000000000000000000000000000000000000020000000000000000000000000000000000000000000000000000000000000000000008000000000004000000200000000002000000000000000000000000000000040000000000000000000000000000000000000000000000000000000000000000000000000000000000000000",
      "type": "0x2",
      "effectiveGasPrice": "0xb2d05efc"
    }
  ],
  "libraries": [],
  "pending": [],
  "returns": {},
  "timestamp": 1709953192,
  "chain": 11155420,
  "multi": false,
  "commit": "23624bb"
}