{
  "transactions": [
    {
      "hash": "0x7136171b473db95bfaec2f7c646f77d730815f395edd2c406def137bbebe933d",
      "transactionType": "CALL",
      "contractName": null,
      "contractAddress": "0x177Ad3aD54715A84Fa906705c7F7660444d7d6e1",
      "function": "transfer(address,uint256)",
      "arguments": [
        "0x6Ecc59c35e3951201C803b821BfA801349eDF48f",
        "100000000000000000000"
      ],
      "transaction": {
        "type": "0x02",
        "from": "0x7824a63a4051eb44723aaae83398c847e51187fa",
        "to": "0x177ad3ad54715a84fa906705c7f7660444d7d6e1",
        "gas": "0xba51",
        "value": "0x0",
        "data": "0xa9059cbb0000000000000000000000006ecc59c35e3951201c803b821bfa801349edf48f0000000000000000000000000000000000000000000000056bc75e2d63100000",
        "nonce": "0x6e",
        "accessList": []
      },
      "additionalContracts": [],
      "isFixedGasLimit": false
    },
    {
      "hash": "0x04197150825a980961e6e39dce5d175c793c010a4733062342cdb3f2517f8c29",
      "transactionType": "CALL",
      "contractName": null,
      "contractAddress": "0x177Ad3aD54715A84Fa906705c7F7660444d7d6e1",
      "function": "transfer(address,uint256)",
      "arguments": [
        "0x7e4324afA7AeB899B0e4d98C2745083fD4eDE2Db",
        "100000000000000000000"
      ],
      "transaction": {
        "type": "0x02",
        "from": "0x7824a63a4051eb44723aaae83398c847e51187fa",
        "to": "0x177ad3ad54715a84fa906705c7f7660444d7d6e1",
        "gas": "0xba51",
        "value": "0x0",
        "data": "0xa9059cbb0000000000000000000000007e4324afa7aeb899b0e4d98c2745083fd4ede2db0000000000000000000000000000000000000000000000056bc75e2d63100000",
        "nonce": "0x6f",
        "accessList": []
      },
      "additionalContracts": [],
      "isFixedGasLimit": false
    },
    {
      "hash": "0x55dbcbf83646d88d5afbfab098d8449b55c7b99302896164f84610b1057652fa",
      "transactionType": "CALL",
      "contractName": null,
      "contractAddress": "0x177Ad3aD54715A84Fa906705c7F7660444d7d6e1",
      "function": "transfer(address,uint256)",
      "arguments": [
        "0x5FcA8FADd2586f1BDA506A0E36d7196A3A60bA9d",
        "100000000000000000000"
      ],
      "transaction": {
        "type": "0x02",
        "from": "0x7824a63a4051eb44723aaae83398c847e51187fa",
        "to": "0x177ad3ad54715a84fa906705c7f7660444d7d6e1",
        "gas": "0xba51",
        "value": "0x0",
        "data": "0xa9059cbb0000000000000000000000005fca8fadd2586f1bda506a0e36d7196a3a60ba9d0000000000000000000000000000000000000000000000056bc75e2d63100000",
        "nonce": "0x70",
        "accessList": []
      },
      "additionalContracts": [],
      "isFixedGasLimit": false
    },
    {
      "hash": "0x9617c4c921c716fad599b6b1a883548ce87279070d141523d13fb235699048a5",
      "transactionType": "CALL",
      "contractName": null,
      "contractAddress": "0x177Ad3aD54715A84Fa906705c7F7660444d7d6e1",
      "function": "transfer(address,uint256)",
      "arguments": [
        "0xA5216C6F685c2b8a678A704107760Be652665234",
        "100000000000000000000"
      ],
      "transaction": {
        "type": "0x02",
        "from": "0x7824a63a4051eb44723aaae83398c847e51187fa",
        "to": "0x177ad3ad54715a84fa906705c7f7660444d7d6e1",
        "gas": "0xba51",
        "value": "0x0",
        "data": "0xa9059cbb000000000000000000000000a5216c6f685c2b8a678a704107760be6526652340000000000000000000000000000000000000000000000056bc75e2d63100000",
        "nonce": "0x71",
        "accessList": []
      },
      "additionalContracts": [],
      "isFixedGasLimit": false
    },
    {
      "hash": "0xddda478858b05ed9d6162a92d0afb12a857fccb70a37f8d453a8c2f2627dd7f3",
      "transactionType": "CALL",
      "contractName": null,
      "contractAddress": "0x177Ad3aD54715A84Fa906705c7F7660444d7d6e1",
      "function": "transfer(address,uint256)",
      "arguments": [
        "0xf5d9E0cF7b63E0C2D8A7E830fdCe539bB3D0848D",
        "100000000000000000000"
      ],
      "transaction": {
        "type": "0x02",
        "from": "0x7824a63a4051eb44723aaae83398c847e51187fa",
        "to": "0x177ad3ad54715a84fa906705c7f7660444d7d6e1",
        "gas": "0xba51",
        "value": "0x0",
        "data": "0xa9059cbb000000000000000000000000f5d9e0cf7b63e0c2d8a7e830fdce539bb3d0848d0000000000000000000000000000000000000000000000056bc75e2d63100000",
        "nonce": "0x72",
        "accessList": []
      },
      "additionalContracts": [],
      "isFixedGasLimit": false
    },
    {
      "hash": "0x73e16467488a0471eb2246385be0ab53f3e2e5429464c1f64aa648deab814ac1",
      "transactionType": "CALL",
      "contractName": null,
      "contractAddress": "0x177Ad3aD54715A84Fa906705c7F7660444d7d6e1",
      "function": "transfer(address,uint256)",
      "arguments": [
        "0x3468E001c7592F8759a0753C9680931059836641",
        "100000000000000000000"
      ],
      "transaction": {
        "type": "0x02",
        "from": "0x7824a63a4051eb44723aaae83398c847e51187fa",
        "to": "0x177ad3ad54715a84fa906705c7f7660444d7d6e1",
        "gas": "0xba51",
        "value": "0x0",
        "data": "0xa9059cbb0000000000000000000000003468e001c7592f8759a0753c96809310598366410000000000000000000000000000000000000000000000056bc75e2d63100000",
        "nonce": "0x73",
        "accessList": []
      },
      "additionalContracts": [],
      "isFixedGasLimit": false
    }
  ],
  "receipts": [
    {
      "transactionHash": "0x7136171b473db95bfaec2f7c646f77d730815f395edd2c406def137bbebe933d",
      "transactionIndex": "0x1",
      "blockHash": "0xefd200555253043a663887c1085e4228063e05d72dddda39d396c0baab138a79",
      "blockNumber": "0x8a7b35",
      "from": "0x7824A63A4051eB44723AAae83398c847e51187FA",
      "to": "0x177Ad3aD54715A84Fa906705c7F7660444d7d6e1",
      "cumulativeGasUsed": "0x13247",
      "gasUsed": "0x86e4",
      "contractAddress": null,
      "logs": [
        {
          "address": "0x177Ad3aD54715A84Fa906705c7F7660444d7d6e1",
          "topics": [
            "0xddf252ad1be2c89b69c2b068fc378daa952ba7f163c4a11628f55a4df523b3ef",
            "0x0000000000000000000000007824a63a4051eb44723aaae83398c847e51187fa",
            "0x0000000000000000000000006ecc59c35e3951201c803b821bfa801349edf48f"
          ],
          "data": "0x0000000000000000000000000000000000000000000000056bc75e2d63100000",
          "blockHash": "0xefd200555253043a663887c1085e4228063e05d72dddda39d396c0baab138a79",
          "blockNumber": "0x8a7b35",
          "transactionHash": "0x7136171b473db95bfaec2f7c646f77d730815f395edd2c406def137bbebe933d",
          "transactionIndex": "0x1",
          "logIndex": "0x0",
          "removed": false
        }
      ],
      "status": "0x1",
      "logsBloom": "0x00000000000000000000000000000000000000000000000000000000000000000000000000000000000000000000000000000200000000000000400020000000000000000000000000000008000000000000000000000000000000000000000000000000000000000000000000000000000000000000000000000010000000000000000000000000100000000000000000020000000000010000000000000000000000000000000000000000000000000000000000000000000004000000200000000002000000000000000000000000000000040000000000000000000000000000000000000000000000000000000000000000000000000000000000000000",
      "type": "0x2",
      "effectiveGasPrice": "0xb2d05efc"
    },
    {
      "transactionHash": "0x04197150825a980961e6e39dce5d175c793c010a4733062342cdb3f2517f8c29",
      "transactionIndex": "0x2",
      "blockHash": "0xefd200555253043a663887c1085e4228063e05d72dddda39d396c0baab138a79",
      "blockNumber": "0x8a7b35",
      "from": "0x7824A63A4051eB44723AAae83398c847e51187FA",
      "to": "0x177Ad3aD54715A84Fa906705c7F7660444d7d6e1",
      "cumulativeGasUsed": "0x1b92b",
      "gasUsed": "0x86e4",
      "contractAddress": null,
      "logs": [
        {
          "address": "0x177Ad3aD54715A84Fa906705c7F7660444d7d6e1",
          "topics": [
            "0xddf252ad1be2c89b69c2b068fc378daa952ba7f163c4a11628f55a4df523b3ef",
            "0x0000000000000000000000007824a63a4051eb44723aaae83398c847e51187fa",
            "0x0000000000000000000000007e4324afa7aeb899b0e4d98c2745083fd4ede2db"
          ],
          "data": "0x0000000000000000000000000000000000000000000000056bc75e2d63100000",
          "blockHash": "0xefd200555253043a663887c1085e4228063e05d72dddda39d396c0baab138a79",
          "blockNumber": "0x8a7b35",
          "transactionHash": "0x04197150825a980961e6e39dce5d175c793c010a4733062342cdb3f2517f8c29",
          "transactionIndex": "0x2",
          "logIndex": "0x1",
          "removed": false
        }
      ],
      "status": "0x1",
      "logsBloom": "0x00000000000000000000000000000000000000000000000000000040000000000400000000000000000000000000000000000200000000000000400000000000000000000000000000000008000000000000000000000080000000000000000000000000000000000000000000000000000000000000000000000010000000000000000000000000000000000000000000020000000000000000000000000000000000000000000000000000000000000000000000000000000004000000200000000002000000000000000000000000000000040000000000000000000000000000000000000000000000000000000000000000000000000000000000000000",
      "type": "0x2",
      "effectiveGasPrice": "0xb2d05efc"
    },
    {
      "transactionHash": "0x55dbcbf83646d88d5afbfab098d8449b55c7b99302896164f84610b1057652fa",
      "transactionIndex": "0x1",
      "blockHash": "0xfc9958cd45d756f1a7c9324a549c00396c1dc903348873059e503c71768fc70a",
      "blockNumber": "0x8a7b37",
      "from": "0x7824A63A4051eB44723AAae83398c847e51187FA",
      "to": "0x177Ad3aD54715A84Fa906705c7F7660444d7d6e1",
      "cumulativeGasUsed": "0x13247",
      "gasUsed": "0x86e4",
      "contractAddress": null,
      "logs": [
        {
          "address": "0x177Ad3aD54715A84Fa906705c7F7660444d7d6e1",
          "topics": [
            "0xddf252ad1be2c89b69c2b068fc378daa952ba7f163c4a11628f55a4df523b3ef",
            "0x0000000000000000000000007824a63a4051eb44723aaae83398c847e51187fa",
            "0x0000000000000000000000005fca8fadd2586f1bda506a0e36d7196a3a60ba9d"
          ],
          "data": "0x0000000000000000000000000000000000000000000000056bc75e2d63100000",
          "blockHash": "0xfc9958cd45d756f1a7c9324a549c00396c1dc903348873059e503c71768fc70a",
          "blockNumber": "0x8a7b37",
          "transactionHash": "0x55dbcbf83646d88d5afbfab098d8449b55c7b99302896164f84610b1057652fa",
          "transactionIndex": "0x1",
          "logIndex": "0x0",
          "removed": false
        }
      ],
      "status": "0x1",
      "logsBloom": "0x00000000000000000000000000000000000000000000000000000000000000000000000000000000000000000000000000000200000000000000c00000000000000000000000000000000008000000000000000000000000000000000000000000000000000000000000000000000000000000000000000000000010000000000000000000000000000000000000000000020000000000000000000000000000000000000000000000000000000000000000000000000000000004000000200000000002002000000000000000000000000000040000000000000000000000000000000000800000000000000000000000000000000000000000000000000000",
      "type": "0x2",
      "effectiveGasPrice": "0xb2d05efc"
    },
    {
      "transactionHash": "0x9617c4c921c716fad599b6b1a883548ce87279070d141523d13fb235699048a5",
      "transactionIndex": "0x2",
      "blockHash": "0xfc9958cd45d756f1a7c9324a549c00396c1dc903348873059e503c71768fc70a",
      "blockNumber": "0x8a7b37",
      "from": "0x7824A63A4051eB44723AAae83398c847e51187FA",
      "to": "0x177Ad3aD54715A84Fa906705c7F7660444d7d6e1",
      "cumulativeGasUsed": "0x1b92b",
      "gasUsed": "0x86e4",
      "contractAddress": null,
      "logs": [
        {
          "address": "0x177Ad3aD54715A84Fa906705c7F7660444d7d6e1",
          "topics": [
            "0xddf252ad1be2c89b69c2b068fc378daa952ba7f163c4a11628f55a4df523b3ef",
            "0x0000000000000000000000007824a63a4051eb44723aaae83398c847e51187fa",
            "0x000000000000000000000000a5216c6f685c2b8a678a704107760be652665234"
          ],
          "data": "0x0000000000000000000000000000000000000000000000056bc75e2d63100000",
          "blockHash": "0xfc9958cd45d756f1a7c9324a549c00396c1dc903348873059e503c71768fc70a",
          "blockNumber": "0x8a7b37",
          "transactionHash": "0x9617c4c921c716fad599b6b1a883548ce87279070d141523d13fb235699048a5",
          "transactionIndex": "0x2",
          "logIndex": "0x1",
          "removed": false
        }
      ],
      "status": "0x1",
      "logsBloom": "0x00000000000000000000000000000000000000000000000000000000000000000000000000000000000000000000000000000200000000000000400000000000000000000000000000000008000000000000000000000000000000000000000000000000000000000000000000000000000000000000000000000010000000000000000000000000000000000000000000020000000000000000000000000000000000000000040000000000200000000000000000000000000004000000280000000002000000000000000000000000000000040000000000000000000000000000000000000000000000000000000000000000000000000000000000000000",
      "type": "0x2",
      "effectiveGasPrice": "0xb2d05efc"
    },
    {
      "transactionHash": "0xddda478858b05ed9d6162a92d0afb12a857fccb70a37f8d453a8c2f2627dd7f3",
      "transactionIndex": "0x3",
      "blockHash": "0xfc9958cd45d756f1a7c9324a549c00396c1dc903348873059e503c71768fc70a",
      "blockNumber": "0x8a7b37",
      "from": "0x7824A63A4051eB44723AAae83398c847e51187FA",
      "to": "0x177Ad3aD54715A84Fa906705c7F7660444d7d6e1",
      "cumulativeGasUsed": "0x2400f",
      "gasUsed": "0x86e4",
      "contractAddress": null,
      "logs": [
        {
          "address": "0x177Ad3aD54715A84Fa906705c7F7660444d7d6e1",
          "topics": [
            "0xddf252ad1be2c89b69c2b068fc378daa952ba7f163c4a11628f55a4df523b3ef",
            "0x0000000000000000000000007824a63a4051eb44723aaae83398c847e51187fa",
            "0x000000000000000000000000f5d9e0cf7b63e0c2d8a7e830fdce539bb3d0848d"
          ],
          "data": "0x0000000000000000000000000000000000000000000000056bc75e2d63100000",
          "blockHash": "0xfc9958cd45d756f1a7c9324a549c00396c1dc903348873059e503c71768fc70a",
          "blockNumber": "0x8a7b37",
          "transactionHash": "0xddda478858b05ed9d6162a92d0afb12a857fccb70a37f8d453a8c2f2627dd7f3",
          "transactionIndex": "0x3",
          "logIndex": "0x2",
          "removed": false
        }
      ],
      "status": "0x1",
      "logsBloom": "0x00000000000000000000000000000000000000000000000000000000000000000000000000000000000000000000000000000200000000000000400000000000000000000000000000000008000100000000000000000000000000000000000000000000000000000000000000000000000000000000000000000010000000000000000000000000000000000000000000020000000000000000000000000000000000000000200000000000000000000000000000000000000004000010200000000002000000000000000000000000000000040000000000000000000000000000000000000000000000000000000000000000000000000000000000000000",
      "type": "0x2",
      "effectiveGasPrice": "0xb2d05efc"
    },
    {
      "transactionHash": "0x73e16467488a0471eb2246385be0ab53f3e2e5429464c1f64aa648deab814ac1",
      "transactionIndex": "0x4",
      "blockHash": "0xfc9958cd45d756f1a7c9324a549c00396c1dc903348873059e503c71768fc70a",
      "blockNumber": "0x8a7b37",
      "from": "0x7824A63A4051eB44723AAae83398c847e51187FA",
      "to": "0x177Ad3aD54715A84Fa906705c7F7660444d7d6e1",
      "cumulativeGasUsed": "0x2c6f3",
      "gasUsed": "0x86e4",
      "contractAddress": null,
      "logs": [
        {
          "address": "0x177Ad3aD54715A84Fa906705c7F7660444d7d6e1",
          "topics": [
            "0xddf252ad1be2c89b69c2b068fc378daa952ba7f163c4a11628f55a4df523b3ef",
            "0x0000000000000000000000007824a63a4051eb44723aaae83398c847e51187fa",
            "0x0000000000000000000000003468e001c7592f8759a0753c9680931059836641"
          ],
          "data": "0x0000000000000000000000000000000000000000000000056bc75e2d63100000",
          "blockHash": "0xfc9958cd45d756f1a7c9324a549c00396c1dc903348873059e503c71768fc70a",
          "blockNumber": "0x8a7b37",
          "transactionHash": "0x73e16467488a0471eb2246385be0ab53f3e2e5429464c1f64aa648deab814ac1",
          "transactionIndex": "0x4",
          "logIndex": "0x3",
          "removed": false
        }
      ],
      "status": "0x1",
      "logsBloom": "0x00000000000000000000000000000000000000000000000000000000000000000000040000800000000000000000000000000200000000000000400000000000000000000000000000000008000000000000000000000000000000000000000000000000000000000000000000000000000000000000000000000010000000000000000000000000000000000000000000020000000000000000000000000000000000000000000000000000000000000000000008000000000004000000200000000002000000000000000000000000000000040000000000000000000000000000000000000000000000000000000000000000000000000000000000000000",
      "type": "0x2",
      "effectiveGasPrice": "0xb2d05efc"
    }
  ],
  "libraries": [],
  "pending": [],
  "returns": {},
  "timestamp": 1709953567,
  "chain": 11155420,
  "multi": false,
  "commit": "23624bb"
}