{
  "transactions": [
    {
      "hash": "0x7136171b473db95bfaec2f7c646f77d730815f395edd2c406def137bbebe933d",
      "transactionType": "CALL",
      "contractName": null,
      "contractAddress": "0x177Ad3aD54715A84Fa906705c7F7660444d7d6e1",
      "function": "transfer(address,uint256)",
      "arguments": [
        "0x6Ecc59c35e3951201C803b821BfA801349eDF48f",
        "100000000000000000000"
      ],
      "transaction": {
        "type": "0x02",
        "from": "0x7824a63a4051eb44723aaae83398c847e51187fa",
        "to": "0x177ad3ad54715a84fa906705c7f7660444d7d6e1",
        "gas": "0xba51",
        "value": "0x0",
        "data": "0xa9059cbb0000000000000000000000006ecc59c35e3951201c803b821bfa801349edf48f0000000000000000000000000000000000000000000000056bc75e2d63100000",
        "nonce": "0x6e",
        "accessList": []
      },
      "additionalContracts": [],
      "isFixedGasLimit": false
    },
    {
      "hash": "0x04197150825a980961e6e39dce5d175c793c010a4733062342cdb3f2517f8c29",
      "transactionType": "CALL",
      "contractName": null,
      "contractAddress": "0x177Ad3aD54715A84Fa906705c7F7660444d7d6e1",
      "function": "transfer(address,uint256)",
      "arguments": [
        "0x7e4324afA7AeB899B0e4d98C2745083fD4eDE2Db",
        "100000000000000000000"
      ],
      "transaction": {
        "type": "0x02",
        "from": "0x7824a63a4051eb44723aaae83398c847e51187fa",
        "to": "0x177ad3ad54715a84fa906705c7f7660444d7d6e1",
        "gas": "0xba51",
        "value": "0x0",
        "data": "0xa9059cbb0000000000000000000000007e4324afa7aeb899b0e4d98c2745083fd4ede2db0000000000000000000000000000000000000000000000056bc75e2d63100000",
        "nonce": "0x6f",
        "accessList": []
      },
      "additionalContracts": [],
      "isFixedGasLimit": false
    },
    {
      "hash": "0x55dbcbf83646d88d5afbfab098d8449b55c7b99302896164f84610b1057652fa",
      "transactionType": "CALL",
      "contractName": null,
      "contractAddress": "0x177Ad3aD54715A84Fa906705c7F7660444d7d6e1",
      "function": "transfer(address,uint256)",
      "arguments": [
        "0x5FcA8FADd2586f1BDA506A0E36d7196A3A60bA9d",
        "100000000000000000000"
      ],
      "transaction": {
        "type": "0x02",
        "from": "0x7824a63a4051eb44723aaae83398c847e51187fa",
        "to": "0x177ad3ad54715a84fa906705c7f7660444d7d6e1",
        "gas": "0xba51",
        "value": "0x0",
        "data": "0xa9059cbb0000000000000000000000005fca8fadd2586f1bda506a0e36d7196a3a60ba9d0000000000000000000000000000000000000000000000056bc75e2d63100000",
        "nonce": "0x70",
        "accessList": []
      },
      "additionalContracts": [],
      "isFixedGasLimit": false
    },
    {
      "hash": "0x9617c4c921c716fad599b6b1a883548ce87279070d141523d13fb235699048a5",
      "transactionType": "CALL",
      "contractName": null,
      "contractAddress": "0x177Ad3aD54715A84Fa906705c7F7660444d7d6e1",
      "function": "transfer(address,uint256)",
      "arguments": [
        "0xA5216C6F685c2b8a678A704107760Be652665234",
        "100000000000000000000"
      ],
      "transaction": {
        "type": "0x02",
        "from": "0x7824a63a4051eb44723aaae83398c847e51187fa",
        "to": "0x177ad3ad54715a84fa906705c7f7660444d7d6e1",
        "gas": "0xba51",
        "value": "0x0",
        "data": "0xa9059cbb000000000000000000000000a5216c6f685c2b8a678a704107760be6526652340000000000000000000000000000000000000000000000056bc75e2d63100000",
        "nonce": "0x71",
        "accessList": []
      },
      "additionalContracts": [],
      "isFixedGasLimit": false
    },
    {
      "hash": "0xddda478858b05ed9d6162a92d0afb12a857fccb70a37f8d453a8c2f2627dd7f3",
      "transactionType": "CALL",
      "contractName": null,
      "contractAddress": "0x177Ad3aD54715A84Fa906705c7F7660444d7d6e1",
      "function": "transfer(address,uint256)",
      "arguments": [
        "0xf5d9E0cF7b63E0C2D8A7E830fdCe539bB3D0848D",
        "100000000000000000000"
      ],
      "transaction": {
        "type": "0x02",
        "from": "0x7824a63a4051eb44723aaae83398c847e51187fa",
        "to": "0x177ad3ad54715a84fa906705c7f7660444d7d6e1",
        "gas": "0xba51",
        "value": "0x0",
        "data": "0xa9059cbb000000000000000000000000f5d9e0cf7b63e0c2d8a7e830fdce539bb3d0848d0000000000000000000000000000000000000000000000056bc75e2d63100000",
        "nonce": "0x72",
        "accessList": []
      },
      "additionalContracts": [],
      "isFixedGasLimit": false
    },
    {
      "hash": "0x73e16467488a0471eb2246385be0ab53f3e2e5429464c1f64aa648deab814ac1",
      "transactionType": "CALL",
      "contractName": null,
      "contractAddress": "0x177Ad3aD54715A84Fa906705c7F7660444d7d6e1",
      "function": "transfer(address,uint256)",
      "arguments": [
        "0x3468E001c7592F8759a0753C9680931059836641",
        "100000000000000000000"
      ],
      "transaction": {
        "type": "0x02",
        "from": "0x7824a63a4051eb44723aaae83398c847e51187fa",
        "to": "0x177ad3ad54715a84fa906705c7f7660444d7d6e1",
        "gas": "0xba51",
        "value": "0x0",
        "data": "0xa9059cbb0000000000000000000000003468e001c7592f8759a0753c96809310598366410000000000000000000000000000000000000000000000056bc75e2d63100000",
        "nonce": "0x73",
        "accessList": []
      },
      "additionalContracts": [],
      "isFixedGasLimit": false
    }
  ],
  "receipts": [],
  "libraries": [],
  "pending": [
    "0x7136171b473db95bfaec2f7c646f77d730815f395edd2c406def137bbebe933d",
    "0x04197150825a980961e6e39dce5d175c793c010a4733062342cdb3f2517f8c29",
    "0x55dbcbf83646d88d5afbfab098d8449b55c7b99302896164f84610b1057652fa",
    "0x9617c4c921c716fad599b6b1a883548ce87279070d141523d13fb235699048a5",
    "0xddda478858b05ed9d6162a92d0afb12a857fccb70a37f8d453a8c2f2627dd7f3",
    "0x73e16467488a0471eb2246385be0ab53f3e2e5429464c1f64aa648deab814ac1"
  ],
  "returns": {},
  "timestamp": 1709953560,
  "chain": 11155420,
  "multi": false,
  "commit": "23624bb"
}