{
  "transactions": [
    {
      "hash": "0x1953ef004f8c5b5a5aad81331601d7f7ce36bd5a965f29342cbf28bb7f603a5f",
      "transactionType": "CALL",
      "contractName": null,
      "contractAddress": "0x177Ad3aD54715A84Fa906705c7F7660444d7d6e1",
      "function": "transfer(address,uint256)",
      "arguments": [
        "0xcaa8615677eDbAacC857f25Bc669bC4A776642F5",
        "100000000000000000000"
      ],
      "transaction": {
        "type": "0x02",
        "from": "0x7824a63a4051eb44723aaae83398c847e51187fa",
        "to": "0x177ad3ad54715a84fa906705c7f7660444d7d6e1",
        "gas": "0xba51",
        "value": "0x0",
        "data": "0xa9059cbb000000000000000000000000caa8615677edbaacc857f25bc669bc4a776642f50000000000000000000000000000000000000000000000056bc75e2d63100000",
        "nonce": "0x67",
        "accessList": []
      },
      "additionalContracts": [],
      "isFixedGasLimit": false
    },
    {
      "hash": null,
      "transactionType": "CALL",
      "contractName": null,
      "contractAddress": "0x177Ad3aD54715A84Fa906705c7F7660444d7d6e1",
      "function": "transfer(address,uint256)",
      "arguments": [
        "0xF9E2d4b265Fef348e05AFf35658B85AC4F45d6eF",
        "100000000000000000000"
      ],
      "transaction": {
        "type": "0x02",
        "from": "0x7824a63a4051eb44723aaae83398c847e51187fa",
        "to": "0x177ad3ad54715a84fa906705c7f7660444d7d6e1",
        "gas": "0xba51",
        "value": "0x0",
        "data": "0xa9059cbb000000000000000000000000f9e2d4b265fef348e05aff35658b85ac4f45d6ef0000000000000000000000000000000000000000000000056bc75e2d63100000",
        "nonce": "0x68",
        "accessList": []
      },
      "additionalContracts": [],
      "isFixedGasLimit": false
    },
    {
      "hash": null,
      "transactionType": "CALL",
      "contractName": null,
      "contractAddress": "0x177Ad3aD54715A84Fa906705c7F7660444d7d6e1",
      "function": "transfer(address,uint256)",
      "arguments": [
        "0xB38449e8bBC51580f85399A58480C3A79B634Cdc",
        "100000000000000000000"
      ],
      "transaction": {
        "type": "0x02",
        "from": "0x7824a63a4051eb44723aaae83398c847e51187fa",
        "to": "0x177ad3ad54715a84fa906705c7f7660444d7d6e1",
        "gas": "0xba51",
        "value": "0x0",
        "data": "0xa9059cbb000000000000000000000000b38449e8bbc51580f85399a58480c3a79b634cdc0000000000000000000000000000000000000000000000056bc75e2d63100000",
        "nonce": "0x69",
        "accessList": []
      },
      "additionalContracts": [],
      "isFixedGasLimit": false
    },
    {
      "hash": null,
      "transactionType": "CALL",
      "contractName": null,
      "contractAddress": "0x177Ad3aD54715A84Fa906705c7F7660444d7d6e1",
      "function": "transfer(address,uint256)",
      "arguments": [
        "0x01315aB5d2e074285DC38D7D79e5B5a14C69fa8a",
        "100000000000000000000"
      ],
      "transaction": {
        "type": "0x02",
        "from": "0x7824a63a4051eb44723aaae83398c847e51187fa",
        "to": "0x177ad3ad54715a84fa906705c7f7660444d7d6e1",
        "gas": "0xba51",
        "value": "0x0",
        "data": "0xa9059cbb00000000000000000000000001315ab5d2e074285dc38d7d79e5b5a14c69fa8a0000000000000000000000000000000000000000000000056bc75e2d63100000",
        "nonce": "0x6a",
        "accessList": []
      },
      "additionalContracts": [],
      "isFixedGasLimit": false
    },
    {
      "hash": null,
      "transactionType": "CALL",
      "contractName": null,
      "contractAddress": "0x177Ad3aD54715A84Fa906705c7F7660444d7d6e1",
      "function": "transfer(address,uint256)",
      "arguments": [
        "0xBC23F89D18f702C34D655079A144037CEbd9257F",
        "100000000000000000000"
      ],
      "transaction": {
        "type": "0x02",
        "from": "0x7824a63a4051eb44723aaae83398c847e51187fa",
        "to": "0x177ad3ad54715a84fa906705c7f7660444d7d6e1",
        "gas": "0xba51",
        "value": "0x0",
        "data": "0xa9059cbb000000000000000000000000bc23f89d18f702c34d655079a144037cebd9257f0000000000000000000000000000000000000000000000056bc75e2d63100000",
        "nonce": "0x6b",
        "accessList": []
      },
      "additionalContracts": [],
      "isFixedGasLimit": false
    },
    {
      "hash": null,
      "transactionType": "CALL",
      "contractName": null,
      "contractAddress": "0x177Ad3aD54715A84Fa906705c7F7660444d7d6e1",
      "function": "transfer(address,uint256)",
      "arguments": [
        "0x0c96b5CCc9dC8f19Df8e2a5c15efDB2dc20d70f9",
        "100000000000000000000"
      ],
      "transaction": {
        "type": "0x02",
        "from": "0x7824a63a4051eb44723aaae83398c847e51187fa",
        "to": "0x177ad3ad54715a84fa906705c7f7660444d7d6e1",
        "gas": "0xba51",
        "value": "0x0",
        "data": "0xa9059cbb0000000000000000000000000c96b5ccc9dc8f19df8e2a5c15efdb2dc20d70f90000000000000000000000000000000000000000000000056bc75e2d63100000",
        "nonce": "0x6c",
        "accessList": []
      },
      "additionalContracts": [],
      "isFixedGasLimit": false
    },
    {
      "hash": null,
      "transactionType": "CALL",
      "contractName": null,
      "contractAddress": "0x177Ad3aD54715A84Fa906705c7F7660444d7d6e1",
      "function": "transfer(address,uint256)",
      "arguments": [
        "0xa4F9e407751bE75AF10Fe5994860406D2bD45eFb",
        "100000000000000000000"
      ],
      "transaction": {
        "type": "0x02",
        "from": "0x7824a63a4051eb44723aaae83398c847e51187fa",
        "to": "0x177ad3ad54715a84fa906705c7f7660444d7d6e1",
        "gas": "0xba51",
        "value": "0x0",
        "data": "0xa9059cbb000000000000000000000000a4f9e407751be75af10fe5994860406d2bd45efb0000000000000000000000000000000000000000000000056bc75e2d63100000",
        "nonce": "0x6d",
        "accessList": []
      },
      "additionalContracts": [],
      "isFixedGasLimit": false
    },
    {
      "hash": null,
      "transactionType": "CALL",
      "contractName": null,
      "contractAddress": "0x177Ad3aD54715A84Fa906705c7F7660444d7d6e1",
      "function": "transfer(address,uint256)",
      "arguments": [
        "0x6Ecc59c35e3951201C803b821BfA801349eDF48f",
        "100000000000000000000"
      ],
      "transaction": {
        "type": "0x02",
        "from": "0x7824a63a4051eb44723aaae83398c847e51187fa",
        "to": "0x177ad3ad54715a84fa906705c7f7660444d7d6e1",
        "gas": "0xba51",
        "value": "0x0",
        "data": "0xa9059cbb0000000000000000000000006ecc59c35e3951201c803b821bfa801349edf48f0000000000000000000000000000000000000000000000056bc75e2d63100000",
        "nonce": "0x6e",
        "accessList": []
      },
      "additionalContracts": [],
      "isFixedGasLimit": false
    },
    {
      "hash": null,
      "transactionType": "CALL",
      "contractName": null,
      "contractAddress": "0x177Ad3aD54715A84Fa906705c7F7660444d7d6e1",
      "function": "transfer(address,uint256)",
      "arguments": [
        "0x7e4324afA7AeB899B0e4d98C2745083fD4eDE2Db",
        "100000000000000000000"
      ],
      "transaction": {
        "type": "0x02",
        "from": "0x7824a63a4051eb44723aaae83398c847e51187fa",
        "to": "0x177ad3ad54715a84fa906705c7f7660444d7d6e1",
        "gas": "0xba51",
        "value": "0x0",
        "data": "0xa9059cbb0000000000000000000000007e4324afa7aeb899b0e4d98c2745083fd4ede2db0000000000000000000000000000000000000000000000056bc75e2d63100000",
        "nonce": "0x6f",
        "accessList": []
      },
      "additionalContracts": [],
      "isFixedGasLimit": false
    },
    {
      "hash": null,
      "transactionType": "CALL",
      "contractName": null,
      "contractAddress": "0x177Ad3aD54715A84Fa906705c7F7660444d7d6e1",
      "function": "transfer(address,uint256)",
      "arguments": [
        "0x5FcA8FADd2586f1BDA506A0E36d7196A3A60bA9d",
        "100000000000000000000"
      ],
      "transaction": {
        "type": "0x02",
        "from": "0x7824a63a4051eb44723aaae83398c847e51187fa",
        "to": "0x177ad3ad54715a84fa906705c7f7660444d7d6e1",
        "gas": "0xba51",
        "value": "0x0",
        "data": "0xa9059cbb0000000000000000000000005fca8fadd2586f1bda506a0e36d7196a3a60ba9d0000000000000000000000000000000000000000000000056bc75e2d63100000",
        "nonce": "0x70",
        "accessList": []
      },
      "additionalContracts": [],
      "isFixedGasLimit": false
    },
    {
      "hash": null,
      "transactionType": "CALL",
      "contractName": null,
      "contractAddress": "0x177Ad3aD54715A84Fa906705c7F7660444d7d6e1",
      "function": "transfer(address,uint256)",
      "arguments": [
        "0xA5216C6F685c2b8a678A704107760Be652665234",
        "100000000000000000000"
      ],
      "transaction": {
        "type": "0x02",
        "from": "0x7824a63a4051eb44723aaae83398c847e51187fa",
        "to": "0x177ad3ad54715a84fa906705c7f7660444d7d6e1",
        "gas": "0xba51",
        "value": "0x0",
        "data": "0xa9059cbb000000000000000000000000a5216c6f685c2b8a678a704107760be6526652340000000000000000000000000000000000000000000000056bc75e2d63100000",
        "nonce": "0x71",
        "accessList": []
      },
      "additionalContracts": [],
      "isFixedGasLimit": false
    },
    {
      "hash": null,
      "transactionType": "CALL",
      "contractName": null,
      "contractAddress": "0x177Ad3aD54715A84Fa906705c7F7660444d7d6e1",
      "function": "transfer(address,uint256)",
      "arguments": [
        "0xf5d9E0cF7b63E0C2D8A7E830fdCe539bB3D0848D",
        "100000000000000000000"
      ],
      "transaction": {
        "type": "0x02",
        "from": "0x7824a63a4051eb44723aaae83398c847e51187fa",
        "to": "0x177ad3ad54715a84fa906705c7f7660444d7d6e1",
        "gas": "0xba51",
        "value": "0x0",
        "data": "0xa9059cbb000000000000000000000000f5d9e0cf7b63e0c2d8a7e830fdce539bb3d0848d0000000000000000000000000000000000000000000000056bc75e2d63100000",
        "nonce": "0x72",
        "accessList": []
      },
      "additionalContracts": [],
      "isFixedGasLimit": false
    },
    {
      "hash": null,
      "transactionType": "CALL",
      "contractName": null,
      "contractAddress": "0x177Ad3aD54715A84Fa906705c7F7660444d7d6e1",
      "function": "transfer(address,uint256)",
      "arguments": [
        "0x3468E001c7592F8759a0753C9680931059836641",
        "100000000000000000000"
      ],
      "transaction": {
        "type": "0x02",
        "from": "0x7824a63a4051eb44723aaae83398c847e51187fa",
        "to": "0x177ad3ad54715a84fa906705c7f7660444d7d6e1",
        "gas": "0xba51",
        "value": "0x0",
        "data": "0xa9059cbb0000000000000000000000003468e001c7592f8759a0753c96809310598366410000000000000000000000000000000000000000000000056bc75e2d63100000",
        "nonce": "0x73",
        "accessList": []
      },
      "additionalContracts": [],
      "isFixedGasLimit": false
    }
  ],
  "receipts": [],
  "libraries": [],
  "pending": [
    "0x1953ef004f8c5b5a5aad81331601d7f7ce36bd5a965f29342cbf28bb7f603a5f"
  ],
  "returns": {},
  "timestamp": 1709953508,
  "chain": 11155420,
  "multi": false,
  "commit": "23624bb"
}