{
  "transactions": [
    {
      "hash": "0x81a556865052208bb58ee588499ff74c2ffee594628cb67c0e8962b6d1313b08",
      "transactionType": "CALL",
      "contractName": null,
      "contractAddress": "0x177Ad3aD54715A84Fa906705c7F7660444d7d6e1",
      "function": "transfer(address,uint256)",
      "arguments": [
        "0xc7Cfd9898b4be87A13552084148442A2b4d4c23F",
        "100000000000000000000"
      ],
      "transaction": {
        "type": "0x02",
        "from": "0x7824a63a4051eb44723aaae83398c847e51187fa",
        "to": "0x177ad3ad54715a84fa906705c7f7660444d7d6e1",
        "gas": "0xba51",
        "value": "0x0",
        "data": "0xa9059cbb000000000000000000000000c7cfd9898b4be87a13552084148442a2b4d4c23f0000000000000000000000000000000000000000000000056bc75e2d63100000",
        "nonce": "0x4e",
        "accessList": []
      },
      "additionalContracts": [],
      "isFixedGasLimit": false
    },
    {
      "hash": "0x9a4597beb4c3e854930381c784684b67f1de2d1ff8afb95c53dabb9328960ea8",
      "transactionType": "CALL",
      "contractName": null,
      "contractAddress": "0x177Ad3aD54715A84Fa906705c7F7660444d7d6e1",
      "function": "transfer(address,uint256)",
      "arguments": [
        "0x44cF205a7dbD9656b59c084BE7EF64880C2b3F07",
        "100000000000000000000"
      ],
      "transaction": {
        "type": "0x02",
        "from": "0x7824a63a4051eb44723aaae83398c847e51187fa",
        "to": "0x177ad3ad54715a84fa906705c7f7660444d7d6e1",
        "gas": "0xba51",
        "value": "0x0",
        "data": "0xa9059cbb00000000000000000000000044cf205a7dbd9656b59c084be7ef64880c2b3f070000000000000000000000000000000000000000000000056bc75e2d63100000",
        "nonce": "0x4f",
        "accessList": []
      },
      "additionalContracts": [],
      "isFixedGasLimit": false
    },
    {
      "hash": "0xe8413c17ed4bb8561f68b7642f1f9074dd810fdd09d4a6da505e987c61aceba3",
      "transactionType": "CALL",
      "contractName": null,
      "contractAddress": "0x177Ad3aD54715A84Fa906705c7F7660444d7d6e1",
      "function": "transfer(address,uint256)",
      "arguments": [
        "0x5fd87F43716A28859b238b11EC49535b2BA4d447",
        "100000000000000000000"
      ],
      "transaction": {
        "type": "0x02",
        "from": "0x7824a63a4051eb44723aaae83398c847e51187fa",
        "to": "0x177ad3ad54715a84fa906705c7f7660444d7d6e1",
        "gas": "0xba51",
        "value": "0x0",
        "data": "0xa9059cbb0000000000000000000000005fd87f43716a28859b238b11ec49535b2ba4d4470000000000000000000000000000000000000000000000056bc75e2d63100000",
        "nonce": "0x50",
        "accessList": []
      },
      "additionalContracts": [],
      "isFixedGasLimit": false
    },
    {
      "hash": "0x39abb14d8b1f55f56c1543833b317b681b3ee0c7031a505724e868c5e7a082d3",
      "transactionType": "CALL",
      "contractName": null,
      "contractAddress": "0x177Ad3aD54715A84Fa906705c7F7660444d7d6e1",
      "function": "transfer(address,uint256)",
      "arguments": [
        "0x97DBD6D0b07B3A66497Bb0da404ed6421584c54c",
        "100000000000000000000"
      ],
      "transaction": {
        "type": "0x02",
        "from": "0x7824a63a4051eb44723aaae83398c847e51187fa",
        "to": "0x177ad3ad54715a84fa906705c7f7660444d7d6e1",
        "gas": "0xba51",
        "value": "0x0",
        "data": "0xa9059cbb00000000000000000000000097dbd6d0b07b3a66497bb0da404ed6421584c54c0000000000000000000000000000000000000000000000056bc75e2d63100000",
        "nonce": "0x51",
        "accessList": []
      },
      "additionalContracts": [],
      "isFixedGasLimit": false
    },
    {
      "hash": "0x9677ab29dcb2dc1101ce10e71a3b4268427c1d69eeb99719524928f9b8730c98",
      "transactionType": "CALL",
      "contractName": null,
      "contractAddress": "0x177Ad3aD54715A84Fa906705c7F7660444d7d6e1",
      "function": "transfer(address,uint256)",
      "arguments": [
        "0x36b92f71116E50B8fd0aa1A4529922B54F1B5C3C",
        "100000000000000000000"
      ],
      "transaction": {
        "type": "0x02",
        "from": "0x7824a63a4051eb44723aaae83398c847e51187fa",
        "to": "0x177ad3ad54715a84fa906705c7f7660444d7d6e1",
        "gas": "0xba51",
        "value": "0x0",
        "data": "0xa9059cbb00000000000000000000000036b92f71116e50b8fd0aa1a4529922b54f1b5c3c0000000000000000000000000000000000000000000000056bc75e2d63100000",
        "nonce": "0x52",
        "accessList": []
      },
      "additionalContracts": [],
      "isFixedGasLimit": false
    },
    {
      "hash": "0xe09e862d796f4e2f88e9f2ed5a30d474fe9a6042bad894c5925fafdf705ac84e",
      "transactionType": "CALL",
      "contractName": null,
      "contractAddress": "0x177Ad3aD54715A84Fa906705c7F7660444d7d6e1",
      "function": "transfer(address,uint256)",
      "arguments": [
        "0xC4de020Cfb94D5e7Da5536551da6cfE01Dce33Ec",
        "100000000000000000000"
      ],
      "transaction": {
        "type": "0x02",
        "from": "0x7824a63a4051eb44723aaae83398c847e51187fa",
        "to": "0x177ad3ad54715a84fa906705c7f7660444d7d6e1",
        "gas": "0xba51",
        "value": "0x0",
        "data": "0xa9059cbb000000000000000000000000c4de020cfb94d5e7da5536551da6cfe01dce33ec0000000000000000000000000000000000000000000000056bc75e2d63100000",
        "nonce": "0x53",
        "accessList": []
      },
      "additionalContracts": [],
      "isFixedGasLimit": false
    },
    {
      "hash": "0xb529664b42f58b947296b0abe2d7020f128cf7330e69a90ce64100368a36b640",
      "transactionType": "CALL",
      "contractName": null,
      "contractAddress": "0x177Ad3aD54715A84Fa906705c7F7660444d7d6e1",
      "function": "transfer(address,uint256)",
      "arguments": [
        "0x51F64E44A405D1a89176b752a86B692575F6E849",
        "100000000000000000000"
      ],
      "transaction": {
        "type": "0x02",
        "from": "0x7824a63a4051eb44723aaae83398c847e51187fa",
        "to": "0x177ad3ad54715a84fa906705c7f7660444d7d6e1",
        "gas": "0xba51",
        "value": "0x0",
        "data": "0xa9059cbb00000000000000000000000051f64e44a405d1a89176b752a86b692575f6e8490000000000000000000000000000000000000000000000056bc75e2d63100000",
        "nonce": "0x54",
        "accessList": []
      },
      "additionalContracts": [],
      "isFixedGasLimit": false
    },
    {
      "hash": "0x28d386d9d7d71277eae97e16d6c9118d1df30f0897340bd4d01274028a6d3484",
      "transactionType": "CALL",
      "contractName": null,
      "contractAddress": "0x177Ad3aD54715A84Fa906705c7F7660444d7d6e1",
      "function": "transfer(address,uint256)",
      "arguments": [
        "0xAEC4749fC27e35c2D5C6C83C52579CDa4f6a7A0E",
        "100000000000000000000"
      ],
      "transaction": {
        "type": "0x02",
        "from": "0x7824a63a4051eb44723aaae83398c847e51187fa",
        "to": "0x177ad3ad54715a84fa906705c7f7660444d7d6e1",
        "gas": "0xba51",
        "value": "0x0",
        "data": "0xa9059cbb000000000000000000000000aec4749fc27e35c2d5c6c83c52579cda4f6a7a0e0000000000000000000000000000000000000000000000056bc75e2d63100000",
        "nonce": "0x55",
        "accessList": []
      },
      "additionalContracts": [],
      "isFixedGasLimit": false
    },
    {
      "hash": "0xeb2fb7dd950bc083f94c1d55264adb40890df380f23480d8fce27e13fae4cf5c",
      "transactionType": "CALL",
      "contractName": null,
      "contractAddress": "0x177Ad3aD54715A84Fa906705c7F7660444d7d6e1",
      "function": "transfer(address,uint256)",
      "arguments": [
        "0x399035F0493d7DA77E0c44ec87D9360021DaFD59",
        "100000000000000000000"
      ],
      "transaction": {
        "type": "0x02",
        "from": "0x7824a63a4051eb44723aaae83398c847e51187fa",
        "to": "0x177ad3ad54715a84fa906705c7f7660444d7d6e1",
        "gas": "0xba40",
        "value": "0x0",
        "data": "0xa9059cbb000000000000000000000000399035f0493d7da77e0c44ec87d9360021dafd590000000000000000000000000000000000000000000000056bc75e2d63100000",
        "nonce": "0x56",
        "accessList": []
      },
      "additionalContracts": [],
      "isFixedGasLimit": false
    },
    {
      "hash": "0x714a9e33e4740b3885ae352302a674c6ce8703760df267a7b7be95f0843a677e",
      "transactionType": "CALL",
      "contractName": null,
      "contractAddress": "0x177Ad3aD54715A84Fa906705c7F7660444d7d6e1",
      "function": "transfer(address,uint256)",
      "arguments": [
        "0x4B2bE391Da027155b21b725c37fF289A46d9C06c",
        "100000000000000000000"
      ],
      "transaction": {
        "type": "0x02",
        "from": "0x7824a63a4051eb44723aaae83398c847e51187fa",
        "to": "0x177ad3ad54715a84fa906705c7f7660444d7d6e1",
        "gas": "0xba51",
        "value": "0x0",
        "data": "0xa9059cbb0000000000000000000000004b2be391da027155b21b725c37ff289a46d9c06c0000000000000000000000000000000000000000000000056bc75e2d63100000",
        "nonce": "0x57",
        "accessList": []
      },
      "additionalContracts": [],
      "isFixedGasLimit": false
    },
    {
      "hash": "0x18781138789198c81b0ed199994eb0ca8df7b5cb923c66c8bc919840486cc54b",
      "transactionType": "CALL",
      "contractName": null,
      "contractAddress": "0x177Ad3aD54715A84Fa906705c7F7660444d7d6e1",
      "function": "transfer(address,uint256)",
      "arguments": [
        "0xfEB36e8150d1937809Ea25c2C4D4ff8cf0a85246",
        "100000000000000000000"
      ],
      "transaction": {
        "type": "0x02",
        "from": "0x7824a63a4051eb44723aaae83398c847e51187fa",
        "to": "0x177ad3ad54715a84fa906705c7f7660444d7d6e1",
        "gas": "0xba51",
        "value": "0x0",
        "data": "0xa9059cbb000000000000000000000000feb36e8150d1937809ea25c2c4d4ff8cf0a852460000000000000000000000000000000000000000000000056bc75e2d63100000",
        "nonce": "0x58",
        "accessList": []
      },
      "additionalContracts": [],
      "isFixedGasLimit": false
    },
    {
      "hash": "0x37f42c96e50ee7f3e9670111432c8fa57ceabb546923c748756a76a2a155d28f",
      "transactionType": "CALL",
      "contractName": null,
      "contractAddress": "0x177Ad3aD54715A84Fa906705c7F7660444d7d6e1",
      "function": "transfer(address,uint256)",
      "arguments": [
        "0xB1fC3B05dEDEc175678Be3C44cb0Ce63A6133C6b",
        "100000000000000000000"
      ],
      "transaction": {
        "type": "0x02",
        "from": "0x7824a63a4051eb44723aaae83398c847e51187fa",
        "to": "0x177ad3ad54715a84fa906705c7f7660444d7d6e1",
        "gas": "0xba51",
        "value": "0x0",
        "data": "0xa9059cbb000000000000000000000000b1fc3b05dedec175678be3c44cb0ce63a6133c6b0000000000000000000000000000000000000000000000056bc75e2d63100000",
        "nonce": "0x59",
        "accessList": []
      },
      "additionalContracts": [],
      "isFixedGasLimit": false
    },
    {
      "hash": "0x7e73b151ab93cd132c76d7123f7ab27a18c71338a0e24a9f095e9e8dbd800e6c",
      "transactionType": "CALL",
      "contractName": null,
      "contractAddress": "0x177Ad3aD54715A84Fa906705c7F7660444d7d6e1",
      "function": "transfer(address,uint256)",
      "arguments": [
        "0x295988D44C7eE38Eb0ABaD16668A310770EfD0fA",
        "100000000000000000000"
      ],
      "transaction": {
        "type": "0x02",
        "from": "0x7824a63a4051eb44723aaae83398c847e51187fa",
        "to": "0x177ad3ad54715a84fa906705c7f7660444d7d6e1",
        "gas": "0xba51",
        "value": "0x0",
        "data": "0xa9059cbb000000000000000000000000295988d44c7ee38eb0abad16668a310770efd0fa0000000000000000000000000000000000000000000000056bc75e2d63100000",
        "nonce": "0x5a",
        "accessList": []
      },
      "additionalContracts": [],
      "isFixedGasLimit": false
    },
    {
      "hash": "0x157284415c31886a0df67f5fcc651e1c6698febf1964ac350d6bac590be124a2",
      "transactionType": "CALL",
      "contractName": null,
      "contractAddress": "0x177Ad3aD54715A84Fa906705c7F7660444d7d6e1",
      "function": "transfer(address,uint256)",
      "arguments": [
        "0x21D9E9dB2f504261B05f84D9cc7a4dC295B81fF8",
        "100000000000000000000"
      ],
      "transaction": {
        "type": "0x02",
        "from": "0x7824a63a4051eb44723aaae83398c847e51187fa",
        "to": "0x177ad3ad54715a84fa906705c7f7660444d7d6e1",
        "gas": "0xba51",
        "value": "0x0",
        "data": "0xa9059cbb00000000000000000000000021d9e9db2f504261b05f84d9cc7a4dc295b81ff80000000000000000000000000000000000000000000000056bc75e2d63100000",
        "nonce": "0x5b",
        "accessList": []
      },
      "additionalContracts": [],
      "isFixedGasLimit": false
    },
    {
      "hash": "0xd6298d4a9ac1b58e2c65029a4394ae36cadc6fdf2f7926081be68daf8cddc552",
      "transactionType": "CALL",
      "contractName": null,
      "contractAddress": "0x177Ad3aD54715A84Fa906705c7F7660444d7d6e1",
      "function": "transfer(address,uint256)",
      "arguments": [
        "0x973C84e8bB1C16a0ed47010723932732a21053C5",
        "100000000000000000000"
      ],
      "transaction": {
        "type": "0x02",
        "from": "0x7824a63a4051eb44723aaae83398c847e51187fa",
        "to": "0x177ad3ad54715a84fa906705c7f7660444d7d6e1",
        "gas": "0xba51",
        "value": "0x0",
        "data": "0xa9059cbb000000000000000000000000973c84e8bb1c16a0ed47010723932732a21053c50000000000000000000000000000000000000000000000056bc75e2d63100000",
        "nonce": "0x5c",
        "accessList": []
      },
      "additionalContracts": [],
      "isFixedGasLimit": false
    },
    {
      "hash": "0x4356de63e47d3fed02b11c64a05cf1c7607c5267065392d9108b26abb2b8ea51",
      "transactionType": "CALL",
      "contractName": null,
      "contractAddress": "0x177Ad3aD54715A84Fa906705c7F7660444d7d6e1",
      "function": "transfer(address,uint256)",
      "arguments": [
        "0x0c28fBA70C7506b1210e33d47097F7934915f8CB",
        "100000000000000000000"
      ],
      "transaction": {
        "type": "0x02",
        "from": "0x7824a63a4051eb44723aaae83398c847e51187fa",
        "to": "0x177ad3ad54715a84fa906705c7f7660444d7d6e1",
        "gas": "0xba51",
        "value": "0x0",
        "data": "0xa9059cbb0000000000000000000000000c28fba70c7506b1210e33d47097f7934915f8cb0000000000000000000000000000000000000000000000056bc75e2d63100000",
        "nonce": "0x5d",
        "accessList": []
      },
      "additionalContracts": [],
      "isFixedGasLimit": false
    },
    {
      "hash": "0x39665388df871c63cc61f366e1c0d939d8a0770bbd652234e235fd4ba2b70186",
      "transactionType": "CALL",
      "contractName": null,
      "contractAddress": "0x177Ad3aD54715A84Fa906705c7F7660444d7d6e1",
      "function": "transfer(address,uint256)",
      "arguments": [
        "0xdBf63CF92487fE846cf6742ba7a47E34DD0f0D56",
        "100000000000000000000"
      ],
      "transaction": {
        "type": "0x02",
        "from": "0x7824a63a4051eb44723aaae83398c847e51187fa",
        "to": "0x177ad3ad54715a84fa906705c7f7660444d7d6e1",
        "gas": "0xba51",
        "value": "0x0",
        "data": "0xa9059cbb000000000000000000000000dbf63cf92487fe846cf6742ba7a47e34dd0f0d560000000000000000000000000000000000000000000000056bc75e2d63100000",
        "nonce": "0x5e",
        "accessList": []
      },
      "additionalContracts": [],
      "isFixedGasLimit": false
    },
    {
      "hash": "0x0a894364dd7f571206803c67eaba90f59ac3a2cbadd990eb3a06d937c0d11505",
      "transactionType": "CALL",
      "contractName": null,
      "contractAddress": "0x177Ad3aD54715A84Fa906705c7F7660444d7d6e1",
      "function": "transfer(address,uint256)",
      "arguments": [
        "0xF33443699bfF5249c56A8Fd776F01c30A8A0F2a7",
        "100000000000000000000"
      ],
      "transaction": {
        "type": "0x02",
        "from": "0x7824a63a4051eb44723aaae83398c847e51187fa",
        "to": "0x177ad3ad54715a84fa906705c7f7660444d7d6e1",
        "gas": "0xba51",
        "value": "0x0",
        "data": "0xa9059cbb000000000000000000000000f33443699bff5249c56a8fd776f01c30a8a0f2a70000000000000000000000000000000000000000000000056bc75e2d63100000",
        "nonce": "0x5f",
        "accessList": []
      },
      "additionalContracts": [],
      "isFixedGasLimit": false
    },
    {
      "hash": "0xe792f5653a9bc28e1f3bf4110e8e38318c7652b4a8fc07336bf6d32870033e43",
      "transactionType": "CALL",
      "contractName": null,
      "contractAddress": "0x177Ad3aD54715A84Fa906705c7F7660444d7d6e1",
      "function": "transfer(address,uint256)",
      "arguments": [
        "0x15f99dcc6904D458FC0710c980E43a8A0a28307E",
        "100000000000000000000"
      ],
      "transaction": {
        "type": "0x02",
        "from": "0x7824a63a4051eb44723aaae83398c847e51187fa",
        "to": "0x177ad3ad54715a84fa906705c7f7660444d7d6e1",
        "gas": "0xba51",
        "value": "0x0",
        "data": "0xa9059cbb00000000000000000000000015f99dcc6904d458fc0710c980e43a8a0a28307e0000000000000000000000000000000000000000000000056bc75e2d63100000",
        "nonce": "0x60",
        "accessList": []
      },
      "additionalContracts": [],
      "isFixedGasLimit": false
    },
    {
      "hash": "0xfda55c1ee29539be01e1679fa3925c613d0a2267929cb3bed5abc722458ddc01",
      "transactionType": "CALL",
      "contractName": null,
      "contractAddress": "0x177Ad3aD54715A84Fa906705c7F7660444d7d6e1",
      "function": "transfer(address,uint256)",
      "arguments": [
        "0x01DfF7f363552D9E195Ab25396680A536498573F",
        "100000000000000000000"
      ],
      "transaction": {
        "type": "0x02",
        "from": "0x7824a63a4051eb44723aaae83398c847e51187fa",
        "to": "0x177ad3ad54715a84fa906705c7f7660444d7d6e1",
        "gas": "0xba51",
        "value": "0x0",
        "data": "0xa9059cbb00000000000000000000000001dff7f363552d9e195ab25396680a536498573f0000000000000000000000000000000000000000000000056bc75e2d63100000",
        "nonce": "0x61",
        "accessList": []
      },
      "additionalContracts": [],
      "isFixedGasLimit": false
    },
    {
      "hash": "0x873c70415184a8f4a3e63f1d1390b22b383c873a07d0c2031229a26f252ebf2e",
      "transactionType": "CALL",
      "contractName": null,
      "contractAddress": "0x177Ad3aD54715A84Fa906705c7F7660444d7d6e1",
      "function": "transfer(address,uint256)",
      "arguments": [
        "0x5Bf7583b93117e57c5ea6b3E799B0382751c07DA",
        "100000000000000000000"
      ],
      "transaction": {
        "type": "0x02",
        "from": "0x7824a63a4051eb44723aaae83398c847e51187fa",
        "to": "0x177ad3ad54715a84fa906705c7f7660444d7d6e1",
        "gas": "0xba51",
        "value": "0x0",
        "data": "0xa9059cbb0000000000000000000000005bf7583b93117e57c5ea6b3e799b0382751c07da0000000000000000000000000000000000000000000000056bc75e2d63100000",
        "nonce": "0x62",
        "accessList": []
      },
      "additionalContracts": [],
      "isFixedGasLimit": false
    },
    {
      "hash": "0xdd3526fee1b8e31916d4f00c5087f00d1608fa38f563bd8daf4be32cefb70727",
      "transactionType": "CALL",
      "contractName": null,
      "contractAddress": "0x177Ad3aD54715A84Fa906705c7F7660444d7d6e1",
      "function": "transfer(address,uint256)",
      "arguments": [
        "0xEDc418502EF1a393240A62831a37072F0336AA6d",
        "100000000000000000000"
      ],
      "transaction": {
        "type": "0x02",
        "from": "0x7824a63a4051eb44723aaae83398c847e51187fa",
        "to": "0x177ad3ad54715a84fa906705c7f7660444d7d6e1",
        "gas": "0xba51",
        "value": "0x0",
        "data": "0xa9059cbb000000000000000000000000edc418502ef1a393240a62831a37072f0336aa6d0000000000000000000000000000000000000000000000056bc75e2d63100000",
        "nonce": "0x63",
        "accessList": []
      },
      "additionalContracts": [],
      "isFixedGasLimit": false
    },
    {
      "hash": "0x944c49816ddf24cc0394116dfac60383f73214012e585fc119b37fb0bd19aa2a",
      "transactionType": "CALL",
      "contractName": null,
      "contractAddress": "0x177Ad3aD54715A84Fa906705c7F7660444d7d6e1",
      "function": "transfer(address,uint256)",
      "arguments": [
        "0x5A4b1164289a4161A73446F83D294Bb4e026e738",
        "100000000000000000000"
      ],
      "transaction": {
        "type": "0x02",
        "from": "0x7824a63a4051eb44723aaae83398c847e51187fa",
        "to": "0x177ad3ad54715a84fa906705c7f7660444d7d6e1",
        "gas": "0xba51",
        "value": "0x0",
        "data": "0xa9059cbb0000000000000000000000005a4b1164289a4161a73446f83d294bb4e026e7380000000000000000000000000000000000000000000000056bc75e2d63100000",
        "nonce": "0x64",
        "accessList": []
      },
      "additionalContracts": [],
      "isFixedGasLimit": false
    },
    {
      "hash": "0xfe8dbfde45cd0fb6dd232e861019b3363447e511762131a2778aa5f2ee137fc6",
      "transactionType": "CALL",
      "contractName": null,
      "contractAddress": "0x177Ad3aD54715A84Fa906705c7F7660444d7d6e1",
      "function": "transfer(address,uint256)",
      "arguments": [
        "0x86f2f13a1d622014edE5695e3731F7A09bc7b481",
        "100000000000000000000"
      ],
      "transaction": {
        "type": "0x02",
        "from": "0x7824a63a4051eb44723aaae83398c847e51187fa",
        "to": "0x177ad3ad54715a84fa906705c7f7660444d7d6e1",
        "gas": "0xba51",
        "value": "0x0",
        "data": "0xa9059cbb00000000000000000000000086f2f13a1d622014ede5695e3731f7a09bc7b4810000000000000000000000000000000000000000000000056bc75e2d63100000",
        "nonce": "0x65",
        "accessList": []
      },
      "additionalContracts": [],
      "isFixedGasLimit": false
    },
    {
      "hash": "0xe448d21f2e906fcaf5b8eb050d62559f27b289dee1d69a293fe34e32c44bb894",
      "transactionType": "CALL",
      "contractName": null,
      "contractAddress": "0x177Ad3aD54715A84Fa906705c7F7660444d7d6e1",
      "function": "transfer(address,uint256)",
      "arguments": [
        "0x732903f195c27C45Aa86a2045aa160442608F21A",
        "100000000000000000000"
      ],
      "transaction": {
        "type": "0x02",
        "from": "0x7824a63a4051eb44723aaae83398c847e51187fa",
        "to": "0x177ad3ad54715a84fa906705c7f7660444d7d6e1",
        "gas": "0xba51",
        "value": "0x0",
        "data": "0xa9059cbb000000000000000000000000732903f195c27c45aa86a2045aa160442608f21a0000000000000000000000000000000000000000000000056bc75e2d63100000",
        "nonce": "0x66",
        "accessList": []
      },
      "additionalContracts": [],
      "isFixedGasLimit": false
    },
    {
      "hash": null,
      "transactionType": "CALL",
      "contractName": null,
      "contractAddress": "0x177Ad3aD54715A84Fa906705c7F7660444d7d6e1",
      "function": "transfer(address,uint256)",
      "arguments": [
        "0xcaa8615677eDbAacC857f25Bc669bC4A776642F5",
        "100000000000000000000"
      ],
      "transaction": {
        "type": "0x02",
        "from": "0x7824a63a4051eb44723aaae83398c847e51187fa",
        "to": "0x177ad3ad54715a84fa906705c7f7660444d7d6e1",
        "gas": "0xba51",
        "value": "0x0",
        "data": "0xa9059cbb000000000000000000000000caa8615677edbaacc857f25bc669bc4a776642f50000000000000000000000000000000000000000000000056bc75e2d63100000",
        "nonce": "0x67",
        "accessList": []
      },
      "additionalContracts": [],
      "isFixedGasLimit": false
    },
    {
      "hash": null,
      "transactionType": "CALL",
      "contractName": null,
      "contractAddress": "0x177Ad3aD54715A84Fa906705c7F7660444d7d6e1",
      "function": "transfer(address,uint256)",
      "arguments": [
        "0xF9E2d4b265Fef348e05AFf35658B85AC4F45d6eF",
        "100000000000000000000"
      ],
      "transaction": {
        "type": "0x02",
        "from": "0x7824a63a4051eb44723aaae83398c847e51187fa",
        "to": "0x177ad3ad54715a84fa906705c7f7660444d7d6e1",
        "gas": "0xba51",
        "value": "0x0",
        "data": "0xa9059cbb000000000000000000000000f9e2d4b265fef348e05aff35658b85ac4f45d6ef0000000000000000000000000000000000000000000000056bc75e2d63100000",
        "nonce": "0x68",
        "accessList": []
      },
      "additionalContracts": [],
      "isFixedGasLimit": false
    },
    {
      "hash": null,
      "transactionType": "CALL",
      "contractName": null,
      "contractAddress": "0x177Ad3aD54715A84Fa906705c7F7660444d7d6e1",
      "function": "transfer(address,uint256)",
      "arguments": [
        "0xB38449e8bBC51580f85399A58480C3A79B634Cdc",
        "100000000000000000000"
      ],
      "transaction": {
        "type": "0x02",
        "from": "0x7824a63a4051eb44723aaae83398c847e51187fa",
        "to": "0x177ad3ad54715a84fa906705c7f7660444d7d6e1",
        "gas": "0xba51",
        "value": "0x0",
        "data": "0xa9059cbb000000000000000000000000b38449e8bbc51580f85399a58480c3a79b634cdc0000000000000000000000000000000000000000000000056bc75e2d63100000",
        "nonce": "0x69",
        "accessList": []
      },
      "additionalContracts": [],
      "isFixedGasLimit": false
    },
    {
      "hash": null,
      "transactionType": "CALL",
      "contractName": null,
      "contractAddress": "0x177Ad3aD54715A84Fa906705c7F7660444d7d6e1",
      "function": "transfer(address,uint256)",
      "arguments": [
        "0x01315aB5d2e074285DC38D7D79e5B5a14C69fa8a",
        "100000000000000000000"
      ],
      "transaction": {
        "type": "0x02",
        "from": "0x7824a63a4051eb44723aaae83398c847e51187fa",
        "to": "0x177ad3ad54715a84fa906705c7f7660444d7d6e1",
        "gas": "0xba51",
        "value": "0x0",
        "data": "0xa9059cbb00000000000000000000000001315ab5d2e074285dc38d7d79e5b5a14c69fa8a0000000000000000000000000000000000000000000000056bc75e2d63100000",
        "nonce": "0x6a",
        "accessList": []
      },
      "additionalContracts": [],
      "isFixedGasLimit": false
    },
    {
      "hash": null,
      "transactionType": "CALL",
      "contractName": null,
      "contractAddress": "0x177Ad3aD54715A84Fa906705c7F7660444d7d6e1",
      "function": "transfer(address,uint256)",
      "arguments": [
        "0xBC23F89D18f702C34D655079A144037CEbd9257F",
        "100000000000000000000"
      ],
      "transaction": {
        "type": "0x02",
        "from": "0x7824a63a4051eb44723aaae83398c847e51187fa",
        "to": "0x177ad3ad54715a84fa906705c7f7660444d7d6e1",
        "gas": "0xba51",
        "value": "0x0",
        "data": "0xa9059cbb000000000000000000000000bc23f89d18f702c34d655079a144037cebd9257f0000000000000000000000000000000000000000000000056bc75e2d63100000",
        "nonce": "0x6b",
        "accessList": []
      },
      "additionalContracts": [],
      "isFixedGasLimit": false
    },
    {
      "hash": null,
      "transactionType": "CALL",
      "contractName": null,
      "contractAddress": "0x177Ad3aD54715A84Fa906705c7F7660444d7d6e1",
      "function": "transfer(address,uint256)",
      "arguments": [
        "0x0c96b5CCc9dC8f19Df8e2a5c15efDB2dc20d70f9",
        "100000000000000000000"
      ],
      "transaction": {
        "type": "0x02",
        "from": "0x7824a63a4051eb44723aaae83398c847e51187fa",
        "to": "0x177ad3ad54715a84fa906705c7f7660444d7d6e1",
        "gas": "0xba51",
        "value": "0x0",
        "data": "0xa9059cbb0000000000000000000000000c96b5ccc9dc8f19df8e2a5c15efdb2dc20d70f90000000000000000000000000000000000000000000000056bc75e2d63100000",
        "nonce": "0x6c",
        "accessList": []
      },
      "additionalContracts": [],
      "isFixedGasLimit": false
    },
    {
      "hash": null,
      "transactionType": "CALL",
      "contractName": null,
      "contractAddress": "0x177Ad3aD54715A84Fa906705c7F7660444d7d6e1",
      "function": "transfer(address,uint256)",
      "arguments": [
        "0xa4F9e407751bE75AF10Fe5994860406D2bD45eFb",
        "100000000000000000000"
      ],
      "transaction": {
        "type": "0x02",
        "from": "0x7824a63a4051eb44723aaae83398c847e51187fa",
        "to": "0x177ad3ad54715a84fa906705c7f7660444d7d6e1",
        "gas": "0xba51",
        "value": "0x0",
        "data": "0xa9059cbb000000000000000000000000a4f9e407751be75af10fe5994860406d2bd45efb0000000000000000000000000000000000000000000000056bc75e2d63100000",
        "nonce": "0x6d",
        "accessList": []
      },
      "additionalContracts": [],
      "isFixedGasLimit": false
    },
    {
      "hash": null,
      "transactionType": "CALL",
      "contractName": null,
      "contractAddress": "0x177Ad3aD54715A84Fa906705c7F7660444d7d6e1",
      "function": "transfer(address,uint256)",
      "arguments": [
        "0x6Ecc59c35e3951201C803b821BfA801349eDF48f",
        "100000000000000000000"
      ],
      "transaction": {
        "type": "0x02",
        "from": "0x7824a63a4051eb44723aaae83398c847e51187fa",
        "to": "0x177ad3ad54715a84fa906705c7f7660444d7d6e1",
        "gas": "0xba51",
        "value": "0x0",
        "data": "0xa9059cbb0000000000000000000000006ecc59c35e3951201c803b821bfa801349edf48f0000000000000000000000000000000000000000000000056bc75e2d63100000",
        "nonce": "0x6e",
        "accessList": []
      },
      "additionalContracts": [],
      "isFixedGasLimit": false
    },
    {
      "hash": null,
      "transactionType": "CALL",
      "contractName": null,
      "contractAddress": "0x177Ad3aD54715A84Fa906705c7F7660444d7d6e1",
      "function": "transfer(address,uint256)",
      "arguments": [
        "0x7e4324afA7AeB899B0e4d98C2745083fD4eDE2Db",
        "100000000000000000000"
      ],
      "transaction": {
        "type": "0x02",
        "from": "0x7824a63a4051eb44723aaae83398c847e51187fa",
        "to": "0x177ad3ad54715a84fa906705c7f7660444d7d6e1",
        "gas": "0xba51",
        "value": "0x0",
        "data": "0xa9059cbb0000000000000000000000007e4324afa7aeb899b0e4d98c2745083fd4ede2db0000000000000000000000000000000000000000000000056bc75e2d63100000",
        "nonce": "0x6f",
        "accessList": []
      },
      "additionalContracts": [],
      "isFixedGasLimit": false
    },
    {
      "hash": null,
      "transactionType": "CALL",
      "contractName": null,
      "contractAddress": "0x177Ad3aD54715A84Fa906705c7F7660444d7d6e1",
      "function": "transfer(address,uint256)",
      "arguments": [
        "0x5FcA8FADd2586f1BDA506A0E36d7196A3A60bA9d",
        "100000000000000000000"
      ],
      "transaction": {
        "type": "0x02",
        "from": "0x7824a63a4051eb44723aaae83398c847e51187fa",
        "to": "0x177ad3ad54715a84fa906705c7f7660444d7d6e1",
        "gas": "0xba51",
        "value": "0x0",
        "data": "0xa9059cbb0000000000000000000000005fca8fadd2586f1bda506a0e36d7196a3a60ba9d0000000000000000000000000000000000000000000000056bc75e2d63100000",
        "nonce": "0x70",
        "accessList": []
      },
      "additionalContracts": [],
      "isFixedGasLimit": false
    },
    {
      "hash": null,
      "transactionType": "CALL",
      "contractName": null,
      "contractAddress": "0x177Ad3aD54715A84Fa906705c7F7660444d7d6e1",
      "function": "transfer(address,uint256)",
      "arguments": [
        "0xA5216C6F685c2b8a678A704107760Be652665234",
        "100000000000000000000"
      ],
      "transaction": {
        "type": "0x02",
        "from": "0x7824a63a4051eb44723aaae83398c847e51187fa",
        "to": "0x177ad3ad54715a84fa906705c7f7660444d7d6e1",
        "gas": "0xba51",
        "value": "0x0",
        "data": "0xa9059cbb000000000000000000000000a5216c6f685c2b8a678a704107760be6526652340000000000000000000000000000000000000000000000056bc75e2d63100000",
        "nonce": "0x71",
        "accessList": []
      },
      "additionalContracts": [],
      "isFixedGasLimit": false
    },
    {
      "hash": null,
      "transactionType": "CALL",
      "contractName": null,
      "contractAddress": "0x177Ad3aD54715A84Fa906705c7F7660444d7d6e1",
      "function": "transfer(address,uint256)",
      "arguments": [
        "0xf5d9E0cF7b63E0C2D8A7E830fdCe539bB3D0848D",
        "100000000000000000000"
      ],
      "transaction": {
        "type": "0x02",
        "from": "0x7824a63a4051eb44723aaae83398c847e51187fa",
        "to": "0x177ad3ad54715a84fa906705c7f7660444d7d6e1",
        "gas": "0xba51",
        "value": "0x0",
        "data": "0xa9059cbb000000000000000000000000f5d9e0cf7b63e0c2d8a7e830fdce539bb3d0848d0000000000000000000000000000000000000000000000056bc75e2d63100000",
        "nonce": "0x72",
        "accessList": []
      },
      "additionalContracts": [],
      "isFixedGasLimit": false
    },
    {
      "hash": null,
      "transactionType": "CALL",
      "contractName": null,
      "contractAddress": "0x177Ad3aD54715A84Fa906705c7F7660444d7d6e1",
      "function": "transfer(address,uint256)",
      "arguments": [
        "0x3468E001c7592F8759a0753C9680931059836641",
        "100000000000000000000"
      ],
      "transaction": {
        "type": "0x02",
        "from": "0x7824a63a4051eb44723aaae83398c847e51187fa",
        "to": "0x177ad3ad54715a84fa906705c7f7660444d7d6e1",
        "gas": "0xba51",
        "value": "0x0",
        "data": "0xa9059cbb0000000000000000000000003468e001c7592f8759a0753c96809310598366410000000000000000000000000000000000000000000000056bc75e2d63100000",
        "nonce": "0x73",
        "accessList": []
      },
      "additionalContracts": [],
      "isFixedGasLimit": false
    }
  ],
  "receipts": [],
  "libraries": [],
  "pending": [
    "0x81a556865052208bb58ee588499ff74c2ffee594628cb67c0e8962b6d1313b08",
    "0x9a4597beb4c3e854930381c784684b67f1de2d1ff8afb95c53dabb9328960ea8",
    "0xe8413c17ed4bb8561f68b7642f1f9074dd810fdd09d4a6da505e987c61aceba3",
    "0x39abb14d8b1f55f56c1543833b317b681b3ee0c7031a505724e868c5e7a082d3",
    "0x9677ab29dcb2dc1101ce10e71a3b4268427c1d69eeb99719524928f9b8730c98",
    "0xe09e862d796f4e2f88e9f2ed5a30d474fe9a6042bad894c5925fafdf705ac84e",
    "0xb529664b42f58b947296b0abe2d7020f128cf7330e69a90ce64100368a36b640",
    "0x28d386d9d7d71277eae97e16d6c9118d1df30f0897340bd4d01274028a6d3484",
    "0xeb2fb7dd950bc083f94c1d55264adb40890df380f23480d8fce27e13fae4cf5c",
    "0x714a9e33e4740b3885ae352302a674c6ce8703760df267a7b7be95f0843a677e",
    "0x18781138789198c81b0ed199994eb0ca8df7b5cb923c66c8bc919840486cc54b",
    "0x37f42c96e50ee7f3e9670111432c8fa57ceabb546923c748756a76a2a155d28f",
    "0x7e73b151ab93cd132c76d7123f7ab27a18c71338a0e24a9f095e9e8dbd800e6c",
    "0x157284415c31886a0df67f5fcc651e1c6698febf1964ac350d6bac590be124a2",
    "0xd6298d4a9ac1b58e2c65029a4394ae36cadc6fdf2f7926081be68daf8cddc552",
    "0x4356de63e47d3fed02b11c64a05cf1c7607c5267065392d9108b26abb2b8ea51",
    "0x39665388df871c63cc61f366e1c0d939d8a0770bbd652234e235fd4ba2b70186",
    "0x0a894364dd7f571206803c67eaba90f59ac3a2cbadd990eb3a06d937c0d11505",
    "0xe792f5653a9bc28e1f3bf4110e8e38318c7652b4a8fc07336bf6d32870033e43",
    "0xfda55c1ee29539be01e1679fa3925c613d0a2267929cb3bed5abc722458ddc01",
    "0x873c70415184a8f4a3e63f1d1390b22b383c873a07d0c2031229a26f252ebf2e",
    "0xdd3526fee1b8e31916d4f00c5087f00d1608fa38f563bd8daf4be32cefb70727",
    "0x944c49816ddf24cc0394116dfac60383f73214012e585fc119b37fb0bd19aa2a",
    "0xfe8dbfde45cd0fb6dd232e861019b3363447e511762131a2778aa5f2ee137fc6",
    "0xe448d21f2e906fcaf5b8eb050d62559f27b289dee1d69a293fe34e32c44bb894"
  ],
  "returns": {},
  "timestamp": 1709953372,
  "chain": 11155420,
  "multi": false,
  "commit": "23624bb"
}